:100000000C942A000C9447000C9447000C94470071
:100010000C9447000C9447000C9447000C94470044
:100020000C9447000C9447000C9447000C94470034
:100030000C9447000C9447000C9447000C94470024
:100040000C9447000C9447000C9447000C94470014
:100050000C94470011241FBECFE5D8E0DEBFCDBF12
:1000600010E0A0E6B0E0E0E4F3E002C005900D92FD
:10007000AA36B107D9F710E0AAE6B0E001C01D9298
:10008000A038B107E1F70E94AA000C949F010C94DC
:100090000000382F26B3207E82958F70992780FD2F
:1000A000216081FD226082FD246088709070892B20
:1000B00009F028606111206128BBE0E9F1E0CF017F
:1000C0000197F1F7C59ACF010197F1F7C598CF01D4
:1000D0000197F1F726B3207E3F70832F992780FD8B
:1000E000216081FD226082FD246088709070892BE0
:1000F00009F028606111206128BBCF010197F1F759
:10010000C59ACF010197F1F7C5983197F1F7089596
:10011000089560E10E944900089560E00E9449004E
:1001200083E393E1FC013197F1F70197F1F708952B
:10013000982F662311F480E801C080EC60E0890FFD
:100140000E94490083E393E1FC013197F1F70197A5
:10015000F1F70895CF93DF9314BE80E181BDC59A76
:10016000B89AB99ABA9ABB9ABC9ABD9A20E0C3E3EE
:10017000D3E1CE010197F1F72F5F2C30D1F760E08A
:1001800083E30E944900CE010197F1F7CE01019768
:10019000F1F760E082E30E944900CE010197F1F798
:1001A000CE010197F1F760E08CE20E944900CE0198
:1001B0000197F1F7CE010197F1F760E086E00E9428
:1001C0004900CE010197F1F7CE010197F1F760E008
:1001D0008CE00E944900CE010197F1F7CE01019712
:1001E000F1F760E081E00E944900CE010197F1F74C
:1001F000CE010197F1F760E082E00E944900CE0154
:100200000197F1F7CE010197F1F72197F1F780E41B
:100210000E948D0082E00E94890084E00E94890093
:1002200084E00E9489008EE00E94890081E10E94A2
:10023000890081E10E9489008EE00E94890080E0AF
:100240000E94890060E080E00E949800C0E6D0E053
:100250008881882341F060E10E944900219680E076
:10026000C836D807A9F780E00E94890020E0E3E3C0
:10027000F3E1CF010197F1F72F5F2A3FD1F720E09B
:10028000E3E3F3E1CF010197F1F72F5F2A3FD1F7C5
:1002900020E0E3E3F3E1CF010197F1F72F5F2A3F7D
:1002A000D1F720E0E3E3F3E1CF010197F1F72F5F0E
:1002B0002A3F21F1F9CF83E393E10197F1F72F5F13
:1002C0002A3FC9F720E0E3E3F3E1CF010197F1F71B
:1002D0002F5F2A3FD1F720E0E3E3F3E1CF0101975D
:1002E000F1F72F5F2A3FD1F720E0E3E3F3E1CF01FD
:1002F0000197F1F72F5F2A3FD1F789CF80E40E9461
:100300008D008FE10E94890080E00E9489008FE1CA
:100310000E94890080E00E9489008FE10E9489008C
:1003200080E00E9489008FE10E94890080E00E94A5
:10033000890060E080E00E94980020E0BCCFFFCF01
:0A034000526573756C743A200000DA
:00000001FF
