:02000000FF2AD5
:08000800FF00030E8312031335
:10001000B4000A0EB500040EB6008A110A12352B80
:1000200000000000CB0B10280800CD08031D192884
:100030000800F9300000000000000000000000008F
:1000400000000000000000000000000000000000B0
:1000500000000000FF3E031D1A2800000000000001
:100060000000000000000000000000000000000090
:10007000000000000000000000000000CD0B192867
:100080000800CE08031D4528080009300000FF3E87
:10009000031D462800000000CE0B45280800CC01B7
:1000A0004B084C020318080064000130CD001520F5
:1000B000CC0A5028FB308316031307058700FB305A
:1000C000831207058700DF30831607058700DF30BE
:1000D00083120705CB0020304B048700F7308316CE
:1000E00007058700F730831207058700C301C901A0
:1000F000083049020318FC284308013A03199628DE
:10010000033A0319A228013A0319AE28073A031942
:10011000BA28013A0319C628033A0319D228013A2A
:100120000319DE28073A0319EA28F52801304605A5
:10013000CB00CC01CB08031D4C14C2134C08031D8B
:10014000C217F52801304605CB00CC01CB08031DB2
:100150004C1447104C08031D4714F5280130460580
:10016000CB00CC01CB08031D4C14C7104C08031D59
:10017000C714F52801304605CB00CC01CB08031D80
:100180004C1442104C08031D4214F528013046055A
:10019000CB00CC01CB08031D4C14C2104C08031D2E
:1001A000C214F52801304605CB00CC01CB08031D55
:1001B0004C14C2114C08031DC215F5280130460528
:1001C000CB00CC01CB08031D4C1442124C08031D7C
:1001D0004216F52801304605CB00CC01CB08031DA3
:1001E0004C1442134C08031D4217C6080310C60CDA
:1001F000430AC300C90A7828C301CA0108304A0269
:100200000318C8294308013A03191C29033A0319A2
:100210002E29013A03194029073A03195229013AB4
:1002200003196429033A03197629013A0319882925
:10023000073A03199A29AB29DF308316070587008F
:100240008312C21D2A29DF300705CB0020304B0462
:100250008700AB29DF3007058700AB29DF30831625
:10026000070587008312C21C3C29DF300705CB003D
:1002700020304B048700AB29DF3007058700AB290E
:10028000DF308316070587008312421C4E29DF30BA
:100290000705CB0020304B048700AB29DF30070572
:1002A0008700AB29DF308316070587008312C71C40
:1002B0006029DF300705CB0020304B048700AB29D5
:1002C000DF3007058700AB29DF308316070587007D
:1002D0008312471C7229DF300705CB0020304B0406
:1002E0008700AB29DF3007058700AB29DF30831695
:1002F000070587008312C21F8429DF300705CB0062
:1003000020304B048700AB29DF3007058700AB297D
:10031000DF308316070587008312421F9629DF30DE
:100320000705CB0020304B048700AB29DF300705E1
:100330008700AB29DF308316070587008312421E32
:10034000A829DF300705CB0020304B048700AB29FC
:10035000DF3007058700F730831607058700F73081
:1003600083120705CB0008304B0487000530CB0013
:100370001020F730831607058700F7308312070532
:1003800087000530CB001020430AC300CA0AFE28AC
:10039000DF30831607058700DF3083120705CB00A7
:1003A00020304B048700F730831607058700F730AD
:1003B00083120705CB0008304B048700FB308316FF
:1003C00007058700FB3083120705CB0004304B0480
:1003D0008700080006118611061286120610861084
:1003E0004B0E0F39CD000F30CD054D180615CD1829
:1003F00086154D190616CD198616CC08031D061450
:100400000A30CE00412086140A30CE0041208610EA
:100410000F304B05CD000A30CE0041200611861169
:1004200006128612061086104D180615CD18861570
:100430004D190616CD198616CC08031D06140A3070
:10044000CE00412086140A30CE00412086100A30AA
:10045000CE0041200800E13083120313C6005A2069
:100460000800213083120313C6005A20FE30C60054
:100470005A202230C6005A200230C6005A200800F6
:10048000263083120313C6005A200F30C6005A20AC
:100490000800063083120313C4002030C6005A201F
:1004A0004408C6005A200800A03083120313C60077
:1004B0005A205530C6005A20080001308312031319
:1004C000CB00CC01EA210230CB004F200230CB0020
:1004D000CC01EA210230CB004F2008008316031321
:1004E0000611831206118316861183128611831654
:1004F0000612831206128316861283128612831640
:1005000006108312061083168610831286100C3094
:10051000CB004F203330CB00CC01EA210230CB009E
:100520004F203330CB00CC01EA210230CB004F20EA
:100530003230CB00CC01EA210230CB004F202C30EE
:10054000CB00CC01EA210230CB004F200630CB009B
:10055000CC01EA210230CB004F200C30CB00CC0183
:10056000EA210230CB004F200130CB00CC01EA2140
:100570000230CB004F200230CB00CC01EA21023008
:10058000CB004F2008000730831603139F00C030B4
:1005900081006E225D22F730831607058700F73051
:1005A00083120705CB0008304B048700FB3083160D
:1005B00007058700FB3083120705CB0004304B048E
:1005C0008700FD30831607058700FD30831207057D
:1005D000CB0002304B048700C801013048020318E9
:1005E000F62A492231224022C80AED2A0130CD00E4
:1005F000152054222B220130CD001520F92AD530A8
:1006000083120313A000C430A100BB30A200DC3071
:10061000A300A401A501A601A701A801A901AA019F
:10062000AB01AC01AD01AE01AF01BC01BD01B70131
:10063000B801BE01BF01C001C101B001B101B201E9
:10064000B301BA01BB01B9014214C2144215C3017E
:10065000C2154216FF30C500C216FF30C600421751
:100660004714C7148A110A12C32A83120313360EC1
:100670008400350E8A00340E8300FF0E7F0E0900C1
:02400E003A3F37
:00000001FF
