:020000040000FA
:040000001AEF00F003
:0200080014D012
:08001800D8CF6DF1E8CF6CF1C7
:10002000E0CF6EF16EC1E0FF6CC1E8FF6DC1D8FF9B
:1000300010001100806A896A070EC16E076EB46EE7
:10004000CF0E926E92909292816A8A6A0F0EC16E62
:10005000000E936E826A8B6AFF0E946E9490949257
:10006000836A8C6A000E956E846A8D6A0A0EC16E70
:10007000070E966E01018A908A928A948A968B90D6
:100080008C988C868C848C828C80000E636F000E22
:100090005E6F000E506F0101000E756F9490949288
:1000A000000E946F936F986F56EF00F0958179EC86
:1000B00000F084B456EF00F0942BFA0E946168EFD0
:1000C00000F084A45CEF00F0000E946F56EF00F097
:1000D000932B000E946FA4EC00F084A46BEF00F05F
:1000E000000E946F81EC00F095A172EF00F056EFD6
:1000F00000F0C80E616F81EC00F0612F7BEF00F023
:100100001200100E446F000E496F8C9EC9EC01F076
:10011000B9EC00F0E0EC01F08C8E49C18CFF8C8CC6
:100120008C9C492B442F85EF00F0010E93619EEFCC
:1001300000F09BEF00F000EC50F0120031EC50F0BA
:1001400000EC58F0982B1200100E446F000E496F0F
:100150008C9EC9EC01F0B9EC00F0E0EC01F08C8E63
:1001600049C18CFF8C8C8C9C492B442FA8EF00F04C
:100170001200010EDA6EA00ED96E000E5D6F080E31
:100180004A6F050E9363C8EF00F098A5D9EF00F011
:10019000100E476F420E4C6F8EC148F1489F9CEC89
:1001A00001F0000E476F4A0E4C6F8FC148F19CEC76
:1001B00001F0000E476F530E4C6F0A0E486F9CEC17
:1001C00001F0040E9363E8EF00F098A5F8EF00F05B
:1001D000000E476F580E4C6F90C148F19CEC01F037
:1001E000000E476F600E4C6F91C148F19CEC01F01E
:1001F000010E9363FFEF00F098A511EF01F0040EDC
:100200004A6F010E476F730E4C6F8CC148F19CEC26
:1002100001F0010E476F790E4C6F8DC148F19CECD7
:1002200001F0020E4A6F000E5D6F030E93631CEF28
:1002300001F098A532EF01F0010E476F400E4C6FB0
:1002400088C148F1489548931A0E48279CEC01F064
:10025000010E476F4B0E4C6F89C148F11A0E4827AB
:100260009CEC01F0010E936139EF01F08DB141EF8B
:1002700001F0000E476F560E4C6F260E486F9CEC37
:1002800001F0020E936348EF01F098A55CEF01F0D6
:10029000010E476F5B0E4C6F8AC148F11A0E48275A
:1002A0009CEC01F0010E476F660E4C6F8BC148F15C
:1002B0001A0E48279CEC01F0000E476F720E4C6F2F
:1002C000270E486F88B3482B9CEC01F0000E476F57
:1002D000790E4C6F240E486F9CEC01F0020E476FB4
:1002E0006A0E4C6F290E486F9CEC01F01200DFCFB4
:1002F0004CF15EC147F1D92ADFCF65F1D906050E71
:10030000656197EF01F07F0E4C6189EF01F091EF8D
:1003100001F0030E656397EF01F09CEC01F097EF9D
:1003200001F0040E656397EF01F09CEC01F0D92A0F
:10033000D92A000E5D6F12007F0E4C61B8EF01F0FC
:10034000400E4C63A6EF01F0B1EF01F03F0E4C659B
:10035000AEEF01F0200E5D6F400E4C5F2AEC02F014
:100360001200200E5D6F000E4C6F2AEC02F012009E
:100370007F0E4C63BEEF01F0A0EF01F0E80E4C657C
:10038000120063814CC14EF1D00E4C5F2AEC02F09A
:1003900012000101400E456F010EEA6E000EE96E7B
:1003A000FF0EEF6EE92A452FD1EF01F0FF0E556FDA
:1003B000566F576F586F596F5A6F5B6F5C6F1200B3
:1003C0000101010EEA6E200EE96EE8EC01F0120068
:1003D000080E426FEFCF51F1E986EFCF52F1E98875
:1003E000EFCF54F1E996EFCF53F1080E436F513739
:1003F000D8A0FDEF01F000EF02F08A8001EF02F0DB
:100400008A905237D8A007EF02F00AEF02F08A82F2
:100410000BEF02F08A925337D8A011EF02F014EFDD
:1004200002F08A8415EF02F08A945437D8A01BEFAB
:1004300002F01EEF02F08A861FEF02F08A968C8A85
:100440008C9A432FF7EF01F0E998E92A422FEAEF5F
:1004500001F0120049C146F1FACF6FF1000E456F6D
:10046000FF0E556F566F576F586F596F5A6F5B6F0E
:100470005C6F000EFB6E040EFA6E4AC1E8FFF926AF
:10048000120047EF02F071EF02F08AEF02F046C16E
:10049000E8FFD8B44EEF02F046274627000EFA6E6A
:1004A00000EC06F0556F462B00EC06F0566F462B1D
:1004B00000EC06F0576F4607460780EC06F0596FD0
:1004C000462B80EC06F05A6F462B80EC06F05B6FF3
:1004D0006FC1FAFF6CEF02F06FC1FAFFA0EC02F0FF
:1004E000120046C1E8FFD8B47BEF02F049C146F1E3
:1004F000080E49611200000EFA6E00EC38F0556FDC
:10050000462B6FC1FAFF85EF02F06FC1FAFFA0EC36
:1005100002F0120046C1E8FFD8B491EF02F049C1E1
:1005200046F1000EFA6E00EC39F0596F462B6FC1A0
:10053000FAFF9BEF02F06FC1FAFFA0EC02F012008D
:100540004C67A5EF02F0B9EF02F082EC04F04167CE
:10055000ACEF02F0B9EF02F0D88055335633573381
:100560005833D88059335A335B335C33412FACEF67
:1005700002F0FACF6FF1010EEA6E000EE96E010E85
:10058000E26E550EE16E5DC1E8FFE92645C1E8FF68
:10059000E92647B3D0EF02F0E8EC02F063911200D5
:1005A000000E476FE8EC02F0010EEA6E000EE96EF5
:1005B000010EE26E550EE16E5DC1E8FFE92645C110
:1005C000E8FFE926010E476FE8EC02F063911200A4
:1005D00047B1E98863A1F1EF02F0E990E992E9946B
:1005E000E996CAEC03F0E12A63B101EF03F0370E9C
:1005F0004C6501EF03F0E990E992E994E98A02EF92
:1006000003F0E92ACAEC03F0E12A63B120EF03F01A
:100610002F0E4C6516EF03F0370E4C6116EF03F00A
:10062000E990E992E994E98A21EF03F0370E4C63EF
:1006300020EF03F0E990E992E994E98A21EF03F0D1
:10064000E92ACAEC03F0E12A63B143EF03F0270E75
:100650004C6539EF03F02F0E4C6139EF03F0370E84
:100660004C6139EF03F0E990E992E994E98A44EFAB
:1006700003F02F0E4C6343EF03F0E990E992E99405
:10068000E98A44EF03F0E92ACAEC03F0E12A370EC5
:100690004C6551EF03F0E980E982E984E99A6BEF58
:1006A00003F02F0E4C655CEF03F0E980E982E984EA
:1006B000E99AE9066BEF03F0270E4C6568EF03F04B
:1006C000E980E982E984E99AE906E9066BEF03F03B
:1006D000E906E906E906E9865DBBE98A63A174EFEC
:1006E00003F0E990E992E99426EC04F0E12A63B181
:1006F00084EF03F0370E4C6584EF03F0E990E99244
:10070000E994E98A85EF03F0E92A26EC04F0E12A6E
:1007100063B1A3EF03F02F0E4C6599EF03F0370E92
:100720004C6199EF03F0E990E992E994E98AA4EF2A
:1007300003F0370E4C63A3EF03F0E990E992E994DC
:10074000E98AA4EF03F0E92A26EC04F0E12A63B178
:10075000C6EF03F0270E4C65BCEF03F02F0E4C6183
:10076000BCEF03F0370E4C61BCEF03F0E990E99267
:10077000E994E98AC7EF03F02F0E4C63C6EF03F04C
:10078000E990E992E994E98AC7EF03F0E92A26ECB7
:1007900004F012005DABF3EF03F0280E4C61D3EFD1
:1007A00003F0F3EF03F0300E4C61DCEF03F0570E73
:1007B000E164F3EF03F01200370E4C61E5EF03F054
:1007C000560EE164F3EF03F01200370E4C63EEEFC8
:1007D00003F0560EE164F3EF03F01200550EE164EE
:1007E000F3EF03F0120063B1FAEF03F0E7CFE8FF95
:1007F000EF161200E80E4E651200F00E4E610CEF7F
:1008000004F0570EE1641200030EE95EE7CFE8FF43
:10081000EF16030EE9261200F80E4E611BEF04F0EE
:10082000560EE1641200020EE95EE7CFE8FFEF1614
:10083000020EE9261200550EE1641200010EE95E77
:10084000E7CFE8FFEF16010EE92612005DAB4FEF90
:1008500004F0280E4C612FEF04F04FEF04F0300E3F
:100860004C6138EF04F05B0EE1644FEF04F01200CE
:10087000370E4C6141EF04F05A0EE1644FEF04F083
:100880001200370E4C634AEF04F05A0EE1644FEF4A
:1008900004F01200590EE1644FEF04F0120063B14E
:1008A00056EF04F0E7CFE8FFEF161200E80E4E65B2
:1008B0001200F00E4E6168EF04F05B0EE16412006E
:1008C000030EE95EE7CFE8FFEF16030EE9261200FC
:1008D000F80E4E6177EF04F05A0EE1641200020E3A
:1008E000E95EE7CFE8FFEF16020EE9261200590E87
:1008F000E1641200010EE95EE7CFE8FFEF16010E9A
:10090000E9261200080E4C618BEF04F04CC141F156
:10091000000E456F1200100E4C6196EF04F04CC1B2
:1009200041F1080E415F010E456F1200180E4C6137
:10093000A1EF04F04CC141F1100E415F020E456F72
:100940001200200E4C61ACEF04F04CC141F1180EC6
:10095000415F030E456F1200280E4C61B7EF04F0A3
:100960004CC141F1200E415F040E456F1200300E64
:100970004C61C2EF04F04CC141F1280E415F050EFD
:10098000456F1200380E4C61CDEF04F04CC141F1BF
:10099000300E415F060E456F1200400E4C61120092
:1009A0004CC141F1380E415F070E456F1200120035
:100C0000000EFB6E0C0EFA6E2B0E486100EF07F023
:100C100048C1E8FFD890E834D890E834F92600EFCE
:100C200008F000EF09F000EF0AF000EF0BF000EF22
:100C30000CF000EF0DF000EF0EF000EF0FF000EF02
:100C400010F000EF11F000EF12F000EF13F000EFE2
:100C500014F000EF15F000EF16F000EF17F000EFC2
:100C600018F000EF19F000EF1AF000EF1BF000EFA2
:100C70001CF000EF1DF000EF1EF000EF1FF000EF82
:100C800020F000EF21F000EF22F000EF23F000EF62
:100C900024F000EF25F000EF26F000EF27F000EF42
:100CA00028F000EF29F000EF2AF000EF2BF000EF22
:100CB0002CF000EF2DF039EF2EF000EF2FF000EFC9
:100CC00030F000EF31F000EF32F0120000001200BF
:100CD000000012000000120000001200000039EFB6
:020CE00008F01A
:100D0000000EFB6E0D0EFA6E2B0E486180EF07F0A1
:100D100048C1E8FFD890E834D890E834F92680EF4D
:100D200008F080EF09F080EF0AF080EF0BF080EF21
:100D30000CF080EF0DF080EF0EF080EF0FF080EF01
:100D400010F080EF11F080EF12F080EF13F080EFE1
:100D500014F080EF15F080EF16F080EF17F080EFC1
:100D600018F080EF19F0B9EF1AF080EF1BF080EF68
:100D70001CF080EF1DF080EF1EF080EF1FF080EF81
:100D800020F080EF21F080EF22F080EF23F080EF61
:100D900024F080EF25F080EF26F080EF27F080EF41
:100DA00028F080EF29F080EF2AF080EF2BF080EF21
:100DB0002CF080EF2DF0B9EF2EF080EF2FF080EFC8
:100DC00030F080EF31F080EF32F0120000001200BE
:100DD000000012000000120000001200B9EF08F03D
:100E0000000EFB6E0E0EFA6E5F0E486100EF32F0C0
:100E100048C1E8FFE8AC12EF07F0E8A816EF07F0CA
:100E20001AEF07F0E898E89A1DEF07F0E89CE888C9
:100E30001DEF07F0E898E89CE88AD890E834D8904D
:100E4000E834F92639EF08F039EF09F039EF0AF004
:100E500039EF0BF039EF0CF039EF0DF039EF0EF000
:100E600039EF0FF039EF10F039EF11F039EF12F0E0
:100E700039EF13F039EF14F039EF15F039EF16F0C0
:100E800039EF17F039EF18F039EF19F039EF1AF0A0
:100E900039EF1BF039EF1CF039EF1DF039EF1EF080
:100EA0003CEF1FF03CEF20F039EF21F080EF22F013
:100EB00080EF23F080EF24F080EF25F080EF26F024
:100EC00080EF27F080EF28F080EF29F080EF2AF004
:100ED00080EF2BF039EF2CF039EF2DF0B9EF2EF039
:100EE00039EF2FF039EF30F039EF31F000EF32F019
:020EF0001200EE
:100F0000000EFB6E0F0EFA6E5F0E486100EF32F0BE
:100F100048C1E8FFE8AC92EF07F0E8A896EF07F0C9
:100F20009AEF07F0E898E89A9DEF07F0E89CE888C8
:100F30009DEF07F0E898E89CE88AD890E834D890CC
:100F4000E834F926B9EF08F0B9EF09F0B9EF0AF083
:100F5000B9EF0BF0B9EF0CF0B9EF0DF0B9EF0EF0FF
:100F6000B9EF0FF0B9EF10F0B9EF11F0B9EF12F0DF
:100F7000B9EF13F0B9EF14F0B9EF15F0B9EF16F0BF
:100F8000B9EF17F0B9EF18F0B9EF19F080EF1AF0D8
:100F9000B9EF1BF0B9EF1CF0B9EF1DF0B9EF1EF07F
:100FA000B9EF1FF0B9EF20F0B9EF21F000EF22F018
:100FB00000EF23F000EF24F000EF25F000EF26F023
:100FC00000EF27F000EF28F000EF29F000EF2AF003
:100FD00000EF2BF0B9EF2CF0B9EF2DF039EF2EF038
:100FE000B9EF2FF0B9EF30F0B9EF31F080EF32F018
:020FF0001200ED
:10100000000EFB6E100EFA6E46C1E8FFD890E8366F
:10101000F926FF0CFF0CFF0CFF0C8F0CFF0CFF0CD4
:10102000070CFF0CFE0C030CFF0CFC0C010CFF0C5E
:10103000F80C200CFF0CF00C700C7F0CE00CF80C82
:101040003F0CC10CFC0C1F0C830CFE0C0F0C870C0E
:10105000FF0C0F0C870CFF0C0F0C870CFF0C0F0CF8
:10106000870CFF0C0F0C870CFF0C0F0C870CFF0C70
:101070000F0C000EFB6E100EFA6E46C1E8FFD89002
:10108000E836F926FF0CFF0CFF0CFF0CFF0CFF0CE1
:10109000FF0CFF0CFF0CFF0CFF0CFF0CFF0CFF0CF8
:1010A000FF0CFF0CFF0CFF0CFF0CFF0CFF0CFF0CE8
:1010B000FF0CFF0CFF0CFF0CFF0CFF0CFF0CFF0CD8
:1010C000FF0CFF0CFF0CFF0CFF0CFF0CFF0CFF0CC8
:1010D000FF0CFF0CFF0CFF0CC00C010CFF0CC00C34
:0410E000000CFF0CF5
:10110000000EFB6E110EFA6E46C1E8FFD890E8366D
:10111000F926800C000C0F0C800C000C0F0C800CBE
:10112000000C0F0C800C000C0F0C870CFF0C0F0C2C
:10113000870CFF0C0F0C870CFF0C0F0C870CFF0C9F
:101140000F0C870CFF0C0F0C870CFF0C0F0C870C7F
:10115000FF0C0F0C870CFF0C0F0C870CFF0C0F0CF7
:10116000870CFF0C0F0C870CFF0C0F0CFF0CFF0CF7
:10117000FF0C000EFB6E110EFA6E46C1E8FFD89010
:10118000E836F926C00C000C7F0CFF0CF80C7F0C25
:10119000FF0CFC0C7F0CFF0CFC0C7F0CFF0CF80C04
:1011A0007F0CE00C000C7F0CC00C000C7F0C800C42
:1011B000000C7F0C870CF80C7F0C8F0CFC0C7F0C48
:1011C0008F0CFC0C7F0C870CF80C7F0C800C000C37
:1011D0007F0CC00C000C7F0CE00C040C7F0CFF0C8F
:0411E000FF0CFF0CF5
:10120000000EFB6E120EFA6E46C1E8FFD890E8366B
:10121000F926FF0CFF0CFF0C800C000CFF0C800C5F
:10122000000C7F0C800C000C3F0C870CFC0C1F0C7E
:10123000870CFE0C0F0C870CFF0C0F0C870CFF0C9F
:101240000F0C870CFF0C0F0C870CFF0C0F0C870C7E
:10125000FF0C0F0C870CFF0C0F0C870CFE0C0F0CF7
:10126000870CFC0C1F0C800C000C3F0C800C000C3D
:101270007F0C000EFB6E120EFA6E46C1E8FFD8908E
:10128000E836F926FF0CFF0CFF0C8F0CFF0CFF0C4F
:101290008F0CFF0CFF0C8F0CFF0CFF0C8F0CFF0C46
:1012A000FF0C8F0CFF0CFF0C8F0CFF0CFF0C8F0C36
:1012B000FF0CFF0C8F0CFF0CFF0C8F0CFF0CFF0CB6
:1012C0008F0CFF0CFF0C8F0CFF0CFF0C8F0CFF0C16
:1012D000FF0C8F0CFF0CFF0C8F0CFF0CFF0C8F0C06
:0412E000FF0CFF0CF4
:10130000000EFB6E130EFA6E46C1E8FFD890E83669
:10131000F926800C000C7F0C870CFC0C3F0C870C12
:10132000FE0C1F0C870CFF0C0F0C870CFF0C0F0C16
:10133000870CFF0C0F0C870CFF0C0F0C870CFF0C9D
:101340000F0C870CFF0C0F0C870CFF0C0F0C870C7D
:10135000FE0C0F0C870CFC0C1F0C800C000C3F0CBF
:10136000800C000C7F0C800C000CFF0CFF0CFF0CA1
:10137000FF0C000EFB6E130EFA6E46C1E8FFD8900C
:10138000E836F926800C010CFF0C800C000CFF0CD9
:10139000800C000C7F0C8F0CF80C7F0C8F0CFC0C5D
:1013A0007F0C8F0CFC0C7F0C8F0CFC0C7F0C8F0CBB
:1013B000FC0C7F0C8F0CFC0C7F0C8F0CFC0C7F0C3E
:1013C0008F0CFC0C7F0C8F0CF80C7F0C800C000C2D
:1013D0007F0C800C000CFF0C800C010CFF0CFF0C30
:0413E000FF0CFF0CF3
:10140000000EFB6E140EFA6E46C1E8FFD890E83667
:10141000F926FF0CFF0CFF0CF00C000C7F0CE00C0D
:10142000000C3F0CC00C000C1F0C810CFE0C0F0CB0
:10143000830CFF0C0F0C870CFF0C0F0C870CFF0CA0
:10144000FF0C870CFF0CFF0C870CFF0CFF0C870CAC
:10145000FF0CFF0C870CFF0CFF0C870CFF0CFF0C24
:10146000870CFF0CFF0C870CFF0CFF0C870CFF0C8C
:10147000FF0C000EFB6E140EFA6E46C1E8FFD8900A
:10148000E836F926FF0CFF0CFF0CFF0CFF0CFF0CDD
:10149000FF0CFF0CFF0CFF0CFF0CFF0CFF0CFF0CF4
:1014A000FF0CFF0CFF0CFF0CFF0CFF0CFF0CFF0CE4
:1014B000FF0CFF0CFF0CFF0CFF0CFF0CFF0CFF0CD4
:1014C000FF0CFF0CFF0CFF0CFF0CFF0CFF0CFF0CC4
:1014D000FF0CFF0CFF0CFF0CE00C010CFF0CC00C10
:0414E000000CFF0CF1
:10150000000EFB6E150EFA6E46C1E8FFD890E83665
:10151000F926870CFF0CFF0C870CFF0CFF0C870CC7
:10152000FF0CFF0C870CFF0CFF0C870CFF0CFF0C53
:10153000870CFF0CFF0C870CFF0CFF0C870CFF0CBB
:10154000FF0C870CFF0CFF0C870CFF0C0F0C830C9F
:10155000FF0C0F0C810CFE0C0F0CC00C000C1F0CB0
:10156000E00C000C3F0CF00C000C7F0CFF0CFF0C8F
:10157000FF0C000EFB6E150EFA6E46C1E8FFD89008
:10158000E836F926800C000C7F0C870CFC0C7F0CD5
:101590008F0CFF0CFF0C8F0CFF0CFF0C8F0CFF0C43
:1015A000FF0C8F0CFF0CFF0C8F0CFF0CFF0C8F0C33
:1015B000FF0CFF0C8F0CFF0CFF0C8F0CFF0CFF0CB3
:1015C0008F0CFF0CFF0C870CFC0C7F0C800C000CAC
:1015D0007F0CC00C000CFF0CE00C010CFF0CFF0C8E
:0415E000FF0CFF0CF1
:10160000000EFB6E160EFA6E46C1E8FFD890E83663
:10161000F926FF0CFF0CFF0C800C000CFF0C800C5B
:10162000000C7F0C800C000C3F0C870CF80C1F0C7E
:10163000870CFC0C0F0C870CFE0C0F0C870CFF0C9E
:101640000F0C870CFF0C0F0C870CFF0C0F0C870C7A
:10165000FF0C0F0C870CFF0C0F0C870CFF0C0F0CF2
:10166000870CFF0C0F0C870CFF0C0F0C870CFF0C6A
:101670000F0C000EFB6E160EFA6E46C1E8FFD890F6
:10168000E836F926FF0CFF0CFF0CFF0CFC0C7F0C5E
:10169000FF0CFC0C7F0CFF0CFC0C7F0CFF0CFC0CFB
:1016A0007F0CFF0CFC0C7F0CFF0CFC0C7F0CFF0C68
:1016B000FC0C7F0CFF0CFC0C7F0CFF0CFC0C7F0C5B
:1016C000FF0CFC0C7F0CFF0CFC0C7F0CFF0CFC0CCB
:1016D0007F0CFF0CFC0C7F0CFF0CFC0C7F0CFF0C38
:0416E000FC0C7F0C73
:10170000000EFB6E170EFA6E46C1E8FFD890E83661
:10171000F926870CFF0C0F0C870CFF0C0F0C870CA5
:10172000FF0C0F0C870CFF0C0F0C870CFF0C0F0C21
:10173000870CFF0C0F0C870CFF0C0F0C870CFF0C99
:101740000F0C870CFF0C0F0C870CFE0C0F0C870C7A
:10175000FC0C0F0C870CF80C1F0C800C000C3F0CC1
:10176000800C000C7F0C800C000CFF0CFF0CFF0C9D
:10177000FF0C000EFB6E170EFA6E46C1E8FFD89004
:10178000E836F926F00C000C7F0CE00C000C7F0C06
:10179000C00C000C7F0C870CFC0C7F0C8F0CFC0C1D
:1017A0007F0C8F0CFC0C7F0C8F0CFC0C7F0C8F0CB7
:1017B000FC0C7F0C8F0CFC0C7F0C8F0CFC0C7F0C3A
:1017C0008F0CFC0C7F0C870CFC0C7F0CC00C000CED
:1017D0007F0CE00C000C7F0CF00C000C7F0CFF0C5D
:0417E000FF0CFF0CEF
:10180000000EFB6E180EFA6E46C1E8FFD890E8365F
:10181000F926FF0CFF0CFF0C800C000C0F0C800C49
:10182000000C0F0C800C000C0F0C800C000C0F0C2B
:10183000870CFF0C0F0C870CFF0CFF0C870CFF0CA8
:10184000FF0C870CFF0CFF0C870CFF0CFF0C870CA8
:10185000FF0CFF0C870CFF0CFF0C870CFF0CFF0C20
:10186000870CFF0CFF0C800C000C7F0C800C000C14
:101870007F0C000EFB6E180EFA6E46C1E8FFD89082
:10188000E836F926FF0CFF0CFF0CFF0CFF0CFF0CD9
:10189000FF0CFF0CFF0CFF0CFF0CFF0CFF0CFF0CF0
:1018A000FF0CFF0CFF0CFF0CFF0CFF0CFF0CFF0CE0
:1018B000FF0CFF0CFF0CFF0CFF0CFF0CFF0CFF0CD0
:1018C000FF0CFF0CFF0CFF0CFF0CFF0CFF0CFF0CC0
:1018D000FF0CFF0CFF0CFF0CE00C010CFF0CC00C0C
:0418E000000CFF0CED
:10190000000EFB6E190EFA6E46C1E8FFD890E8365D
:10191000F926800C000C7F0C800C000C7F0C870CCF
:10192000FF0CFF0C870CFF0CFF0C870CFF0CFF0C4F
:10193000870CFF0CFF0C870CFF0CFF0C870CFF0CB7
:10194000FF0C870CFF0CFF0C870CFF0CFF0C870CA7
:10195000FF0C0F0C800C000C0F0C800C000C0F0CFB
:10196000800C000C0F0C800C000C0F0CFF0CFF0CFB
:10197000FF0C000EFB6E190EFA6E46C1E8FFD89000
:10198000E836F926800C000C7F0C870CF80C7F0CD5
:101990008F0CFC0C7F0C8F0CFC0C7F0C870CF80C54
:1019A0007F0C800C000C7F0C800C000CFF0C800C5A
:1019B000010CFF0C870CFF0CFF0C8F0CFF0CFF0CB5
:1019C0008F0CFF0CFF0C870CFF0CFF0C800C000C25
:1019D0007F0CC00C000C7F0CE00C000C7F0CFF0C8B
:0419E000FF0CFF0CED
:101A0000000EFB6E1A0EFA6E46C1E8FFD890E8365B
:101A1000F926FF0CFF0CFF0C800C000C0F0C800C47
:101A2000000C0F0C800C000C0F0C800C000C0F0C29
:101A3000870CFF0CFF0C870CFF0CFF0C870CFF0CB6
:101A4000FF0C870CFF0CFF0C870CFF0CFF0C870CA6
:101A5000FF0CFF0C870CFF0CFF0C870CFF0CFF0C1E
:101A6000870CFF0CFF0C800C000C7F0C800C000C12
:101A70007F0C000EFB6E1A0EFA6E46C1E8FFD8907E
:101A8000E836F926FF0CFF0CFF0CF80C0F0CFF0CCE
:101A9000F00C070CFF0CE00C030CFF0CE10CC30C6A
:101AA000FF0CE30CE30CFF0CE30CFF0CFF0CE30C4E
:101AB000FF0CFF0CE30CFF0CFF0CE30CFF0CFF0C06
:101AC000E30CFF0CFF0CE30CFF0CFF0CE30CFF0C12
:101AD000FF0CE30CFF0CFF0C800C1F0CFF0C800CA8
:041AE0001F0CFF0CCC
:101B0000000EFB6E1B0EFA6E46C1E8FFD890E83659
:101B1000F926800C000C7F0C800C000C7F0C870CCD
:101B2000FF0CFF0C870CFF0CFF0C870CFF0CFF0C4D
:101B3000870CFF0CFF0C870CFF0CFF0C870CFF0CB5
:101B4000FF0C870CFF0CFF0C870CFF0CFF0C870CA5
:101B5000FF0CFF0C870CFF0CFF0C870CFF0CFF0C1D
:101B6000870CFF0CFF0C870CFF0CFF0CFF0CFF0C0D
:101B7000FF0C000EFB6E1B0EFA6E46C1E8FFD890FC
:101B8000E836F926800C1F0CFF0CE30CFF0CFF0C51
:101B9000E30CFF0CFF0CE30CFF0CFF0CE30CFF0C41
:101BA000FF0CE30CFF0CFF0CE30CFF0CFF0CE30C31
:101BB000FF0CFF0CE30CFF0CFF0CE30CFF0CFF0C05
:101BC000E30CFF0CFF0CE30CFF0CFF0CE30CFF0C11
:101BD000FF0CE30CFF0CFF0CE30CFF0CFF0CFF0CE5
:041BE000FF0CFF0CEB
:101C0000000EFB6E1C0EFA6E46C1E8FFD890E83657
:101C1000F926FF0CFF0CFF0CF80C000C7F0CF00CED
:101C2000000C3F0CE00C000C1F0CC00C000C0F0C47
:101C3000810CFE0C0F0C830CFF0C0F0C870CFF0C9F
:101C40000F0C870CFF0CFF0C870CFF0CFF0C870C94
:101C5000FF0CFF0C870CFF0CFF0C870CFF0CFF0C1C
:101C6000870CFF0CFF0C870CFF0CFF0C870CC00CC3
:101C70000F0C000EFB6E1C0EFA6E46C1E8FFD890EA
:101C8000E836F926FF0CFF0CFF0CFF0CFF0CFF0CD5
:101C9000FF0CFF0CFF0CFF0CFF0CFF0CFF0CFF0CEC
:101CA000FF0CFF0CFC0C7F0CE00C000C7F0CC00C3C
:101CB000000C7F0C800C000C7F0C870CF80C7F0C48
:101CC0008F0CFC0C7F0C8F0CFC0C7F0C8F0CFC0C15
:101CD0007F0C8F0CFC0C7F0C8F0CFC0C7F0C8F0C82
:041CE000FC0C7F0C6D
:101D0000000EFB6E1D0EFA6E46C1E8FFD890E83655
:101D1000F926870CC00C0F0C870CC00C0F0C870C1D
:101D2000C00C0F0C870CFF0C0F0C870CFF0C0F0C5A
:101D3000870CFF0C0F0C870CFF0C0F0C870CFF0C93
:101D40000F0C870CFF0C0F0C830CFE0C0F0C810C7E
:101D5000FC0C0F0C800C000C1F0CC00C000C3F0C7A
:101D6000E00C000C7F0CF00C000CFF0CFF0CFF0CC7
:101D7000FF0C000EFB6E1D0EFA6E46C1E8FFD890F8
:101D8000E836F9268F0CFC0C7F0C870CF80C7F0CC6
:101D9000800C000C7F0CC00C000C7F0CE00C000CC5
:101DA0007F0CFF0CFC0C7F0CFF0CFC0C7F0CFF0C61
:101DB000FC0C7F0CFF0CFC0C7F0CFF0CFC0C7F0C54
:101DC0008F0CFC0C7F0C8F0CFC0C7F0C870CF80C20
:101DD0007F0C800C000C7F0CC00C000CFF0CE00C86
:041DE000010CFF0CE7
:101E0000000EFB6E1E0EFA6E46C1E8FFD890E83653
:101E1000F926FF0CFF0CFF0C870CFF0C0F0C870C36
:101E2000FF0C0F0C870CFF0C0F0C870CFF0C0F0C1A
:101E3000870CFF0C0F0C870CFF0C0F0C870CFF0C92
:101E40000F0C870CFF0C0F0C870CFF0C0F0C870C72
:101E5000FF0C0F0C870CFF0C0F0C870CFF0C0F0CEA
:101E6000870CFF0C0F0C800C000C0F0C800C000C6E
:101E70000F0C000EFB6E1E0EFA6E46C1E8FFD890E6
:101E8000E836F926FF0CFF0CFF0C8F0CFF0CFF0C43
:101E90008F0CFF0CFF0C8F0CFF0CFF0C8F0CFF0C3A
:101EA000FF0C8F0CFF0CFF0C8F0CFF0CFF0C8F0C2A
:101EB000FF0CFF0C8F0CFF0CFF0C8F0CFF0CFF0CAA
:101EC0008F0CFF0CFF0C8F0CFF0CFF0C8F0CFF0C0A
:101ED000FF0C8F0CFF0CFF0C8F0CFF0CFF0C8F0CFA
:041EE000FF0CFF0CE8
:101F0000000EFB6E1F0EFA6E46C1E8FFD890E83651
:101F1000F926800C000C0F0C800C000C0F0C870CA9
:101F2000FF0C0F0C870CFF0C0F0C870CFF0C0F0C19
:101F3000870CFF0C0F0C870CFF0C0F0C870CFF0C91
:101F40000F0C870CFF0C0F0C870CFF0C0F0C870C71
:101F5000FF0C0F0C870CFF0C0F0C870CFF0C0F0CE9
:101F6000870CFF0C0F0C870CFF0C0F0CFF0CFF0CE9
:101F7000FF0C000EFB6E1F0EFA6E46C1E8FFD890F4
:101F8000E836F926880C030CFF0C800C010CFF0CC2
:101F9000800C000CFF0C870CF00CFF0C8F0CF80C65
:101FA000FF0C8F0CF80CFF0C8F0CF80CFF0C8F0C37
:101FB000F80CFF0C8F0CF80CFF0C8F0CF80CFF0CBE
:101FC0008F0CF80CFF0C8F0CF80CFF0C8F0CF80C1E
:101FD000FF0C8F0CF80CFF0C8F0CF80CFF0CFF0C97
:041FE000FF0CFF0CE7
:10200000000EFB6E200EFA6E46C1E8FFD890E8364F
:10201000F926FF0CFF0CFF0C800C000C7F0C800CD1
:10202000000C7F0C800C000C7F0C800C000C7F0CD3
:10203000FE0C1F0CFF0CFE0C1F0CFF0CFE0C1F0CEB
:10204000FF0CFE0C1F0CFF0CFE0C1F0CFF0CFE0CFB
:102050001F0CFF0CFE0C1F0CFF0CFE0C1F0CFF0CCA
:10206000FE0C1F0CFF0CFE0C1F0CFF0CFE0C1F0CBB
:10207000FF0C000EFB6E200EFA6E46C1E8FFD890F2
:10208000E836F926FF0CFF0CFF0CFF0CFF0CFF0CD1
:10209000FF0CFF0CFF0CFF0CFF0CFF0CFF0CFF0CE8
:1020A000FF0CFF0CFF0CFF0CFF0CFF0CFF0CFF0CD8
:1020B000FF0CFF0CFF0CFF0CFF0CFF0CFF0CFF0CC8
:1020C000DF0CFF0CFF0C8F0CFF0CFF0C8F0CFF0CB8
:1020D000FF0CDF0CFF0CFF0CFF0CFF0CFF0CFF0CC8
:0420E000FF0CFF0CE6
:10210000000EFB6E210EFA6E46C1E8FFD890E8364D
:10211000F926FE0C1F0CFF0CFE0C1F0CFF0CFE0C16
:102120001F0CFF0CFE0C1F0CFF0CFE0C1F0CFF0CF9
:10213000FE0C1F0CFF0CFE0C1F0CFF0CFE0C1F0CEA
:10214000FF0CFE0C1F0CFF0CFE0C1F0CFF0CFE0CFA
:102150001F0CFF0C800C000CFF0C800C000CFF0C03
:10216000800C000CFF0C800C000CFF0CFF0CFF0C13
:10217000FF0C000EFB6E210EFA6E46C1E8FFD890F0
:10218000E836F9268F0CFF0CFF0C8F0CFF0CFF0CB0
:102190008F0CFF0CFF0C8F0CFF0CFF0C8F0CFF0C37
:1021A000FF0C8F0CFF0CFF0C8F0CFF0CFF0C8F0C27
:1021B000FF0CFF0C8F0CFF0CFF0C8F0CFF0CFF0CA7
:1021C0008F0CFF0CFF0C8F0CFF0CFF0C8F0CFF0C07
:1021D000FF0C8F0CFF0CFF0C8F0CFF0CFF0CFF0C87
:0421E000FF0CFF0CE5
:10220000000EFB6E220EFA6E46C1E8FFD890E8364B
:10221000F926FF0CFF0CFF0CFF0CC00C0F0CFF0C81
:10222000C00C0F0CFF0CC00C0F0CFF0CFC0C3F0C77
:10223000FF0CFC0C3F0CFF0CFC0C3F0CFF0CFC0CCF
:102240003F0CFF0CFC0C3F0CFF0CFC0C3F0CFF0C7C
:10225000FC0C3F0CFF0CFC0C3F0CFF0CFC0C3F0C6F
:10226000FF0CFC0C3F0CFF0CFC0C3F0CFF0CFC0C9F
:102270003F0C000EFB6E220EFA6E46C1E8FFD890AE
:10228000E836F926FF0CFF0CFF0CFF0CFF0CFF0CCF
:10229000FF0CFF0CFF0CFF0CFF0CFF0CFF0CFD0CE8
:1022A000FF0CFF0CF80CFF0CFF0CF80CFF0CFF0CE4
:1022B000FD0CFF0CFF0CFF0CFF0CFF0CFF0CFF0CC8
:1022C000FF0CF80CFF0CFF0CF80CFF0CFF0CF80CCB
:1022D000FF0CFF0CF80CFF0CFF0CF80CFF0CFF0CB4
:0422E000F80CFF0CEB
:10230000000EFB6E230EFA6E46C1E8FFD890E83649
:10231000F926FF0CFC0C3F0CFF0CFC0C3F0CFF0CD7
:10232000FC0C3F0CFF0CFC0C3F0CFF0CFC0C3F0C9E
:10233000FF0CFC0C3F0CFF0CFC0C3F0C870CFC0C46
:102340003F0C870CFC0C3F0C870CFC0C3F0C830CE7
:10235000F80C3F0C810CF00C7F0CC00C000CFF0C37
:10236000E00C010CFF0CF00C030CFF0CFF0CFF0C3D
:10237000FF0C000EFB6E230EFA6E46C1E8FFD890EC
:10238000E836F926FF0CF80CFF0CFF0CF80CFF0CDC
:10239000FF0CF80CFF0CFF0CF80CFF0CFF0CF80CFA
:1023A000FF0CFF0CF80CFF0CFF0CF80CFF0CFF0CE3
:1023B000F80CFF0CFF0CF80CFF0CFF0CF80CFF0CDA
:1023C0008F0CF80CFF0C8F0CF80CFF0C870CF00C2A
:1023D000FF0C800C000CFF0CC00C010CFF0CE00C7F
:0423E000030CFF0CDF
:10240000000EFB6E240EFA6E46C1E8FFD890E83647
:10241000F926FF0CFF0CFF0C870CFE0C0F0C870C31
:10242000FC0C1F0C870CF80C3F0C870CF00C7F0C7D
:10243000870CE00CFF0C870CC10CFF0C870C830C85
:10244000FF0C870C070CFF0C860C0F0CFF0C840C88
:102450001F0CFF0C800C3F0CFF0C800C7F0CFF0C42
:10246000800CFF0CFF0C810CFF0CFF0C830CFF0C8D
:10247000FF0C000EFB6E240EFA6E46C1E8FFD890EA
:10248000E836F926FF0CFF0CFF0C8F0CFF0CFF0C3D
:102490008F0CFF0CFF0C8F0CFF0CFF0C8F0CFF0C34
:1024A000FF0C8F0CFF0CFF0C8F0CFF0CFF0C8F0C24
:1024B000FF0CFF0C8F0C8F0CFF0C8F0C8F0CFF0C84
:1024C0008F0C1F0CFF0C8F0C1F0CFF0C8E0C3F0C85
:1024D000FF0C8E0C3F0CFF0C8C0C7F0CFF0C8C0C3B
:0424E0007F0CFF0C62
:10250000000EFB6E250EFA6E46C1E8FFD890E83645
:10251000F926830CFF0CFF0C810CFF0CFF0C800CC8
:10252000FF0CFF0C800C7F0CFF0C800C3F0CFF0C91
:10253000840C1F0CFF0C860C0F0CFF0C870C070C77
:10254000FF0C870C830CFF0C870CC10CFF0C870C55
:10255000E00CFF0C870CF00C7F0C870CF80C3F0C88
:10256000870CFC0C1F0C870CFE0C0F0CFF0CFF0CD7
:10257000FF0C000EFB6E250EFA6E46C1E8FFD890E8
:10258000E836F926880CFF0CFF0C880CFF0CFF0CBA
:10259000810CFF0CFF0C810CFF0CFF0C810CFF0C5D
:1025A000FF0C880CFF0CFF0C880CFF0CFF0C8C0C34
:1025B0007F0CFF0C8C0C7F0CFF0C8E0C3F0CFF0C67
:1025C0008E0C3F0CFF0C8F0C1F0CFF0C8F0C1F0C84
:1025D000FF0C8F0C8F0CFF0C8F0C8F0CFF0CFF0C63
:0425E000FF0CFF0CE1
:10260000000EFB6E260EFA6E46C1E8FFD890E83643
:10261000F926FF0CFF0CFF0C870CFF0CFF0C870C3E
:10262000FF0CFF0C870CFF0CFF0C870CFF0CFF0C42
:10263000870CFF0CFF0C870CFF0CFF0C870CFF0CAA
:10264000FF0C870CFF0CFF0C870CFF0CFF0C870C9A
:10265000FF0CFF0C870CFF0CFF0C870CFF0CFF0C12
:10266000870CFF0CFF0C870CFF0CFF0C870CFF0C7A
:10267000FF0C000EFB6E260EFA6E46C1E8FFD890E6
:10268000E836F926FF0CFF0CFF0C8F0CFF0CFF0C3B
:102690008F0CFF0CFF0C8F0CFF0CFF0C8F0CFF0C32
:1026A000FF0C8F0CFF0CFF0C8F0CFF0CFF0C8F0C22
:1026B000FF0CFF0C8F0CFF0CFF0C8F0CFF0CFF0CA2
:1026C0008F0CFF0CFF0C8F0CFF0CFF0C8F0CFF0C02
:1026D000FF0C8F0CFF0CFF0C8F0CFF0CFF0C8F0CF2
:0426E000FF0CFF0CE0
:10270000000EFB6E270EFA6E46C1E8FFD890E83641
:10271000F926870CFF0CFF0C870CFF0CFF0C870CB5
:10272000FF0CFF0C870CFF0CFF0C870CFF0CFF0C41
:10273000870CFF0CFF0C870CFF0CFF0C870CFF0CA9
:10274000FF0C870CFF0CFF0C870CFF0CFF0C870C99
:10275000FF0CFF0C800C010CFF0C800C010CFF0C1B
:10276000800C010CFF0C800C010CFF0CFF0CFF0C0B
:10277000FF0C000EFB6E270EFA6E46C1E8FFD890E4
:10278000E836F9268F0CFF0CFF0C8F0CFF0CFF0CAA
:102790008F0CFF0CFF0C8F0CFF0CFF0C8F0CFF0C31
:1027A000FF0C8F0CFF0CFF0C8F0CFF0CFF0C8F0C21
:1027B000FF0CFF0C8F0CFF0CFF0C8F0CFF0CFF0CA1
:1027C0008F0CFF0CFF0C8F0CFF0CFF0C8F0CFF0C01
:1027D000FF0C8F0CFF0CFF0C8F0CFF0CFF0CFF0C81
:0427E000FF0CFF0CDF
:10280000000EFB6E280EFA6E46C1E8FFD890E8363F
:10281000F926FF0CFF0CFF0C870CFF0C0F0C870C2C
:10282000FF0C0F0C870CFF0C0F0C830CFE0C0F0C15
:10283000810CFC0C0F0C800CF80C0F0C800C700C35
:102840000F0C840C210C0F0C860C030C0F0C870C46
:10285000070C0F0C870C8F0C0F0C870CDF0C0F0C68
:10286000870CFF0C0F0C870CFF0C0F0C870CFF0C58
:102870000F0C000EFB6E280EFA6E46C1E8FFD890D2
:10288000E836F926FF0CFF0CFF0CFF0CFF0CFF0CC9
:10289000FF0CFF0CFF0CFF0CFF0CFF0CFF0CFF0CE0
:1028A000FF0CFF0CFF0CFF0CFF0CFF0CFF0CFF0CD0
:1028B000FF0CFF0CFF0CFF0CFF0CFF0CFF0CFF0CC0
:1028C000FF0CFF0CFF0CFF0CFF0CFF0CFF0CFF0CB0
:1028D000FF0CFF0CFF0CFF0C880CE00CFF0C800CB5
:0428E000400C7F0C1D
:10290000000EFB6E290EFA6E46C1E8FFD890E8363D
:10291000F926870CFF0C0F0C870CFF0C0F0C870C93
:10292000FF0C0F0C870CFF0C0F0C870CFF0C0F0C0F
:10293000870CFF0C0F0C870CFF0C0F0C870CFF0C87
:102940000F0C870CFF0C0F0C870CFF0C0F0C870C67
:10295000FF0C0F0C870CFF0C0F0C870CFF0C0F0CDF
:10296000870CFF0C0F0C870CFF0C0F0CFF0CFF0CDF
:10297000FF0C000EFB6E290EFA6E46C1E8FFD890E0
:10298000E836F926800C000C3F0C860C0C0C3F0C32
:102990008F0C1E0C3F0C8F0C1E0C3F0C8F0C1E0C52
:1029A0003F0C8F0C1E0C3F0C8F0C1E0C3F0C8F0C21
:1029B0001E0C3F0C8F0C1E0C3F0C8F0C1E0C3F0C82
:1029C0008F0C1E0C3F0C8F0C1E0C3F0C8F0C1E0C22
:1029D0003F0C8F0C1E0C3F0C8F0C1E0C3F0CFF0C81
:0429E000FF0CFF0CDD
:102A0000000EFB6E2A0EFA6E46C1E8FFD890E8363B
:102A1000F926FF0CFF0CFF0C870CFF0C0F0C870C2A
:102A2000FF0C0F0C870CFF0C0F0C830CFF0C0F0C12
:102A3000830CFF0C0F0C810CFF0C0F0C810CFF0C96
:102A40000F0C800CFF0C0F0C800CFF0C0F0C800C7B
:102A50007F0C0F0C800C7F0C0F0C840C3F0C0F0CA8
:102A6000840C3F0C0F0C860C1F0C0F0C860C1F0CDB
:102A70000F0C000EFB6E2A0EFA6E46C1E8FFD890CE
:102A8000E836F926FF0CFF0CFF0CFF0CFF0CFF0CC7
:102A9000FF0CFF0CFF0CFF0CFF0CFF0CFF0CFF0CDE
:102AA000FF0CFF0CFF0CFF0CFF0CFF0CFF0CFF0CCE
:102AB000FF0CFF0CFF0CFF0CFF0CFF0CFF0CFF0CBE
:102AC000FF0CFF0CFF0CFF0CFF0CFF0CFF0CFF0CAE
:102AD000FF0CFF0CFF0CFF0C880C010CFF0C800C92
:042AE000000CFF0CDB
:102B0000000EFB6E2B0EFA6E46C1E8FFD890E83639
:102B1000F926870C0F0C0F0C870C0F0C0F0C870C71
:102B2000870C0F0C870C870C0F0C870CC30C0F0C39
:102B3000870CC30C0F0C870CE10C0F0C870CE10CFD
:102B40000F0C870CF00C0F0C870CF00C0F0C870C83
:102B5000F80C0F0C870CFC0C0F0C870CFC0C0F0CEA
:102B6000870CFE0C0F0C870CFE0C0F0CFF0CFF0CDF
:102B7000FF0C000EFB6E2B0EFA6E46C1E8FFD890DC
:102B8000E836F926800C000C7F0C870CF80C7F0CC3
:102B90008F0CFC0C7F0C8F0CFC0C7F0C8F0CFC0C36
:102BA0007F0C8F0CFC0C7F0C8F0CFC0C7F0C8F0CA3
:102BB000FC0C7F0C8F0CFC0C7F0C8F0CFC0C7F0C26
:102BC0008F0CFC0C7F0C8F0CFC0C7F0C8F0CFC0C06
:102BD0007F0C8F0CFC0C7F0C8F0CFC0C7F0CFF0C03
:042BE000FF0CFF0CDB
:102C0000000EFB6E2C0EFA6E46C1E8FFD890E83637
:102C1000F926FF0CFF0CFF0CFC0C010CFF0CF80C50
:102C2000000CFF0CF00C000C7F0CE00CF80C3F0CBF
:102C3000C10CFC0C1F0C830CFE0C0F0C870CFF0C42
:102C40000F0C870CFF0C0F0C870CFF0C0F0C870C64
:102C5000FF0C0F0C870CFF0C0F0C870CFF0C0F0CDC
:102C6000870CFF0C0F0C870CFF0C0F0C870CFF0C54
:102C70000F0C000EFB6E2C0EFA6E46C1E8FFD890CA
:102C8000E836F926FF0CFF0CFF0CFF0CFF0CFF0CC5
:102C9000FF0CFF0CFF0CFF0CFF0CFF0CFF0CFF0CDC
:102CA000FF0CFF0CFF0CFF0CFF0CFF0CFF0CFF0CCC
:102CB000FF0CFF0CFF0CFF0CFF0CFF0CFF0CFF0CBC
:102CC000FF0CFF0CFF0CFF0CFF0CFF0CFF0CFF0CAC
:102CD000FF0CFF0CFF0CFF0CE00C010CFF0CC00CF8
:042CE000000CFF0CD9
:102D0000000EFB6E2D0EFA6E46C1E8FFD890E83635
:102D1000F926870CFF0C0F0C870CFF0C0F0C870C8F
:102D2000FF0C0F0C870CFF0C0F0C870CFF0C0F0C0B
:102D3000870CFF0C0F0C870CFF0C0F0C870CFF0C83
:102D40000F0C870CFF0C0F0C830CFE0C0F0CC10C2E
:102D5000FC0C1F0CE00CF80C3F0CF00C000C7F0C72
:102D6000F80C000CFF0CFC0C010CFF0CFF0CFF0C12
:102D7000FF0C000EFB6E2D0EFA6E46C1E8FFD890D8
:102D8000E836F926800C000C7F0C870CF80C7F0CC1
:102D90008F0CFC0C7F0C8F0CFC0C7F0C8F0CFC0C34
:102DA0007F0C8F0CFC0C7F0C8F0CFC0C7F0C8F0CA1
:102DB000FC0C7F0C8F0CFC0C7F0C8F0CFC0C7F0C24
:102DC0008F0CFC0C7F0C870CF80C7F0C800C000C1B
:102DD0007F0CC00C000CFF0CE00C010CFF0CFF0C76
:042DE000FF0CFF0CD9
:102E0000000EFB6E2E0EFA6E46C1E8FFD890E83633
:102E1000F926FF0CFF0CFF0C800C000CFF0C800C43
:102E2000000C7F0C800C000C3F0C870CFC0C1F0C62
:102E3000870CFE0C0F0C870CFF0C0F0C870CFF0C83
:102E40000F0C870CFF0C0F0C870CFF0C0F0C870C62
:102E5000FF0C0F0C870CFF0C0F0C870CFE0C0F0CDB
:102E6000870CFC0C1F0C800C000C3F0C800C000C21
:102E70007F0C000EFB6E2E0EFA6E46C1E8FFD89056
:102E8000E836F926FF0CFF0CFF0CFF0CFF0CFF0CC3
:102E9000FF0CFF0CFF0CFF0CFF0CFF0CFF0CFF0CDA
:102EA000FF0CFF0CFF0CFF0C800C010CFF0C800CC6
:102EB000000CFF0C800C000C7F0C8F0CF80C7F0CAE
:102EC0008F0CFC0C7F0C8F0CFC0C7F0C8F0CFC0C03
:102ED0007F0C8F0CFC0C7F0C8F0CFC0C7F0C8F0C70
:042EE000FC0C7F0C5B
:102F0000000EFB6E2F0EFA6E46C1E8FFD890E83631
:102F1000F926800C000CFF0C870CFF0CFF0C870CB3
:102F2000FF0CFF0C870CFF0CFF0C870CFF0CFF0C39
:102F3000870CFF0CFF0C870CFF0CFF0C870CFF0CA1
:102F4000FF0C870CFF0CFF0C870CFF0CFF0C870C91
:102F5000FF0CFF0C870CFF0CFF0C870CFF0CFF0C09
:102F6000870CFF0CFF0C870CFF0CFF0CFF0CFF0CF9
:102F7000FF0C000EFB6E2F0EFA6E46C1E8FFD890D4
:102F8000E836F9268F0CFC0C7F0C8F0CF80C7F0CAC
:102F9000800C000C7F0C800C000CFF0C800C010CD2
:102FA000FF0C8F0CFF0CFF0C8F0CFF0CFF0C8F0C19
:102FB000FF0CFF0C8F0CFF0CFF0C8F0CFF0CFF0C99
:102FC0008F0CFF0CFF0C8F0CFF0CFF0C8F0CFF0CF9
:102FD000FF0C8F0CFF0CFF0C8F0CFF0CFF0C8F0CE9
:042FE000FF0CFF0CD7
:10300000000EFB6E300EFA6E46C1E8FFD890E8362F
:10301000F926FF0CFF0CFF0CFC0C010CFF0CF80C4C
:10302000000CFF0CF00C000C7F0CE00CF80C3F0CBB
:10303000C10CFC0C1F0C830CFE0C0F0C870CFF0C3E
:103040000F0C870CFF0C0F0C870CFF0C0F0C870C60
:10305000FF0C0F0C870CFF0C0F0C870CFF0C0F0CD8
:10306000870CFF0C0F0C870CFF0C0F0C870CFF0C50
:103070000F0C000EFB6E300EFA6E46C1E8FFD890C2
:10308000E836F926FF0CFF0CFF0CFF0CFF0CFF0CC1
:10309000FF0CFF0CFF0CFF0CFF0CFF0CFF0CFF0CD8
:1030A000FF0CFF0CFF0CFF0CE00C000C7F0CC00CA5
:1030B000000C7F0C800C000C7F0C870CFC0C7F0C30
:1030C0008F0CFC0C7F0C8F0CFC0C7F0C8F0CFC0C01
:1030D0007F0C8F0CFC0C7F0C8F0CFC0C7F0C8F0C6E
:0430E000FC0C7F0C59
:10310000000EFB6E310EFA6E46C1E8FFD890E8362D
:10311000F926870CFF0C0F0C870CFF0C0F0C870C8B
:10312000FF0C0F0C870CFF0C0F0C870CFF0C0F0C07
:10313000870CFF0C0F0C870CFF0C0F0C870CFF0C7F
:103140000F0C870CF90C0F0C830CF00C0F0CC10C3E
:10315000F00C1F0CE00CF80C3F0CF00C000C1F0CDA
:10316000F80C000C1F0CFC0C010C3F0CFF0CFF0CAE
:10317000FF0C000EFB6E310EFA6E46C1E8FFD890D0
:10318000E836F9268F0CFC0C7F0C870CFC0C7F0CAE
:10319000800C000C7F0CC00C000C7F0CE00C000CB1
:1031A0007F0CFF0CFC0C7F0CFF0CFC0C7F0CFF0C4D
:1031B000FC0C7F0CFF0CFC0C7F0CFF0CFC0C7F0C40
:1031C000FF0CFC0C7F0CFF0CFC0C7F0CFF0CFC0CB0
:1031D0007F0CFF0CFC0C3F0CFF0CFC0C3F0CFF0C9D
:0431E000FC0C3F0C98
:10320000000EFB6E320EFA6E46C1E8FFD890E8362B
:10321000F926FF0CFF0CFF0C800C000CFF0C800C3F
:10322000000C7F0C800C000C3F0C870CFC0C1F0C5E
:10323000870CFE0C0F0C870CFF0C0F0C870CFF0C7F
:103240000F0C870CFF0C0F0C870CFF0C0F0C870C5E
:10325000FF0C0F0C870CFF0C0F0C870CFE0C0F0CD7
:10326000870CFC0C1F0C800C000C3F0C800C000C1D
:103270007F0C000EFB6E320EFA6E46C1E8FFD8904E
:10328000E836F926FF0CFF0CFF0CFF0CFF0CFF0CBF
:10329000FF0CFF0CFF0CFF0CFF0CFF0CFF0CFF0CD6
:1032A000FF0CFF0CFF0CFF0CFF0CFF0CFF0CFF0CC6
:1032B000FF0CFF0CFF0CFF0CFF0CFF0CFF0CFF0CB6
:1032C000FF0CFF0CFF0CFF0CFF0CFF0CFF0CFF0CA6
:1032D000FF0CFF0CFF0CFF0C880C1F0CFF0C800C6C
:0432E0000F0CFF0CC4
:10330000000EFB6E330EFA6E46C1E8FFD890E83629
:10331000F926800C000CFF0C870CC30CFF0C870CEB
:10332000C30CFF0C870CE10CFF0C870CE10CFF0CAD
:10333000870CF00CFF0C870CF00CFF0C870CF80CC2
:103340007F0C870CF80C7F0C870CFC0C3F0C870C57
:10335000FC0C3F0C870CFE0C1F0C870CFE0C1F0C8A
:10336000870CFF0C0F0C870CFF0C0F0CFF0CFF0CD5
:10337000FF0C000EFB6E330EFA6E46C1E8FFD890CC
:10338000E836F926800C070CFF0C870CC70CFF0CE5
:103390008F0CFF0CFF0C8F0CFF0CFF0C8F0CFF0C25
:1033A000FF0C8F0CFF0CFF0C8F0CFF0CFF0C8F0C15
:1033B000FF0CFF0C8F0CFF0CFF0C8F0CFF0CFF0C95
:1033C0008F0CFF0CFF0C8F0CFF0CFF0C8F0CFF0CF5
:1033D000FF0C8F0CFF0CFF0C8F0CFF0CFF0CFF0C75
:0433E000FF0CFF0CD3
:10340000000EFB6E340EFA6E46C1E8FFD890E83627
:10341000F926FF0CFF0CFF0CF80C000C0F0CF00C45
:10342000000C0F0CE00C000C0F0CC00C000C0F0C6F
:10343000810CFF0CFF0C830CFF0CFF0C870CFF0CA6
:10344000FF0C870CFF0CFF0C870CFF0CFF0C870C8C
:10345000FF0CFF0C870CFF0CFF0C830CFF0CFF0C08
:10346000810CFF0CFF0CC00C000CFF0CE00C000CDE
:103470007F0C000EFB6E340EFA6E46C1E8FFD8904A
:10348000E836F926FF0CFF0CFF0CFF0CFF0CFF0CBD
:10349000FF0CFF0CFF0CFF0CFF0CFF0CFF0CFF0CD4
:1034A000FF0CFF0CFF0CFF0CFF0CFF0CFF0CFF0CC4
:1034B000FF0CFF0CFF0CFF0CFF0CFF0CFF0CFF0CB4
:1034C000FF0CFF0CFF0CFF0CFF0CFF0CFF0CFF0CA4
:1034D000FF0CFF0CFF0CFF0CF00C1F0CFF0CE00CA2
:0434E0000F0CFF0CC2
:10350000000EFB6E350EFA6E46C1E8FFD890E83625
:10351000F926C00C070CFF0C870CC70CFF0C8F0C96
:10352000FF0CFF0C8F0CFF0CFF0C870CFF0CFF0C2B
:10353000800C1F0CFF0CC00C0F0CFF0CE00C070CD8
:10354000FF0CFF0C870CFF0CFF0CC70CFF0CFF0CD3
:10355000C70CFF0C8F0C870CFF0C800C0F0CFF0CA2
:10356000C00C1F0CFF0CE00C3F0CFF0CFF0CFF0C01
:10357000FF0C000EFB6E350EFA6E46C1E8FFD890C8
:10358000E836F926F00C000C3F0CF80C000C1F0C70
:10359000FF0CFC0C0F0CFF0CFE0C0F0CFF0CFF0CB7
:1035A0000F0CFF0CFF0C0F0CFF0CFF0C0F0CFF0C93
:1035B000FF0C0F0CFF0CFF0C0F0CFF0CFE0C0F0C84
:1035C000FF0CFC0C0F0C800C000C1F0C800C000C72
:1035D0003F0C800C000C7F0C800C000CFF0CFF0CCF
:0435E000FF0CFF0CD1
:10360000000EFB6E360EFA6E46C1E8FFD890E83623
:10361000F926FF0CFF0CFF0C800C000C1F0C800C1B
:10362000000C1F0C800C000C1F0C800C000C1F0CDD
:10363000FF0C0F0CFF0CFF0C0F0CFF0CFF0C0F0C02
:10364000FF0CFF0C0F0CFF0CFF0C0F0CFF0CFF0C02
:103650000F0CFF0CFF0C0F0CFF0CFF0C0F0CFF0CE2
:10366000FF0C0F0CFF0CFF0C0F0CFF0CFF0C0F0CD2
:10367000FF0C000EFB6E360EFA6E46C1E8FFD890C6
:10368000E836F926FF0CFF0CFF0CF80CFF0CFF0CC2
:10369000F80CFF0CFF0CF80CFF0CFF0CF80CFF0CE7
:1036A000FF0CF80CFF0CFF0CF80CFF0CFF0CF80CD7
:1036B000FF0CFF0CF80CFF0CFF0CF80CFF0CFF0CC0
:1036C000F80CFF0CFF0CF80CFF0CFF0CF80CFF0CB7
:1036D000FF0CF80CFF0CFF0C800C0F0CFF0C800C87
:0436E0000F0CFF0CC0
:10370000000EFB6E370EFA6E46C1E8FFD890E83621
:10371000F926FF0C0F0CFF0CFF0C0F0CFF0CFF0C1D
:103720000F0CFF0CFF0C0F0CFF0CFF0C0F0CFF0C11
:10373000FF0C0F0CFF0CFF0C0F0CFF0CFF0C0F0C01
:10374000FF0CFF0C0F0CFF0CFF0C0F0CFF0CFF0C01
:103750000F0CFF0CFF0C0F0CFF0CFF0C0F0CFF0CE1
:10376000FF0C0F0CFF0CFF0C0F0CFF0CFF0CFF0CE1
:10377000FF0C000EFB6E370EFA6E46C1E8FFD890C4
:10378000E836F926800C0F0CFF0CF80CFF0CFF0C30
:10379000F80CFF0CFF0CF80CFF0CFF0CF80CFF0CE6
:1037A000FF0CF80CFF0CFF0CF80CFF0CFF0CF80CD6
:1037B000FF0CFF0CF80CFF0CFF0CF80CFF0CFF0CBF
:1037C000F80CE30CFF0CF80C630CFF0CF80C030C6A
:1037D000FF0CFC0C070CFF0CFE0C0F0CFF0CFF0C7D
:0437E000FF0CFF0CCF
:10380000000EFB6E380EFA6E46C1E8FFD890E8361F
:10381000F926FF0CFF0CFF0C870CFF0C0F0C870C1C
:10382000FF0C0F0C870CFF0C0F0C870CFF0C0F0C00
:10383000870CFF0C0F0C870CFF0C0F0C870CFF0C78
:103840000F0C870CFF0C0F0C870CFF0C0F0C870C58
:10385000FF0C0F0C870CFF0C0F0C870CFF0C0F0CD0
:10386000870CFF0C0F0C870CFF0C0F0C870CFF0C48
:103870000F0C000EFB6E380EFA6E46C1E8FFD890B2
:10388000E836F926FF0CFF0CFF0CFF0CFF0CFF0CB9
:10389000FF0CFF0CFF0CFF0CFF0CFF0CFF0CFF0CD0
:1038A000FF0CFF0CFF0CFF0CFF0CFF0CFF0CFF0CC0
:1038B000FF0CFF0CFF0CFF0CFF0CFF0CFF0CFF0CB0
:1038C000FF0CFF0CFF0CFF0CFF0CFF0CFF0CFF0CA0
:1038D000FF0CFF0CFF0CFF0C8F0CFC0C7F0C8F0CF3
:0438E000FC0C7F0C51
:10390000000EFB6E390EFA6E46C1E8FFD890E8361D
:10391000F926870CFF0C0F0C870CFF0C0F0C870C83
:10392000FF0C0F0C870CFF0C0F0C870CFF0C0F0CFF
:10393000870CFF0C0F0C870CFF0C0F0C870CFF0C77
:103940000F0C870CFF0C0F0C870CFF0C0F0C830C5B
:10395000FE0C0F0C810CFC0C0F0CC00C000C1F0C8F
:10396000E00C000C3F0CF00C000C7F0CFF0CFF0C6B
:10397000FF0C000EFB6E390EFA6E46C1E8FFD890C0
:10398000E836F9268F0CFC0C7F0C8F0CFC0C7F0C9E
:103990008F0CFC0C7F0C8F0CFC0C7F0C8F0CFC0C28
:1039A0007F0C8F0CFC0C7F0C8F0CFC0C7F0C8F0C95
:1039B000FC0C7F0C8F0CFC0C7F0C8F0CFC0C7F0C18
:1039C0008F0CFC0C7F0C870CF80C7F0C800C000C0F
:1039D0007F0CC00C000C7F0CE00C040C7F0CFF0C67
:0439E000FF0CFF0CCD
:103A0000000EFB6E3A0EFA6E46C1E8FFD890E8361B
:103A1000F926FF0CFF0CFF0C870CFF0C0F0C870C1A
:103A2000FF0C0F0C870CFF0C0F0C870CFF0C0F0CFE
:103A3000870CFF0C0F0C870CFF0C0F0C870CFF0C76
:103A40000F0C870CFF0C0F0C870CFF0C0F0C870C56
:103A5000FF0C0F0C870CFF0C0F0C870CFF0C0F0CCE
:103A6000870CFF0C0F0C870CFF0C0F0C870CFF0C46
:103A70000F0C000EFB6E3A0EFA6E46C1E8FFD890AE
:103A8000E836F926FF0CFF0CFF0CFF0CFF0CFF0CB7
:103A9000FF0CFF0CFF0CFF0CFF0CFF0CFF0CFF0CCE
:103AA000FF0CFF0CFF0CFF0CFF0CFF0CFF0CFF0CBE
:103AB000FF0CFF0CFF0CFF0CFF0CFF0CFF0CFF0CAE
:103AC000FF0CFF0CFF0CFF0CFF0CFF0CFF0CFF0C9E
:103AD000FF0CFF0CFF0CFF0C8F0CFC0C7F0C8F0CF1
:043AE000FC0C7F0C4F
:103B0000000EFB6E3B0EFA6E46C1E8FFD890E83619
:103B1000F926870CFF0C0F0C870CFF0C0F0C870C81
:103B2000FF0C0F0C870CFF0C0F0C870CFF0C0F0CFD
:103B3000870CFF0C0F0C870CFF0C0F0C870CFF0C75
:103B40000F0CC30CFE0C1F0CE10CFC0C3F0CF00C1A
:103B5000F80C7F0CF80C700CFF0CFC0C010CFF0C2B
:103B6000FE0C030CFF0CFF0C070CFF0CFF0CFF0CF2
:103B7000FF0C000EFB6E3B0EFA6E46C1E8FFD890BC
:103B8000E836F9268F0CFC0C7F0C8F0CFC0C7F0C9C
:103B90008F0CFC0C7F0C8F0CFC0C7F0C8F0CFC0C26
:103BA0007F0C8F0CFC0C7F0C8F0CFC0C7F0C8F0C93
:103BB000FC0C7F0C8F0CFC0C7F0CC70CF80CFF0C62
:103BC000E30CF10CFF0CF10CE30CFF0CF80CC70C30
:103BD000FF0CFC0C0F0CFF0CFE0C1F0CFF0CFF0C61
:043BE000FF0CFF0CCB
:103C0000000EFB6E3C0EFA6E46C1E8FFD890E83617
:103C1000F926FF0CFF0CFF0C870CFF0C0F0C870C18
:103C2000FF0C0F0C870CFF0C0F0C870CFF0C0F0CFC
:103C3000870CFF0C0F0C870CFF0C0F0C870CFF0C74
:103C40000F0C870CFF0C0F0C870CFF0C0F0C870C54
:103C50008F0C0F0C870C8F0C0F0C870C8F0C0F0C1C
:103C6000870C8F0C0F0C870C8F0C0F0C870C8F0C94
:103C70000F0C000EFB6E3C0EFA6E46C1E8FFD890AA
:103C8000E836F926FF0CFF0CFF0CFF0CFF0CFF0CB5
:103C9000FF0CFF0CFF0CFF0CFF0CFF0CFF0CFF0CCC
:103CA000FF0CFF0CFF0CFF0CFF0CFF0CFF0CFF0CBC
:103CB000FF0CFF0CFF0CFF0CFF0CFF0CFF0CFF0CAC
:103CC000FF0CFF0CFF0CFF0CFF0CFF0CFF0CFF0C9C
:103CD000FF0CFF0CFF0CFF0C8F0C1E0C3F0C8F0C0D
:043CE0001E0C3F0C6B
:103D0000000EFB6E3D0EFA6E46C1E8FFD890E83615
:103D1000F926870C8F0C0F0C870C8F0C0F0C870C5F
:103D20008F0C0F0C870C8F0C0F0C870C8F0C0F0C4B
:103D3000870C8F0C0F0C870C8F0C0F0C870C8F0CC3
:103D40000F0C870C8F0C0F0C870C8F0C0F0C870C33
:103D50008F0C0F0C830C060C0F0CC00C000C1F0CEE
:103D6000E00C200C3F0CF00C700C7F0CFF0CFF0CD7
:103D7000FF0C000EFB6E3D0EFA6E46C1E8FFD890B8
:103D8000E836F9268F0C1E0C3F0C8F0C1E0C3F0CD6
:103D90008F0C1E0C3F0C8F0C1E0C3F0C8F0C1E0C3E
:103DA0003F0C8F0C1E0C3F0C8F0C1E0C3F0C8F0C0D
:103DB0001E0C3F0C8F0C1E0C3F0C8F0C1E0C3F0C6E
:103DC0008F0C1E0C3F0C860C0C0C3F0C800C000C56
:103DD0003F0CC00C400C3F0CE00CE20C3F0CFF0C05
:043DE000FF0CFF0CC9
:103E0000000EFB6E3E0EFA6E46C1E8FFD890E83613
:103E1000F926FF0CFF0CFF0C870CFF0C0F0C870C16
:103E2000FF0C0F0C870CFF0C0F0C870CFF0C0F0CFA
:103E3000870CFF0C0F0C870CFF0C0F0C870CFF0C72
:103E40000F0C870CFE0C1F0CC30CFC0C3F0CE10C80
:103E5000F80C7F0CF00CF00CFF0CF80C610CFF0C54
:103E6000FC0C030CFF0CFE0C070CFF0CFF0C0F0CE2
:103E7000FF0CFF0C0F0CFF0C000EFB6E3E0EFA6EDB
:103E800046C1E8FFD890E836F926FF0CFF0CFF0C7E
:103E9000FF0CFF0CFF0CFF0CFF0CFF0CFF0CFF0CCA
:103EA000FF0CFF0CFF0CFF0CFF0CFF0CFF0CFF0CBA
:103EB000FF0CFF0CFF0CFF0CFF0CFF0CFF0CFF0CAA
:103EC000FF0CFF0CFF0CFF0CFF0CFF0CFF0CFF0C9A
:103ED000FF0CFF0CFF0CFF0CFF0CFF0CFF0C8F0CFA
:0A3EE000FC0C7F0C8F0CFC0C7F0C17
:103F0000000EFB6E3F0EFA6E46C1E8FFD890E83611
:103F1000F926FF0C0F0CFF0CFE0C070CFF0CFC0C21
:103F2000030CFF0CF80C610CFF0CF00CF00CFF0CF8
:103F3000E10CF80C7F0CC30CFC0C3F0C870CFE0C46
:103F40001F0C870CFF0C0F0C870CFF0C0F0C870C41
:103F5000FF0C0F0C870CFF0C0F0C870CFF0C0F0CC9
:103F6000870CFF0C0F0C870CFF0C0F0CFF0CFF0CC9
:103F7000FF0C000EFB6E3F0EFA6E46C1E8FFD890B4
:103F8000E836F926C70CFC0C7F0CE30CF80CFF0C90
:103F9000F10CF10CFF0CF80CE30CFF0CFC0C470CC3
:103FA000FF0CFE0C0F0CFF0CFE0C1F0CFF0CFC0C8E
:103FB0000F0CFF0CF80CC70CFF0CF10CE30CFF0C02
:103FC000E30CF10CFF0CC70CF80CFF0C8F0CFC0C75
:103FD0007F0C8F0CFC0C7F0C8F0CFC0C7F0CFF0CEF
:043FE000FF0CFF0CC7
:10400000000EFB6E400EFA6E46C1E8FFD890E8360F
:10401000F926FF0CFF0CFF0C870CFF0C0F0C870C14
:10402000FF0C0F0C870CFF0C0F0C870CFF0C0F0CF8
:10403000870CFF0C0F0C870CFF0C0F0C870CFF0C70
:104040000F0C870CFE0C1F0CC30CFC0C3F0CE10C7E
:10405000F80C7F0CF00CF00CFF0CF80C610CFF0C52
:10406000FC0C030CFF0CFE0C070CFF0CFF0C0F0CE0
:10407000FF0CFF0C0F0CFF0C000EFB6E400EFA6ED7
:1040800046C1E8FFD890E836F926FF0CFF0CFF0C7C
:10409000FF0CFF0CFF0CFF0CFF0CFF0CFF0CFF0CC8
:1040A000FF0CFF0CFF0CFF0CFF0CFF0CFF0CFF0CB8
:1040B000FF0CFF0CFF0CFF0CFF0CFF0CFF0CFF0CA8
:1040C000FF0CFF0CFF0CFF0CFF0CFF0CFF0CFF0C98
:1040D000FF0CFF0CFF0CFF0CFF0CFF0CFF0C8F0CF8
:0A40E000FC0C7F0C8F0CFC0C7F0C15
:10410000000EFB6E410EFA6E46C1E8FFD890E8360D
:10411000F926FF0C0F0CFF0CFF0C0F0CFF0CFF0C13
:104120000F0CFF0CFF0C0F0CFF0CFF0C0F0CFF0C07
:10413000FF0C0F0CFF0CFF0C0F0CFF0CFF0C0F0CF7
:10414000FF0CFF0C0F0CFF0CFF0C0F0CFF0CFF0CF7
:104150000F0CFF0CFF0C0F0CFF0CFF0C0F0CFF0CD7
:10416000FF0C0F0CFF0CFF0C0F0CFF0CFF0CFF0CD7
:10417000FF0C000EFB6E410EFA6E46C1E8FFD890B0
:10418000E836F9268F0CFC0C7F0CC70CF80CFF0CE2
:10419000E30CF10CFF0CF10CE30CFF0CF80CC70C5A
:1041A000FF0CFC0C0F0CFF0CFE0C1F0CFF0CFE0C8C
:1041B0003F0CFF0CFC0C7F0CFF0CF80CFF0CFF0CF1
:1041C000F10CFF0CFF0CE30CFF0CFF0CC70CFF0CF9
:1041D000FF0C8F0CFF0CFF0C8F0CFF0CFF0C8F0CD7
:0441E000FF0CFF0CC5
:10420000000EFB6E420EFA6E46C1E8FFD890E8360B
:10421000F926FF0CFF0CFF0C800C000C0F0C800C1F
:10422000000C0F0C800C000C0F0C800C000C0F0C01
:10423000FF0CFF0C0F0CFF0CFF0C0F0CFF0CFF0C06
:104240000F0CFF0CFE0C1F0CFF0CFC0C3F0CFF0CAA
:10425000F80C7F0CFF0CF00CFF0CFF0CE10CFF0CBA
:10426000FF0CC30CFF0CFF0C870CFF0CFF0C0F0C9A
:10427000FF0C000EFB6E420EFA6E46C1E8FFD890AE
:10428000E836F926FF0CFF0CFF0CFF0CFF0CFF0CAF
:10429000FF0CFF0CFF0CFF0CFF0CFF0CFF0CFF0CC6
:1042A000FF0CFF0CFF0CFF0CFF0CFF0CFF0CFF0CB6
:1042B000FF0CFF0CFF0CFF0CFF0CFF0CFF0CFF0CA6
:1042C000FF0CFF0CFF0CFF0CFF0CFF0CFF0CFF0C96
:1042D000FF0CFF0CFF0CFF0C800C000C7F0C800C03
:0442E000000C7F0C43
:10430000000EFB6E430EFA6E46C1E8FFD890E83609
:10431000F926FE0C1F0CFF0CFC0C3F0CFF0CF80CDC
:104320007F0CFF0CF00CFF0CFF0CE10CFF0CFF0CE2
:10433000C30CFF0CFF0C870CFF0CFF0C870CFF0C51
:10434000FF0C870CFF0CFF0C870CFF0CFF0C870C7D
:10435000FF0CFF0C800C000C0F0C800C000C0F0CE1
:10436000800C000C0F0C800C000C0F0CFF0CFF0CD1
:10437000FF0C000EFB6E430EFA6E46C1E8FFD890AC
:10438000E836F926800C000CFF0CFF0CF10CFF0C3A
:10439000FF0CE30CFF0CFF0CC70CFF0CFF0C8F0C89
:1043A000FF0CFF0C1F0CFF0CFE0C3F0CFF0CFC0C59
:1043B0007F0CFF0CF80CFF0CFF0CF10CFF0CFF0C3A
:1043C000E30CFF0CFF0CC70CFF0CFF0C800C000C67
:1043D0007F0C800C000C7F0C800C000C7F0CFF0C01
:0443E000FF0CFF0CC3
:10440000000EFB6E440EFA6E46C1E8FFD890E83607
:10441000F926C00CFF0CFF0C800C7F0CFF0C1E0C4F
:104420003F0CFF0C3F0C3F0CFF0C3F0C3F0CFF0CF4
:104430003F0C3F0CFF0C3F0C3F0CFF0C3F0C3F0CA4
:10444000FF0C3F0C3F0CFF0C3F0C3F0CFF0C3F0CD4
:104450003F0CFF0C3F0C3F0CFF0C1E0C3F0CFF0CE5
:10446000800C7F0CFF0CC00CFF0CFF0CFF0CFF0C32
:02447000FF0C3F
:10450000000EFB6E450EFA6E46C1E8FFD890E83605
:10451000F926FF0CFF0CFF0CFF0CFF0CFF0CFF0C2F
:10452000FF0CFF0CFF0CFF0CFF0CFF0CFF0CFF0C33
:10453000FF0CFF0CFF0CFF0CFF0CFF0CFF0CFF0C23
:10454000FF0CFF0CFF0CFF0CFF0CFF0CFF0CFF0C13
:10455000FF0CFF0CFF0CFF0CFF0CFF0CFF0CFF0C03
:10456000FF0CFF0CFF0CFF0CFF0CFF0CFF0CFF0CF3
:02457000FF0C3E
:10460000000EFB6E460EFA6E46C1E8FFD890E83603
:10461000F926E70CFF0CFF0CE70CFF0CFF0CC70C96
:10462000FF0CFF0C870CFF0CFF0C270CFF0CFF0C82
:10463000E70CFF0CFF0CE70CFF0CFF0CE70CFF0C6A
:10464000FF0CE70CFF0CFF0CE70CFF0CFF0CE70C5A
:10465000FF0CFF0CE70CFF0CFF0CE70CFF0CFF0C32
:10466000000CFF0CFF0C000CFF0CFF0CFF0CFF0CF0
:02467000FF0C3D
:10470000000EFB6E470EFA6E46C1E8FFD890E83601
:10471000F926FF0CFF0CFF0CFF0CFF0CFF0CFF0C2D
:10472000FF0CFF0CFF0CFF0CFF0CFF0CFF0CFF0C31
:10473000FF0CFF0CFF0CFF0CFF0CFF0CFF0CFF0C21
:10474000FF0CFF0CFF0CFF0CFF0CFF0CFF0CFF0C11
:10475000FF0CFF0CFF0CFF0CFF0CFF0CFF0CFF0C01
:10476000FF0CFF0CFF0CFF0CFF0CFF0CFF0CFF0CF1
:02477000FF0C3C
:10480000000EFB6E480EFA6E46C1E8FFD890E836FF
:10481000F926C00CFF0CFF0C800C7F0CFF0C3E0C2B
:104820003F0CFF0CFF0C3F0CFF0CFF0C3F0CFF0C70
:10483000FF0C3F0CFF0CFE0C3F0CFF0CC00C7F0C60
:10484000FF0C800CFF0CFF0C1F0CFF0CFF0C3F0C2F
:10485000FF0CFF0C3F0CFF0CFF0C3F0C3F0CFF0C40
:10486000000C3F0CFF0C000C3F0CFF0CFF0CFF0C6E
:02487000FF0C3B
:10490000000EFB6E490EFA6E46C1E8FFD890E836FD
:10491000F926FF0CFF0CFF0CFF0CFF0CFF0CFF0C2B
:10492000FF0CFF0CFF0CFF0CFF0CFF0CFF0CFF0C2F
:10493000FF0CFF0CFF0CFF0CFF0CFF0CFF0CFF0C1F
:10494000FF0CFF0CFF0CFF0CFF0CFF0CFF0CFF0C0F
:10495000FF0CFF0CFF0CFF0CFF0CFF0CFF0CFF0CFF
:10496000FF0CFF0CFF0CFF0CFF0CFF0CFF0CFF0CEF
:02497000FF0C3A
:104A0000000EFB6E4A0EFA6E46C1E8FFD890E836FB
:104A1000F926C00CFF0CFF0C800C7F0CFF0C1E0C49
:104A20003F0CFF0C3F0C3F0CFF0CFF0C3F0CFF0C2E
:104A3000FF0C3F0CFF0CFE0C3F0CFF0CE00C7F0C3E
:104A4000FF0CE00C7F0CFF0CFE0C3F0CFF0CFF0C6E
:104A50003F0CFF0C3F0C3F0CFF0C1E0C3F0CFF0CDF
:104A6000800C7F0CFF0CC00CFF0CFF0CFF0CFF0C2C
:024A7000FF0C39
:104B0000000EFB6E4B0EFA6E46C1E8FFD890E836F9
:104B1000F926FF0CFF0CFF0CFF0CFF0CFF0CFF0C29
:104B2000FF0CFF0CFF0CFF0CFF0CFF0CFF0CFF0C2D
:104B3000FF0CFF0CFF0CFF0CFF0CFF0CFF0CFF0C1D
:104B4000FF0CFF0CFF0CFF0CFF0CFF0CFF0CFF0C0D
:104B5000FF0CFF0CFF0CFF0CFF0CFF0CFF0CFF0CFD
:104B6000FF0CFF0CFF0CFF0CFF0CFF0CFF0CFF0CED
:024B7000FF0C38
:104C0000000EFB6E4C0EFA6E46C1E8FFD890E836F7
:104C1000F926FF0CBF0CFF0CFD0C3F0CFF0CF90C30
:104C20003F0CFF0CF90C3F0CFF0CF30C3F0CFF0C7E
:104C3000E70C3F0CFF0CCF0C3F0CFF0C9F0C3F0C04
:104C4000FF0C3F0C3F0CFF0C000C3F0CFF0C000C4A
:104C50003F0CFF0CFF0C3F0CFF0CFF0C3F0CFF0C3C
:104C6000FF0C3F0CFF0CFF0C7F0CFF0CFF0CFF0C2C
:024C7000FF0C37
:104D0000000EFB6E4D0EFA6E46C1E8FFD890E836F5
:104D1000F926FF0CFF0CFF0CFF0CFF0CFF0CFF0C27
:104D2000FF0CFF0CFF0CFF0CFF0CFF0CFF0CFF0C2B
:104D3000FF0CFF0CFF0CFF0CFF0CFF0CFF0CFF0C1B
:104D4000FF0CFF0CFF0CFF0CFF0CFF0CFF0CFF0C0B
:104D5000FF0CFF0CFF0CFF0CFF0CFF0CFF0CFF0CFB
:104D6000FF0CFF0CFF0CFF0CFF0CFF0CFF0CFF0CEB
:024D7000FF0C36
:104E0000000EFB6E4E0EFA6E46C1E8FFD890E836F3
:104E1000F926000C3F0CFF0C000C3F0CFF0C3F0C64
:104E20007F0CFF0C3F0CFF0CFF0C3F0CFF0CFF0C2A
:104E30003F0CFF0CFF0C000CFF0CFF0C000C7F0C58
:104E4000FF0CFE0C3F0CFF0CFF0C3F0CFF0CFF0C8B
:104E50003F0CFF0C3F0C3F0CFF0C1E0C3F0CFF0CDB
:104E6000800C7F0CFF0CC00CFF0CFF0CFF0CFF0C28
:024E7000FF0C35
:104F0000000EFB6E4F0EFA6E46C1E8FFD890E836F1
:104F1000F926FF0CFF0CFF0CFF0CFF0CFF0CFF0C25
:104F2000FF0CFF0CFF0CFF0CFF0CFF0CFF0CFF0C29
:104F3000FF0CFF0CFF0CFF0CFF0CFF0CFF0CFF0C19
:104F4000FF0CFF0CFF0CFF0CFF0CFF0CFF0CFF0C09
:104F5000FF0CFF0CFF0CFF0CFF0CFF0CFF0CFF0CF9
:104F6000FF0CFF0CFF0CFF0CFF0CFF0CFF0CFF0CE9
:024F7000FF0C34
:10500000000EFB6E500EFA6E46C1E8FFD890E836EF
:10501000F926C00C7F0CFF0C800C3F0CFF0C1E0C03
:105020003F0CFF0C3F0C3F0CFF0C3F0CFF0CFF0C28
:105030001F0CFF0CFF0C000CFF0CFF0C000C7F0C76
:10504000FF0C1E0C3F0CFF0C3F0C3F0CFF0C3F0CE9
:105050003F0CFF0C3F0C3F0CFF0C1E0C3F0CFF0CD9
:10506000800C7F0CFF0CC00CFF0CFF0CFF0CFF0C26
:02507000FF0C33
:10510000000EFB6E510EFA6E46C1E8FFD890E836ED
:10511000F926FF0CFF0CFF0CFF0CFF0CFF0CFF0C23
:10512000FF0CFF0CFF0CFF0CFF0CFF0CFF0CFF0C27
:10513000FF0CFF0CFF0CFF0CFF0CFF0CFF0CFF0C17
:10514000FF0CFF0CFF0CFF0CFF0CFF0CFF0CFF0C07
:10515000FF0CFF0CFF0CFF0CFF0CFF0CFF0CFF0CF7
:10516000FF0CFF0CFF0CFF0CFF0CFF0CFF0CFF0CE7
:02517000FF0C32
:10520000000EFB6E520EFA6E46C1E8FFD890E836EB
:10521000F926000C3F0CFF0C000C3F0CFF0C3F0C60
:105220003F0CFF0C3F0C3F0CFF0CFF0C3F0CFF0C26
:10523000FF0C3F0CFF0CFE0C3F0CFF0CFC0C7F0C1A
:10524000FF0CF80CFF0CFF0CF10CFF0CFF0CE30C37
:10525000FF0CFF0CE70CFF0CFF0CE70CFF0CFF0C26
:10526000E70CFF0CFF0CE70CFF0CFF0CFF0CFF0C16
:02527000FF0C31
:10530000000EFB6E530EFA6E46C1E8FFD890E836E9
:10531000F926FF0CFF0CFF0CFF0CFF0CFF0CFF0C21
:10532000FF0CFF0CFF0CFF0CFF0CFF0CFF0CFF0C25
:10533000FF0CFF0CFF0CFF0CFF0CFF0CFF0CFF0C15
:10534000FF0CFF0CFF0CFF0CFF0CFF0CFF0CFF0C05
:10535000FF0CFF0CFF0CFF0CFF0CFF0CFF0CFF0CF5
:10536000FF0CFF0CFF0CFF0CFF0CFF0CFF0CFF0CE5
:02537000FF0C30
:10540000000EFB6E540EFA6E46C1E8FFD890E836E7
:10541000F926C00CFF0CFF0C800C7F0CFF0C1E0C3F
:105420003F0CFF0C3F0C3F0CFF0C3F0C3F0CFF0CE4
:105430001E0C3F0CFF0C800C7F0CFF0C800C7F0CB3
:10544000FF0C1E0C3F0CFF0C3F0C3F0CFF0C3F0CE5
:105450003F0CFF0C3F0C3F0CFF0C1E0C3F0CFF0CD5
:10546000800C7F0CFF0CC00CFF0CFF0CFF0CFF0C22
:02547000FF0C2F
:10550000000EFB6E550EFA6E46C1E8FFD890E836E5
:10551000F926FF0CFF0CFF0CFF0CFF0CFF0CFF0C1F
:10552000FF0CFF0CFF0CFF0CFF0CFF0CFF0CFF0C23
:10553000FF0CFF0CFF0CFF0CFF0CFF0CFF0CFF0C13
:10554000FF0CFF0CFF0CFF0CFF0CFF0CFF0CFF0C03
:10555000FF0CFF0CFF0CFF0CFF0CFF0CFF0CFF0CF3
:10556000FF0CFF0CFF0CFF0CFF0CFF0CFF0CFF0CE3
:02557000FF0C2E
:10560000000EFB6E560EFA6E46C1E8FFD890E836E3
:10561000F926C00CFF0CFF0C800C7F0CFF0C1E0C3D
:105620003F0CFF0C3F0C3F0CFF0C3F0C3F0CFF0CE2
:105630003F0C3F0CFF0C1E0C3F0CFF0C800C3F0C72
:10564000FF0CC00C3F0CFF0CFE0C3F0CFF0CFF0CC2
:105650003F0CFF0C3F0C3F0CFF0C1E0C3F0CFF0CD3
:10566000800C7F0CFF0CC00CFF0CFF0CFF0CFF0C20
:02567000FF0C2D
:10570000000EFB6E570EFA6E46C1E8FFD890E836E1
:10571000F926FF0CFF0CFF0CFF0CFF0CFF0CFF0C1D
:10572000FF0CFF0CFF0CFF0CFF0CFF0CFF0CFF0C21
:10573000FF0CFF0CFF0CFF0CFF0CFF0CFF0CFF0C11
:10574000FF0CFF0CFF0CFF0CFF0CFF0CFF0CFF0C01
:10575000FF0CFF0CFF0CFF0CFF0CFF0CFF0CFF0CF1
:10576000FF0CFF0CFF0CFF0CFF0CFF0CFF0CFF0CE1
:02577000FF0C2C
:10580000000EFB6E580EFA6E46C1E8FFD890E836DF
:10581000F926FF0CFF0CFF0CFF0CFF0CFF0CFF0C1C
:10582000FF0CFF0CFF0CFF0CFF0CFF0CFF0CFF0C20
:10583000FF0CFF0CFF0CFF0CFF0CFF0CFF0CFF0C10
:10584000FF0CFF0CFF0CFF0C7B0CFF0CFF0C330C50
:10585000FF0CFF0C4B0CFF0CFF0C7B0CFF0CFF0C28
:105860007B0CFF0CFF0C7B0CFF0CFF0CFF0CFF0CE8
:10587000FF0C000EFB6E580EFA6E46C1E8FFD89082
:10588000E836F926FF0CFF0CFF0CFF0CFF0CFF0C99
:10589000FF0CFF0CFF0CFF0CFF0CFF0CFF0CFF0CB0
:1058A000FF0CFF0CFF0CFF0CFF0CFF0CFF0CFF0CA0
:1058B000FF0CFF0CFF0CFF0CFF0CFF0CFF0CFF0C90
:1058C000FF0CFF0CFF0CE00C7E0CFF0CDF0C810CBE
:1058D000FF0CFF0CFF0CFF0C880C010CFF0C800C64
:0458E000000CFF0CAD
:10590000000EFB6E590EFA6E46C1E8FFD890E836DD
:10591000F926FF0CFF0CFF0CFF0CFF0CFF0CFF0C1B
:10592000FF0CFF0CFF0CFF0CFF0CFF0CFF0CFF0C1F
:10593000FF0CFF0CFF0CFF0CFF0CFF0CFF0CFF0C0F
:10594000FF0CFF0CFF0CFF0CFF0CFF0CFF0CFF0CFF
:10595000FF0CFF0CFF0CFF0CFF0CFF0CFF0CFF0CEF
:10596000FF0CFF0CFF0CFF0CFF0CFF0CFF0CFF0CDF
:10597000FF0C000EFB6E590EFA6E46C1E8FFD89080
:10598000E836F926800C000C7F0C870CF80C7F0C95
:105990008F0CFC0C7F0C8F0CFC0C7F0C8F0CFC0C08
:1059A0007F0C8F0CFC0C7F0C8F0CFC0C7F0C8F0C75
:1059B000FC0C7F0C8F0CFC0C7F0C8F0CFC0C7F0CF8
:1059C0008F0CFC0C7F0C8F0CFC0C7F0C8F0CFC0CD8
:1059D0007F0C8F0CFC0C7F0C8F0CFC0C7F0CFF0CD5
:0459E000FF0CFF0CAD
:105A0000000EFB6E5A0EFA6E46C1E8FFD890E836DB
:105A1000F926FF0CFF0CFF0CFF0CFF0CFF0CFF0C1A
:105A2000FF0CFF0CFF0CFF0CFF0CFF0CFF0CFF0C1E
:105A3000FF0CFF0CFF0CFF0CFF0CFF0CFF0CFF0C0E
:105A4000FF0CFF0CFF0CFF0CFF0CFF0CFF0CFF0CFE
:105A5000FF0CFF0CFF0CFF0CFF0CFF0CFF0CFF0CEE
:105A6000800C0F0CFF0C800C0F0CFF0C800C0F0C2B
:105A7000FF0C000EFB6E5A0EFA6E46C1E8FFD8907E
:105A8000E836F926FF0CFF0CFF0CFF0CFF0CFF0C97
:105A9000FF0CFF0CFF0CFF0CFF0CFF0CFF0CFF0CAE
:105AA000FF0CFF0CFF0CFF0CFF0CFF0CFF0CFF0C9E
:105AB000FF0CFF0CFF0CFF0CFF0CFF0CFF0CFF0C8E
:105AC000FF0CFF0CFF0CFF0CFF0CFF0CFF0CFF0C7E
:105AD000FF0CFF0CFF0CFF0CFF0CFF0CFF0C800CED
:045AE000FF0CFF0CAC
:105B0000000EFB6E5B0EFA6E46C1E8FFD890E836D9
:105B1000F926800C0F0CFF0C800C0F0CFF0CFF0CF7
:105B2000FF0CFF0CFF0CFF0CFF0CFF0CFF0CFF0C1D
:105B3000FF0CFF0CFF0CFF0CFF0CFF0CFF0CFF0C0D
:105B4000FF0CFF0CFF0CFF0CFF0CFF0CFF0CFF0CFD
:105B5000FF0CFF0CFF0CFF0CFF0CFF0CFF0CFF0CED
:105B6000FF0CFF0CFF0CFF0CFF0CFF0CFF0CFF0CDD
:105B7000FF0C000EFB6E5B0EFA6E46C1E8FFD8907C
:105B8000E836F926800CFF0CFF0C800CFF0CFF0C94
:105B9000FF0CFF0CFF0CFF0CFF0CFF0CFF0CFF0CAD
:105BA000FF0CFF0CFF0CFF0CFF0CFF0CFF0CFF0C9D
:105BB000FF0CFF0CFF0CFF0CFF0CFF0CFF0CFF0C8D
:105BC000FF0CFF0CFF0CFF0CFF0CFF0CFF0CFF0C7D
:105BD000FF0CFF0CFF0CFF0CFF0CFF0CFF0CFF0C6D
:045BE000FF0CFF0CAB
:105C0000000EFB6E5C0EFA6E46C1E8FFD890E836D7
:105C1000F926FF0CFF0CFF0CFF0CFF0CFF0CFF0C18
:105C2000FF0CFF0CFF0CFF0CFF0CFF0CFF0CFF0C1C
:105C3000FF0CFF0CFF0CE30CFF0CFF0CC10CFF0C66
:105C4000FF0C800CFF0CFF0C800CFF0CFF0C800C79
:105C5000FF0CFF0CC10CFF0CFF0CE30CFF0CFF0C46
:105C6000FF0CFF0CFF0CFF0CFF0CFF0CFF0CFF0CDC
:105C7000FF0C000EFB6E5C0EFA6E46C1E8FFD8907A
:105C8000E836F926FF0CFF0CFF0CFF0CFF0CFF0C95
:105C90009F0CFF0CFF0C0F0CFF0CFF0C0F0CFF0CEC
:105CA000FF0C9F0CFF0CFF0CFF0CFF0CFF0CFF0CFC
:105CB000FF0CFF0CFF0CFF0CFF0CFF0CFF0CFF0C8C
:105CC0009F0CFF0CFF0C0F0CFF0CFF0C0F0CFF0CBC
:105CD000FF0C9F0CFF0CFF0CFF0CFF0CFF0CFF0CCC
:045CE000FF0CFF0CAA
:105D0000000EFB6E5D0EFA6E46C1E8FFD890E836D5
:105D1000F926FF0CFF0CFF0CFF0CFF0CFF0CFF0C17
:105D2000FF0CFF0CE30CFF0CFF0CC10CFF0CFF0C75
:105D3000800CFF0CFF0C800CFF0CFF0C800CFF0C88
:105D4000FF0CC10CFF0CFF0CE30CFF0CFF0CFF0C55
:105D5000FF0CFF0CFF0CFF0CFF0CFF0CFF0CFF0CEB
:105D6000FF0CFF0CFF0CFF0CFF0CFF0CFF0CFF0CDB
:105D7000FF0C000EFB6E5D0EFA6E46C1E8FFD89078
:105D8000E836F926FF0CFF0CFF0CFF0CFF0CFF0C94
:105D9000FF0CFF0CFF0CFF0CFF0CFF0CFF0CFF0CAB
:105DA000FF0CFF0CFF0CFF0CFF0CFF0CFF0CFF0C9B
:105DB000FF0CFF0CFF0CFF0CFF0CFF0CFF0CFF0C8B
:105DC000FF0CFF0CFF0CFF0CFF0CFF0CFF0CFF0C7B
:105DD000FF0CFF0CFF0CFF0CFF0CFF0CFF0CFF0C6B
:045DE000FF0CFF0CA9
:105E0000000EFB6E5E0EFA6E46C1E8FFD890E836D3
:105E1000F926FF0CFF0CFF0CFF0CFF0CFF0CFF0C16
:105E2000FF0CFF0CFF0CFF0CFF0CFF0CFF0CFF0C1A
:105E3000FF0CFF0CFF0CFF0CFF0CFF0CFF0CFF0C0A
:105E4000FF0CFF0CFF0CFF0CCF0CFF0CFF0CB70C72
:105E5000FF0CFF0C7B0CFF0CFF0C030CFF0CFF0C6A
:105E60007B0CFF0CFF0C7B0CFF0CFF0CFF0CFF0CE2
:105E7000FF0C000EFB6E5E0EFA6E46C1E8FFD89076
:105E8000E836F926FF0CFF0CFF0CFF0CFF0CFF0C93
:105E9000FF0CFF0CFF0CFF0CFF0CFF0CFF0CFF0CAA
:105EA000FF0CFF0CFF0CFF0CFF0CFF0CFF0CC70CD2
:105EB000FF0CFF0C830CFF0CFF0C830CFF0CFF0C82
:105EC000830CFF0CFF0CC70CFF0CFF0CFF0CFF0C2E
:105ED000FF0CFF0CFF0CFF0CFF0CFF0CFF0CFF0C6A
:045EE000FF0CFF0CA8
:105F0000000EFB6E5F0EFA6E46C1E8FFD890E836D1
:105F1000F926FF0CFF0CFF0CFF0CFF0CFF0CFF0C15
:105F2000FF0CFF0CFF0CFF0CFF0CFF0CFF0CFF0C19
:105F3000FF0CFF0CFF0CFF0CFF0CFF0CFF0CFF0C09
:105F4000FF0CFF0CFF0CFF0CFF0CFF0CFF0CFF0CF9
:105F5000FF0CFF0CFF0CFF0CFF0CFF0CFF0CFF0CE9
:105F6000FF0CFF0CFF0CFF0CFF0CFF0CFF0CFF0CD9
:105F7000FF0C000EFB6E5F0EFA6E46C1E8FFD89074
:105F8000E836F926FF0CFF0CFF0CFF0CFF0CFF0C92
:105F9000FF0CFF0CFF0CFF0CFF0CFF0CC70CFF0CE1
:105FA000FF0C830CFF0CFF0C830CFF0CFF0C830C0D
:105FB000FF0CFF0CC70CFF0CFF0CCF0CFF0CFF0CF1
:105FC0009F0CFF0CFF0CFF0CFF0CFF0CFF0CFF0CD9
:105FD000FF0CFF0CFF0CFF0CFF0CFF0CFF0CFF0C69
:045FE000FF0CFF0CA7
:10600000000EFB6E600EFA6E46C1E8FFD890E836CF
:10601000F926FF0CFF0CFF0CFF0CFF0CFF0CFF0C14
:10602000FF0CFF0CFF0CFF0CFF0CFF0CFF0CFF0C18
:10603000FF0CFF0CFF0CFF0CFF0CFF0CFF0CFF0C08
:10604000FF0CFF0CFF0CFF0C070CFF0CFF0C7B0C74
:10605000FF0CFF0C7B0CFF0CFF0C070CFF0CFF0C64
:106060007F0CFF0CFF0C7F0CFF0CFF0CFF0CFF0CD8
:10607000FF0C000EFB6E600EFA6E46C1E8FFD89072
:10608000E836F926FF0CFF0CFF0CFF0CFF0CFF0C91
:10609000FF0CFF0CFF0CFF0CFF0CFF0CFF0CFF0CA8
:1060A000FF0CFF0CFF0CFF0CFF0CFF0CFF0CFF0C98
:1060B000FF0CFF0CFF0CFF0CFF0CFF0CFF0CFF0C88
:1060C000FF0CFF0CFF0CFF0CFF0CFF0CFF0CFF0C78
:1060D000FF0CFF0CFF0CFF0CFF0CFF0CFF0CFF0C68
:0460E000FF0CFF0CA6
:10610000000EFB6E610EFA6E46C1E8FFD890E836CD
:10611000F926FF0CFF0CFF0CFF0CFF0CFF0CFF0C13
:10612000FF0CFF0CFF0CFF0CFF0CFF0CFF0CFF0C17
:10613000FF0CFF0CFF0CFF0CFF0CFF0CFF0CFF0C07
:10614000FF0CFF0CFF0CFF0CFF0CFF0CFF0CFF0CF7
:10615000FF0CFF0CFF0CFF0CFF0CFF0CFF0CFF0CE7
:10616000FF0CFF0CFF0CFF0CFF0CFF0CFF0CFF0CD7
:10617000FF0C000EFB6E610EFA6E46C1E8FFD89070
:10618000E836F926FF0CFF0CFF0CFF0CFF0CFF0C90
:10619000FF0CFF0CFF0CFF0CFF0CFF0CFF0CFF0CA7
:1061A000FF0CFF0CFF0CFF0CFF0CFF0CFF0CFF0C97
:1061B000FF0CFF0CFF0CFF0CFF0CC70CFF0CFF0CBF
:1061C000830CFF0CFF0C830CFF0CFF0C830CFF0CEB
:1061D000FF0CC70CFF0CFF0CCF0CFF0CFF0C9F0C2F
:0461E000FF0CFF0CA5
:10620000000EFB6E620EFA6E46C1E8FFD890E836CB
:10621000F926FF0CFF0CFF0CFF0CFF0CFF0CFF0C12
:10622000FF0CFF0CFF0CFF0CFF0CFF0CFF0CFF0C16
:10623000FF0CFF0CFF0CFF0CFF0CFF0CFF0CFF0C06
:10624000FF0CFF0CFF0CFF0CFF0CFF0CFF0CFF0CF6
:10625000FF0CFF0CFF0CFF0CFF0CFF0CFF0CFF0CE6
:10626000FF0CFF0CFF0CFF0CFF0CFF0CFF0CFF0CD6
:10627000FF0C000EFB6E620EFA6E46C1E8FFD8906E
:10628000E836F926FF0CFF0CFF0CFF0CFF0CFF0C8F
:10629000FF0CFF0CFF0CFF0CFF0CFF0CFF0CFF0CA6
:1062A000FF0CFF0CFF0CFF0CFF0CFF0CFF0CFF0C96
:1062B000FF0CFF0CFF0CFF0CFF0CFF0CFF0CFF0C86
:1062C000FF0CFF0CFF0CFF0CFF0CFF0CFF0CFF0C76
:1062D000FF0CFF0CFF0CFF0CFF0CFF0CFF0CFF0C66
:0462E000FF0CFF0CA4
:10630000000EFB6E630EFA6E46C1E8FFD890E836C9
:10631000F926FF0CFF0CFF0CFF0CF30CFF0CF80C24
:10632000060C1F0CF00C0C0C0F0CE70C990CCF0C8E
:10633000CF0C330CCF0C9F0CE70CCF0C3C0C010C9A
:10634000CF0C380C030CCF0C3E0C7F0C9F0C3C0C7C
:10635000CF0C3F0C010C9E0C7F0C830C000CFF0C2F
:10636000FE0C010CFF0CFC0CFF0CFF0CFF0CFF0CD7
:10637000FF0C000EFB6E630EFA6E46C1E8FFD8906C
:10638000E836F926FF0CFF0CFF0CFF0CFF0CFF0C8E
:10639000FF0CFF0CFF0CFF0CFF0CFF0CFF0CFF0CA5
:1063A000FF0CFF0CFF0CFF0CFF0CFF0CFF0CFF0C95
:1063B000FF0CFF0CFF0CFF0CFF0CFF0CFF0CFF0C85
:1063C000C70CFF0CFF0C830CFF0CFF0C830CFF0CA5
:1063D000FF0C830CFF0CFF0CC70CFF0CFF0CFF0C19
:0463E000FF0CFF0CA3
:10640000000EFB6E640EFA6E46C1E8FFD890E836C7
:10641000F926FF0CFF0CFF0CFF0CFF0CFF0CFF0C10
:10642000FF0CFF0CFF0CFF0CFF0CFF0CFF0CFF0C14
:10643000FF0CFF0CFF0CFF0CFF0CFF0CFF0CFF0C04
:10644000FF0CFF0CFF0CFF0CFF0CFF0CFF0CFF0CF4
:10645000FF0CFF0CFF0CFF0CFF0CFF0CFF0CFF0CE4
:10646000FF0CFF0CFF0CFF0CFF0CFF0CFF0CFF0CD4
:02647000FF0C1F
:10650000000EFB6E650EFA6E46C1E8FFD890E836C5
:10651000F926FF0CFF0CFF0CFF0CFF0CFF0CFF0C0F
:10652000FF0CFF0CFF0CFF0CFF0CFF0CFF0CFF0C13
:10653000FF0CFF0CFF0CFF0CFF0CFF0CFF0CFF0C03
:10654000FF0CFF0CFF0CFF0CFF0CFF0CFF0CFF0CF3
:10655000FF0CFF0CFF0CFF0CFF0CFF0CFF0CFF0CE3
:10656000FF0CFF0CFF0CFF0CFF0CFF0CFF0CFF0CD3
:02657000FF0C1E
:10700000000EFB6E700EFA6E48C1E8FFD890E834AF
:10701000D890E834F9261FEF38F030EF38F041EF20
:1070200038F052EF38F063EF38F080EF38F091EF3E
:1070300038F0A2EF38F0B3EF38F0C4EF38F0000EBC
:10704000FB6E700EFA6E46C1E8FFD890E836F9265E
:10705000FF0C8F0C770C770C770C770C770C8F0C60
:10706000000EFB6E700EFA6E46C1E8FFD890E8364F
:10707000F926FF0CDF0C9F0CDF0CDF0CDF0CDF0CA4
:107080008F0C000EFB6E700EFA6E46C1E8FFD890B2
:10709000E836F926FF0C8F0C770CF70CEF0CDF0CA1
:1070A000BF0C070C000EFB6E700EFA6E46C1E8FFB7
:1070B000D890E836F926FF0C070CF70CEF0CCF0C34
:1070C000F70C770C8F0C000EFB6E700EFA6E46C13B
:1070D000E8FFD890E836F926FF0CEF0CCF0CAF0C88
:0870E0006F0C070CEF0CEF0C24
:10710000000EFB6E710EFA6E46C1E8FFD890E836AD
:10711000F926FF0C070C7F0C0F0CF70CF70C770C03
:107120008F0C000EFB6E710EFA6E46C1E8FFD89010
:10713000E836F926FF0C8F0C770C7F0C0F0C770CC0
:10714000770C8F0C000EFB6E710EFA6E46C1E8FFD5
:10715000D890E836F926FF0C070CF70CEF0CDF0C83
:10716000BF0CBF0CBF0C000EFB6E710EFA6E46C159
:10717000E8FFD890E836F926FF0C8F0C770C770CD7
:107180008F0C770C770C8F0C000EFB6E710EFA6E65
:1071900046C1E8FFD890E836F926FF0C8F0C770C33
:0A71A000770C870CF70C770C8F0CAE
:10720000000EFB6E720EFA6E48C1E8FFD890E834AB
:10721000D890E834F92623EF39F03CEF39F055EFF8
:1072200039F080EF39F099EF39F0B2EF39F0CBEF68
:1072300039F0E4EF39F000EF3AF019EF3AF032EFBD
:107240003AF04BEF3AF0000EFB6E720EFA6E46C14A
:10725000E8FFD890E836F926FF0CC70C830C110C18
:10726000390C390C390C390C390C390C390C390CF6
:10727000110C830CC70CFF0C000EFB6E720EFA6E25
:1072800046C1E8FFD890E836F926FF0CCF0CCF0CAA
:107290008F0C0F0C4F0CCF0CCF0CCF0CCF0CCF0C96
:1072A000CF0CCF0C030C030CFF0C000EFB6E720E08
:1072B000FA6E46C1E8FFD890E836F926FF0C870C35
:1072C000030C310C790CF90CF90CF10C830C070C44
:0C72D0003F0C3D0C390C010C010CFF0CB4
:10730000000EFB6E730EFA6E46C1E8FFD890E836A9
:10731000F926FF0C870C030C310C790CF90CF10CDD
:10732000C30CC30CF10CF90C790C310C030C870C59
:10733000FF0C000EFB6E730EFA6E46C1E8FFD8908C
:10734000E836F926FF0CFD0CF90CE90CC90CC90C48
:10735000990C390C390C010C010CF90CF90CF90CD5
:10736000F90CFF0C000EFB6E730EFA6E46C1E8FFBF
:10737000D890E836F926FF0C010C010C390C3B0CB7
:107380003F0C070C030CF10CF90CF90C790C310CC7
:10739000030C870CFF0C000EFB6E730EFA6E46C1D9
:1073A000E8FFD890E836F926FF0CC70C830C110CC7
:1073B000390C3F0C3F0C270C030C110C390C390C09
:1073C000110C830CC70CFF0C000EFB6E730EFA6ED3
:1073D00046C1E8FFD890E836F926FF0C010C010CF5
:1073E000390C790CF90CF90CF30CE70CCF0CCF0C21
:0A73F000CF0CCF0CCF0CCF0CFF0C1C
:10740000000EFB6E740EFA6E46C1E8FFD890E836A7
:10741000F926FF0CC70C830C110C390C390C930C9A
:10742000C70C930C390C390C390C110C830CC70C9C
:10743000FF0C000EFB6E740EFA6E46C1E8FFD8908A
:10744000E836F926FF0CC70C830C110C390C390CEB
:10745000390C110C810CC90CF90C390C110C830C72
:10746000C70CFF0C000EFB6E740EFA6E46C1E8FFEF
:10747000D890E836F926FF0CFF0CFF0CFF0CFF0C30
:10748000FF0CFF0C1F0C1F0CFF0CFF0CFF0CFF0C64
:10749000FF0CFF0CFF0C000EFB6E740EFA6E46C163
:1074A000E8FFD890E836F926FF0CFF0CFF0CFF0C24
:1074B000FF0CFF0C9F0C0F0C0F0C9F0CFF0CFF0C14
:0874C000FF0CFF0CFF0CFF0C98
:10800000000EFB6E800EFA6EEFCFE8FFD890E836D8
:10801000F926150C150C150C150C150C150C150C5A
:10802000150C110C150C150C100C150C150C150C51
:10803000150C150C150C150C140C150C150C150C39
:10804000150C150C150C0B0C090C150C150C150C3E
:10805000150C150C150C150C150C150C0D0C050C30
:10806000090C090C090C130C150C150C150C150C2E
:10807000150C120C120C120C120C120C0F0C120C10
:10808000110C050C110C0D0C050C130C120C120C20
:10809000120C130C0E0C0E0C0F0C120C120C130CF9
:1080A000120C120C120C0B0C090C0C0C150C150CF0
:1080B000150C150C150C150C150C120C090C050CD7
:1080C000070C070C070C100C120C120C120C120CE3
:1080D000120C000C010C020C030C040C050C060C19
:1080E000070C080C090C0A0C0B0C0C0C0D0C0E0CDC
:0280F0000F0C73
:10900000000EAA6E000EA96E030EEA6E000EE96E47
:10901000A69EA69CA680A8CF6CF1FE0E6C6313EFF3
:1090200048F01AEF48F0A8CFEFFFE92AA92A08EF85
:1090300048F00000A8CFEFFF12001200000EAA6E49
:10904000000EA96E030EEA6E000EE96EEFCF6CF112
:10905000FF0E6C632DEF48F01200EFCFA8FF36EC47
:1090600048F0E92AA92A26EF48F01200A69EA69CFD
:10907000A684F29E550EA76EAA0EA76EA682F28E49
:0C908000A694A6B241EF48F000001200D8
:10A000009FEC50F0BDEC50F062EC50F0D8EC50F00A
:10A01000F6EC50F093EC50F075C176F1F6EC50F0A0
:10A0200093EC50F075C177F1F6EC50F093EC50F0F2
:10A0300075C178F1F6EC50F093EC50F075C179F100
:10A04000F6EC50F093EC50F075C17AF1F6EC50F06C
:10A0500088EC50F075C17BF162EC50F029EC51F0C6
:10A0600012009FEC50F0BDEC50F062EC50F0D8ECD8
:10A0700050F0F6EC50F088EC50F075C176F162ECDF
:10A0800050F0976B966B76379637763796377637EC
:10A0900096377637963776379737763797377637D6
:10A0A00097377637973712008B808B82050E88ECB6
:10A0B00051F08B90050E88EC51F08B92050E88ECD8
:10A0C00051F012008B908B92050E88EC51F08B8230
:10A0D000050E88EC51F08B80050E88EC51F01200D3
:10A0E0008B820F0E88EC51F08B920F0E88EC51F0A2
:10A0F00012009480050E88EC51F0000082B07DEFD4
:10A1000050F070EC50F09490050E88EC51F0120075
:10A110009490050E88EC51F08B8070EC50F0050E99
:10A1200088EC51F012009490050E88EC51F08B9061
:10A1300070EC50F09480050E88EC51F01200949071
:10A1400054EC50F08B8070EC50F08B8070EC50F041
:10A150008B9070EC50F08B8070EC50F08B9070EC2A
:10A1600050F08B9070EC50F08B9070EC50F08B9026
:10A1700070EC50F079EC50F012008B9070EC50F0D5
:10A180008B9070EC50F08B9070EC50F08B9070ECEA
:10A1900050F08B9070EC50F08B9070EC50F08B90F6
:10A1A00070EC50F08B9070EC50F079EC50F01200A5
:10A1B000949054EC50F08B8070EC50F08B8070ECED
:10A1C00050F08B9070EC50F08B8070EC50F08B90D6
:10A1D00070EC50F08B9070EC50F08B9070EC50F075
:10A1E0008B8070EC50F079EC50F012009480050EEA
:10A1F00088EC51F0080E746F82A001EF51F004EF6B
:10A2000051F0D89008EF51F0D88008EF51F00000DD
:10A21000753770EC50F0742FFCEF50F0050E88ECA1
:10A2200051F01200080E746F7537D8A01AEF51F074
:10A230001DEF51F08B9021EF51F08B8021EF51F009
:10A24000000070EC50F0742F14EF51F079EC50F0E6
:10A2500012008D6B8C6B76378C3776378C37763770
:10A260008C3776378C3776378D3776378D3776372C
:10A270008D3776378D378B6B8A6B77378A377737A1
:10A280008A3777378A3777378A3777378B37773711
:10A290008B3777378B3777378B37886B896B783786
:10A2A0008837783788377837883778378837889F7E
:10A2B000889D889B889978378937783789377837A8
:10A2C000893778378937906B916B7A3790377A373F
:10A2D00090377A3790377A3790377A3791377A379D
:10A2E00091377A3791377A3791378E6B8F6B7B370F
:10A2F0008E377B378E377B378E377B378E377B3782
:10A300008F377B378F377B378F377B378F3712000D
:10A31000706F0000000000000000702F89EF51F006
:10A320001200050E416FC80E88EC51F0412F93EFDB
:10A3300051F01200716F91EC51F0712F9BEF51F0C1
:10A340001200050E726FC80E9AEC51F0722FA3EF37
:10A3500051F01200736FA1EC51F0732FABEF51F07D
:04A3600012001200D5
:10B0000026EC58F03FEC58F058EC58F071EC58F042
:10B010008AEC58F0A3EC58F0000E946F84B423EF40
:10B0200058F0942BFA0E94611DEF58F084A411EFA0
:10B0300058F0000E946F23EF58F0932BA4EC00F01F
:10B0400084A41EEF58F0000E946F1200010E93635B
:10B05000120084B034EF58F08D2B10EC59F0A4ECB2
