:020000009F2A35
:08000800FF00030E8312031335
:10001000A0000A0EA100040EA2008A110A12A22A50
:10002000C108031D1428080009300000FF3E031D0D
:10003000152800000000C10B14280800A908031DA2
:1000400022280800F5300000000000000000000039
:1000500000000000000000000000000000000000A0
:10006000000000000000FF3E031D232800000000E8
:100070000000000000000000000000000000000080
:10008000000000000000A90B22280800FA30A90097
:100090001E20FA30A9001E20FA30A9001E20FA30D6
:1000A000A9001E20A70B46280800B201B301B50124
:1000B000B601B401341A08000310B50DB60DAC0D2D
:1000C000AD0DB20DB30D2F083302031D69282E08A4
:1000D0003202031C72282E08B2022F08031CB3033D
:1000E000B3023514B40A5A280608C0004010C010E4
:1000F0004011C0114012C0123D0E0F39C1000F3027
:100100004105BF003F184014BF18C0143F194015E7
:10011000BF19C015BE08031D4016400886000A30EE
:10012000C100102086160A30C100102086120F3040
:100130003D05BF000A30C10010200608C000401075
:10014000C0104011C0114012C0123F184014BF1817
:10015000C0143F194015BF19C015BE08031D401635
:10016000400886000A30C100102086160A30C100FF
:10017000102086120A30C10010200800BC013B0884
:100180003C020318080083132818831727083C072C
:100190008400800803190800831328188317270890
:1001A0003C0784000008BD001030BE007420BC0A6B
:1001B000BF28A81FE8282D30BD001030BE007420D5
:1001C0002708003CAC00A8090318A80A2C08A700BF
:1001D0002708A9002808AA0027302802031DF228B2
:1001E00010302702031C2629A81B2629B001290844
:1001F000AC002A08AD00AA1F0329AC09AD09AC0A5E
:100200000319AD0AB00A1030AE002730AF005520F8
:100210003508AB00301C0E29AB09AB0A2B08303E69
:10022000BD001030BE0074202B08003C03182629A6
:1002300010302902AC002730031C28302A02AD0000
:100240002C08A9002D08AA00AB03142903302802AA
:10025000031D2C29E8302702031C6129A81B6129F2
:10026000B1012908AC002A08AD00AA1F3D29AC093C
:10027000AD09AC0A0319AD0AB10AE830AE0003308B
:10028000AF0055203508B000311C4829B009B00A2C
:100290003008AB00303EBD001030BE0074202B088B
:1002A000003C03186129E8302902AC000330031C2C
:1002B00004302A02AD002C08A9002D08AA00AB03C7
:1002C0004F292808803AAC0080302C02031D6A298F
:1002D00064302702031C9729B1012908AC002A08C1
:1002E000AD00AA1F7929AC09AD09AC0A0319AD0A02
:1002F000B10A6430AE00AF0155203508B000311CA2
:100300008329B009B00A3008AB00303EBD00103080
:10031000BE0074202B08003C031897296430290282
:10032000AC00031CAA032C08A900AB038A292808E7
:10033000803AAC0080302C02031DA0290A3027022D
:10034000031CCD29B1012908AC002A08AD00AA1F61
:10035000AF29AC09AD09AC0A0319AD0AB10A0A30DC
:10036000AE00AF0155203508B000311CB929B009E5
:10037000B00A3008AB00303EBD001030BE00742023
:100380002B08003C0318CD290A302902AC00031CBD
:10039000AA032C08A900AB03C0292908303EBD00E0
:1003A0001030BE0074200800A808031DDA29803030
:1003B000A800DC29C030A80027082807BD00BE011E
:1003C00074200230A9001E200800831603130610B3
:1003D000861006118611061286120C308312A900AF
:1003E0001E203330BD00BE0174200230A9001E2043
:1003F0003230BD00BE0174200230A9001E202C3016
:10040000BD00BE0174200230A9001E200630BD00D0
:10041000BE0174200230A9001E200C30BD00BE01B8
:1004200074200230A9001E200130BD00BE017420DE
:100430000230A9001E200230BD00BE01742002302F
:10044000A9001E2008000730831603139F00C03048
:100450008100E521A701A801D4212030B0003A3065
:10046000B5004530A9006130AB006430AF006530A5
:10047000AE00B4006930B2006C30AA006D30B30039
:100480007030AC007330AD007430B100B601003094
:10049000B8002930A7003808A8000D30BB00BE20E6
:1004A00005309700900109308316850001309C00CB
:1004B00083128F018E010C110C1D5C2A10140C117B
:1004C0000C1D602A10101508A5001608A600A7012B
:1004D0002608A40027082507A3000318A40AA701DB
:1004E0000130A800D4212308A7002408A800D9209F
:1004F0002030A900B100B200B300B400B500B600CE
:10050000B700B800B9002E30B0006330AA006E30DA
:10051000AD006F30AB007330AF007430AE0075309B
:10052000AC00BA010030BC002930A7003C08A8008C
:100530001130BB00BE200230A7004620582A8A1185
:100540000A12232A83120313220E8400210E8A002A
:0A055000200E8300FF0E7F0E09004D
:02400E003A3F37
:00000001FF