:020000040000FA
:020000001028C6
:08000800FD000308FE000A08D8
:10001000FF007F088A007E088300FD0E7D0E090028
:100020008312031700309E009F0000306700831288
:10003000031317211B282C30840006308000003069
:100040003C3084000630800000304C3084003E306C
:10005000800000305C3084007E30800000302D3025
:1000600084004630800000303D30840046308000FF
:1000700000304D3084007E30800000305D308400E0
:100080003E30800000302E3084003C308000003054
:100090003E3084007E30800000304E308400663078
:1000A000800000305E3084006630800000302F30E9
:1000B00084003630800000303F30840006308000FD
:1000C00000304F3084006630800000305F308400A4
:1000D0003C3080000030303084007C3080000030C4
:1000E000613084007C3080000030323084007C300D
:1000F00080000030633084007C308000003040306D
:1001000084007E3080000030513084007E308000DA
:100110000030423084007E30800000305330840054
:100120007E30800000305030840006308000003087
:1001300041308400063080000030523084000630A8
:1001400080000030433084000630800000303130C1
:1001500084001E3080000030333084001E30800068
:100160000030603084001E30800000306230840037
:100170001E3080000030653084003E30800000304A
:10018000673084003E3080000030643084003E30B0
:1001900080000030663084003E30800000305730F0
:1001A00084007E3080000030553084007E30800036
:1001B0000030353084004630800000304530840007
:1001C00046308000003037308400463080000030F8
:1001D0004730840046308000003054308400363090
:1001E00080000030563084003630800000304430CB
:1001F0008400663080000030463084006630800025
:10020000003034308400C630800000303630840046
:10021000C630800000303B3084001E30800000304B
:100220006A3084001E308000003023211B284030BB
:10023000EC002C3084000030800000304E21840A15
:10024000EC0B1B2908001030EC002C3084004E21F0
:10025000840AEC0B27290714871487166C211030A9
:10026000EC004E21840AEC0B312907108714871605
:100270006C211030EC004E21840AEC0B3B29071452
:10028000871087166C211030EC004E21840AEC0B8D
:1002900045290710871087166C210800871307125D
:1002A00087120008A9000830A500A90C031C5929D1
:1002B0005B2907155D2907115D2987178713A50B92
:1002C0005529071607120800A000000000000000D2
:1002D0000000A00B652908000530A300C830642188
:1002E000A30B6E290800A1006C21A10B7429080042
:1002F0000530A400C8307321A40B7A290800A2009D
:080300007821A20B80290800FE
:02400E00C230BE
:084200000100020003000400AC
:00000001FF
