:02000000E52FEA
:08000800FF00030E8312031335
:10001000E0000A0EE100040EE2008A150A124328ED
:1000200000000000B10B10280800B508031D1928B6
:100030000800F9300000000000000000000000008F
:1000400000000000000000000000000000000000B0
:1000500000000000FF3E031D1A2800000000000001
:100060000000000000000000000000000000000090
:10007000000000000000000000000000B50B19287F
:100080000800C508031D4528080009300000FF3E90
:10009000031D462800000000C50B45280800B301D9
:1000A0003208831293008316141C532883121308FA
:1000B0008316B3003308B400080083160313B1019C
:1000C000FF30B2004F203408B1003108B200080000
:1000D0003108B2004F200800FB30831603130705D8
:1000E0008700FB3083120705870079088316B1006B
:1000F00068205D2032088312FC00FB308316070560
:100100008700FB30831207058316B10004303104E9
:10011000831287000800BA0137083406031D32290C
:1001200038083506031D3229BB0133083B0203188A
:10013000A42883133218831731083B0784008008F2
:100140000319A428BB0A952839083B0203180B2978
:10015000BA0136083A020318B828831335188317F2
:1001600034083A07840080080319B828BA0AA92875
:100170003B083902BC003A083C020318C2283B087D
:100180003902BA003A083B07B6003A08BB003B0800
:10019000003C0318E128BB03B6038313351883170B
:1001A000340884003B08BD003D0884070008BE00F9
:1001B0008313381883173708360784003E088000F9
:1001C000C728BB0133083B020318082939083B0242
:1001D0000318082983133218831731083B0784005A
:1001E0008008031908298313321883173108840003
:1001F0003B08BD003D0884070008BE008313381883
:10020000831737083B0784003E088000BB0AE228BA
:100210003B08BA079429BA0133083A020318942913
:1002200039083A02031894298313321883173108C6
:100230003A0784008008031994298313321883171E
:10024000310884003A08BC003C0884070008BD005F
:1002500083133818831737083A0784003D08800055
:10026000BA0A0C29BA0133083A0203185929390885
:100270003A020318592983133218831731083A07B1
:100280008400800803195929831332188317310811
:1002900084003A08BC003C0884070008BD008313B2
:1002A0003818831737083A0784003D088000BA0AD7
:1002B000332939083A02031894293A083707BC0051
:1002C0003808BD000318BD0A3C08B1003D08B20063
:1002D0003A083902B300BB0136083B0203189229E1
:1002E00033083B0203189229831335188317340807
:1002F0003B0784008008031992298313351883175C
:10030000340884003B08BC003C0884070008BD009A
:1003100083133218831731083B0784003D0880009F
:10032000BB0A6C293B08BA0739083A0203180800CF
:1003300083133818831737083A0784000030800089
:100340000800C801440848020318C82947084802A1
:100350000318C8298313321883173108480784000B
:1003600080080319C82983133218831731088400C1
:100370004808C900490884070008CA0083134618C2
:1003800083174508480784004A088000C80AA22944
:1003900047084802031808008313461883174508C6
:1003A00048078400003080000800BC01BD01BF0187
:1003B000C001BE013E1A08000310BF0DC00DB60DEE
:1003C000B70DBC0DBD0D39083D02031DE9293808E4
:1003D0003C02031CF2293808BC023908031CBD0387
:1003E000BD023F14BE0ADA29B401330834020318EF
:1003F000080064000130B5001520B40AF529831601
:100400000313871283128716831607168711831228
:1004100087119401141283161417941783129416DB
:100420000800FB308316031307058700FB30831297
:100430000705870005308316B10010203030831285
:10044000F90079088316B10068202F088312F9009B
:1004500079088316B100682083127008F9007908C2
:100460008316B100682083127308F9007908831697
:10047000B100682083127508F90079088316B1006D
:10048000682083127808F90079088316B100682083
:10049000FB3007058700FB30831207058316B10088
:1004A000043031048312870005308316B100102018
:1004B0000800FB308316031307058700FB30831207
:1004C0000705870005308316B10010202A308312FB
:1004D000F90079088316B100682022088312F90018
:1004E00079088316B100682026088312F90079087C
:1004F0008316B100682027088312F9007908831653
:10050000B100682029088312F90079088316B10028
:1005100068202B088312F90079088316B10068203F
:10052000FB3007058700FB30831207058316B100F7
:10053000043031048312870005308316B100102087
:10054000080083160313AD01B3010030B200B330CD
:10055000B100C4010030C6002030C5001230C70011
:10056000A121FB3007058700FB30831207058700B8
:1005700005308316B100102061308312F90079082C
:100580008316B10068205D2032088312FB00003022
:100590008316B2002030B1001230B3000030B50035
:1005A0007B30B4000130B6000030B8002030B70016
:1005B0001230B9008B202D0AAD002C082D06031D2A
:1005C000C32AFB3007058700FB308312070583161B
:1005D000B100043031048312870005308316B10066
:1005E00010200800FB308316031307058700FB303B
:1005F00083120705870005308316B1001020E13013
:100600008312F90079088316B1006820E230831262
:10061000F90079088316B1006820FB3007058700D0
:10062000FB30831207058316B100043031048312B6
:10063000870005308316B10010200800FB308316B8
:10064000031307058700FB3083120705870020305E
:1006500083162A078312F90079088316B1006820EF
:1006600083127108F90079088316B1006820FB3005
:1006700007058700FB30831207058316B10004309D
:100680003104831287000800073083120313F90036
:100690006C207C088316A00017308312F9006C20B0
:1006A0007C08FE00080083120611861106128612CD
:1006B000061086108316420E0F39C4000F30C40591
:1006C000441C642B831206158316C41C692B8312E9
:1006D00086158316441D6E2B831206168316C41DC1
:1006E000732B831286168316C3080319792B831282
:1006F00006140A308316C5004120831286140A307E
:100700008316C5004120831286100F3083164205E0
:10071000C4000A30C500412083120611861106125A
:100720008612061086108316441C982B8312061519
:100730008316C41C9D2B831286158316441DA22B81
:10074000831206168316C41DA72B831286168316E2
:10075000C3080319AD2B831206140A308316C50093
:100760004120831286140A308316C500412083126B
:1007700086100A308316C500412008008316031333
:1007800018158130990083129801981783169816CE
:100790008312181683168C12080083160313B301F4
:1007A0000030B200B330B100C4010030C6002030C8
:1007B000C5001230C700A1210430B5001520442324
:1007C00083162008403A031D022CDF300505850002
:1007D000DF30831205058316B10020303104831207
:1007E0008500A1220730AA004E308312F1001E239B
:1007F000DF30831605058500DF308312050585008F
:10080000EE15092CDF3005058500DF308312050564
:100810008500F2220800FB308316031307058700CA
:10082000FB3083120705870005308316B1001020C6
:10083000A0308312F90079088316B1006820AD0159
:10084000831283133230840083162D088407000836
:100850008312F90079088316B10068202D0AAD00D3
:100860002C082D06031D202CFB3007058700FB30CC
:10087000831207058316B100043031048312870008
:1008800005308316B1001020FD3007058700FD30CC
:10089000831207058316B1000230310483128700EA
:1008A00006308316B5001520FD3007058700FD30A2
:1008B0008312070587004423831620082E3A031D60
:1008C0007D2CFE3007058700FE3083120705831656
:1008D000B100013031048312870007308316AA006B
:1008E0002E308312F1001E23F222FE30070587000E
:1008F000FE30831207058700080020081E3A031DFA
:100900008A2CF2220730AA001E308312F1001E2327
:10091000F2220800F222080083160313AA010E3007
:100920008312F1001E2301308316AA003F30831288
:10093000F1001E2302308316AA0003308312F10057
:100940001E2303308316AA008312F1001E230430F5
:100950008316AA005F308312F1001E230530831630
:10096000AA004C308312F1001E2306308316AA0021
:1009700027308312F1001E2311308316AA002C08A1
:100980008312F1001E2311225922F222080083163D
:100990000313AA010F308312F1001E2301308316C6
:1009A000AA003F308312F1001E2302308316AA00F2
:1009B00003308312F1001E2303308316AA00831232
:1009C000F1001E2304308316AA005F308312F10069
:1009D0001E2305308316AA004C308312F1001E231B
:1009E00006308316AA0027308312F1001E2311302F
:1009F0008316AA002C088312F1001E23112259220B
:100A0000F2220800831603130510831205148316BF
:100A1000051083120514FF210800C101C10140081F
:100A20004102031808008313321883173108410765
:100A300084008008031908008313321883173108D3
:100A4000410784000008C2001030C3005323C10ACC
:100A50000F2DB21F382D2D30C2001030C30053238C
:100A60003108003CB600B2090318B20A3608B100DA
:100A70003108B3003208B40027303202031D422D82
:100A800010303102031C702DB21B702DBA013308D7
:100A9000B6003408B700B41F532DB609B709B60A1B
:100AA0000319B70ABA0A1030B8002730B900D521A7
:100AB0003F08B5003A1C5E2DB509B50A3508303E31
:100AC000C2001030C30053233508003C0318702DBA
:100AD0001030B3022730031C2830B402B503642D54
:100AE00003303202031D762DE8303102031CA62D9F
:100AF000B21BA62DBB013308B6003408B700B41FE3
:100B0000872DB609B709B60A0319B70ABB0AE83038
:100B1000B8000330B900D5213F08BA003B1C922D24
:100B2000BA09BA0A3A08B5003508303EC20010309A
:100B3000C30053233508003C0318A62DE830B30248
:100B40000330031C0430B402B5039A2D3208803AF6
:100B5000B60080303602031DAF2D64303102031C15
:100B6000DB2DBB013308B6003408B700B41FBE2D1F
:100B7000B609B709B60A0319B70ABB0A6430B80048
:100B8000B901D5213F08BA003B1CC82DBA09BA0AE1
:100B90003A08B5003508303EC2001030C300532378
:100BA0003508003C0318DB2D6430B302B408031C85
:100BB000B403B503D02D3208803AB6008030360237
:100BC000031DE42D0A303102031C102EBB01330833
:100BD000B6003408B700B41FF32DB609B709B60A3A
:100BE0000319B70ABB0A0A30B800B901D5213F087A
:100BF000BA003B1CFD2DBA09BA0A3A08B5003508FF
:100C0000303EC2001030C30053233508003C0318A7
:100C1000102E0A30B302B408031CB403B503052E2A
:100C20003308303EC2001030C30053230800B2081E
:100C3000031D1D2E8030B2002C2E3203031D232EE7
:100C4000C030B2002C2E3208023A031D2A2E9030FA
:100C5000B2002C2ED030B20031083207C200C301DE
:100C600053230230B300F42108000130831603132C
:100C7000C200C30153230230B300F4210230C2008A
:100C8000C30153230230B300F42108008316031379
:100C9000061183120611831686118312861183169C
:100CA0000612831206128316861283128612831688
:100CB00006108312061083168610831286100C30DD
:100CC0008316B300F4213330C200C3015323023032
:100CD000B300F4213330C200C30153230230B30008
:100CE000F4213230C200C30153230230B300F42197
:100CF0002C30C200C30153230230B300F42106306C
:100D0000C200C30153230230B300F4210C30C200EF
:100D1000C30153230230B300F4210130C200C301E8
:100D200053230230B300F4210230C200C301532325
:100D30000230B300F42108000730831603139F002C
:100D4000BE23C0308100022501308316AC0007307D
:100D5000050485000730831205058316AB000830B3
:100D6000050485000830831205058316B100B20121
:100D7000083031020319B20A83126E10831632084A
:100D80000319C42E83126E14303083162B07AB0068
:100D90002B088312F80047308316AF0042308312CD
:100DA000F0005030F3003030F500F8004730831683
:100DB000A2004230A6005030A7003030A900AB009E
:100DC00083126E1CE72E83168C128C24EA2E831657
:100DD0008C12C724DF3005058500DF30831205053E
:100DE0008500FE30831607058700FE308312070555
:100DF0008700FB30831607058700FB308312070549
:100E00008316B1000430310483128700203083162A
:100E1000BA002130C2004130BF004530B400BC00F0
:100E2000C1004730B900C0004930B7004D30BB00A9
:100E30004E30B8005330B500BD00BE005430B30092
:100E4000B600C3010030B200B330B1001030C400AE
:100E50000030C6003230C5001030C700A121831217
:100E6000EE106E1146263526B101B201172641302B
:100E7000B5005230B6005330B3005430B400B70060
:100E8000B8010030B200B330B1000530C0000D250C
:100E9000FD3007058700FD30831207058316B1007A
:100EA0000230310483128700DF3083160505850088
:100EB000DF30831205058500FE30831607058700A5
:100EC000FE3083120705870001308316B500152018
:100ED00083126E1CA32F8316B101B2011726203096
:100EE000B600B9004630B5004E30B3005230B40001
:100EF0006430BC006530BD006D30BA006F30BB009F
:100F00007430B7007830B800BE010030B200B330A2
:100F1000B1000B30C0000D258C240B248316B101C9
:100F20000330B20017262008B100B2012925043091
:100F3000B1000330B200172683127E088316B10079
:100F4000B2012925482F8316B101B201172620309E
:100F5000B6004630B5004E30B3005230B4006330B6
:100F6000B9006530B800BB00BD006930BA0072300E
:100F7000B700BE007630BC00BF010030B200B33015
:100F8000B1000C30C0000D25C724CD23B1010230C3
:100F9000B20017260030B2002030B1001230C0007D
:100FA0000D25B1010330B20017262008B100B201AF
:100FB00029250430B1000330B200172683127E08C1
:100FC0008316B100B2012925482FD53083120313AF
:100FD000CC00C430CD00BB30CE00DC30CF00D0011F
:100FE000D101D201D301D401D501D601D701D80155
:100FF000D901DA01DB01E801E901E301E401EA01D9
:10100000EB01EC01ED01DC01DD01DE01DF01E601B8
:10101000E701E5016E10EF01F001FF30F100F20190
:10102000F301F401F501A001F601F701F801FF3029
:10103000F900FA01FF30FB00FF30FC00FD01FE016A
:10104000B2018316A001A101A201A301FF30A400F7
:10105000A501A601A7018312EE108316A801A9011C
:10106000AA01AB0183126E11C20120308316AC00BD
:10107000AD018312C701EE118316AE01AF01B001BD
:101080008A110A129C2E83120313620E8400610ED1
:0C1090008A00600E8300FF0E7F0E090036
:02400E003A3F37
:00000001FF
