:020000040000FA
:020000001028C6
:08000800FD000308FE000A08D8
:10001000FF007F088A007E088300FD0E7D0E090028
:100020008312031703019E009F0083160313B03051
:1000300086000030870083120313303094004C2177
:1000400076212228831203130230AB00831203139C
:100050000630F300831603131130E4000A308A00DF
:100060003C22831203130530F30083160313003080
:10007000E4000A308A003C22FF30FB00FA000C301A
:100080008A009724742400308A001030FC00871204
:100090000E308A0075264E260C308A009724742470
:1000A00001308A00002100308A00FC0B4728FF3015
:1000B000F900AA000C308A0051242E2400308A0056
:1000C0001030FC0087120E308A00272600260C30E4
:1000D0008A0051242E2401308A00002100308A0039
:0800E000FC0B622876212228A6
:100200002830EE0087121B21EE0B0229871208000E
:10021000871207121030EC00000893000000000065
:100220000000000000000000000007160712840A0A
:10023000EC0B0C2908002C30840008212C308400A1
:100240000821071487148716C830562187123C30BE
:10025000840008213C308400082107108714871689
:10026000C830562187124C30840008214C3084005D
:100270000821071487108716C830562187125C3072
:10028000840008215C30840008210710871087163D
:10029000C8305621871208004030EC002C30840012
:1002A000FF308000840AEC0B50290800A0000000F9
:1002B000000000000000A00B572908000530A30033
:1002C000C8305621A30B60290800A1005E21A10BB4
:1002D000662908000530A400C8306521A40B6C29EC
:1002E0000800A2006A21A20B7229080083160313DA
:1002F0004030E000A0308400FF3080000030840AED
:10030000E00B7C29080000308A0008001F308400C0
:100310000430EC000D308407FF30800000301030D6
:100320008407F60B94290800EC0B8C294C308402CE
:10033000882908006C3084000430EC000D30840201
:10034000FF308000003010308402F60BA82908002E
:10035000EC0BA0294C3084079C2908007308820705
:10036000BC29D129E42900000000000000000000A1
:10037000000000008A0A002A740882070834C73483
:1003800083341134393439343934393439343934E3
:10039000393439343934393411348334C734003082
:1003A0008A00740882070734CF34CF348F340F3477
:1003B0004F34CF34CF34CF34CF34CF34CF34CF34A5
:1003C000CF34CF34033403347408820708348734BD
:1003D00003343134F934F934F934F934F1348334F1
:0E03E00007343F343D343934393401340134AC
:10040000730882070800080008000C2A1F2A322AF5
:10041000452A582A6B2A7E2A7408820708348734B2
:1004200003343134F934F934F934F134C334C33496
:10043000F134F934F934F93431340334873474083D
:1004400082070834FD34F934E934C934C934C93475
:100450009934393401340134F934F934F934F93444
:10046000F934FB3474088207083401340134393418
:100470003B343F343F343F3407340334F134F934F0
:10048000F934F934F134033407347408820708343A
:10049000C7348334113439343F343F343F34273444
:1004A0000334113439343934393411348334C73492
:1004B0007408820708340134013439343934F9348A
:1004C000F934F934F334E734CF34CF34CF34CF3484
:1004D000CF34CF34CF34740882070834C734833420
:1004E00011343934393439349334C73483341134C2
:1004F00039343934393411348334C73474088207B9
:100500000834C7348334113439343934393411342C
:100510008134C934F934F934F93439341134833439
:02052000C734DE
:10060000730882070E2B312B542B772B9A2BBD2B83
:1006100000000000000000008A0A002C7408820715
:100620000C34C034FF3480347F341E343F343F34C4
:100630003F343F343F343F343F343F343F343F3422
:100640003F343F343F343F343F343F343F343F3412
:100650003F343F343F341E343F3480347F34C03421
:10066000FF34740882070C34CF34FF34CF34FF34A6
:100670008F34FF340F34FF344F34FF34CF34FF3422
:10068000CF34FF34CF34FF34CF34FF34CF34FF3492
:10069000CF34FF34CF34FF34CF34FF34CF34FF3482
:1006A0000334FF340334FF34740882070C34C0343D
:1006B000FF3480347F343E343F34FF343F34FF34E2
:1006C0003F34FF343F34FF343F34FE343F34C034D2
:1006D0007F348034FF343F34FF343F34FF343F34C1
:1006E000FF343F343F3400343F3400343F34740827
:1006F00082070C34C034FF3480347F341E343F34DE
:100700003F343F34FF343F34FF343F34FE343F3412
:10071000E0347F34E0347F34FE343F34FF343F3400
:10072000FF343F343F343F341E343F3480347F3411
:10073000C034FF34740882070C34FF34BF34F934FA
:100740003F34F9343F34F9343F34F3343F34E73441
:100750003F34CF343F349F343F343F343F343F3411
:100760003F3400343F3400343F34FF343F34FF34EF
:100770003F34FF343F34FF347F34740882070C3435
:1007800000343F3400343F343F343F343F347F340F
:100790003F34FF343F34FF343F34FF340034FF3400
:1007A00000347F34FE343F34FF343F34FF343F3471
:1007B0003F343F341E343F3480347F34C034FF3400
:1008000073088207080008000800080008000800B4
:100810000C2C2F2C522C752C740882070C34C034ED
:100820007F3480343F341E343F343F343F343F34D0
:10083000FF343F34FF341F34FF340034FF340034BE
:100840007F341E343F343F343F343F343F343F34F1
:100850003F341E343F3480347F34C034FF34740856
:1008600082070C3400343F3400343F343F343F348B
:100870003F343F34FF343F34FF343F34FE343F34A1
:10088000FC347F34F834FF34F134FF34E334FF3484
:10089000E734FF34E734FF34E734FF34E734FF3420
:1008A000E734FF34740882070C34C034FF348034DA
:1008B0007F341E343F343F343F343F343F341E34A2
:1008C0003F3480347F3480347F341E343F343F34AF
:1008D0003F343F343F343F343F343F343F341E34A1
:1008E0003F3480347F34C034FF34740882070C34C2
:1008F000C034FF3480347F341E343F343F343F34BF
:100900003F343F343F343F341E343F3480343F342F
:10091000C0343F34FE343F34FF343F34FF343F347F
:100920003F343F341E343F3480347F34C034FF348E
:1009300008000030F4002B088207A12C002D8A0A41
:10094000032D01308A00AE21F500F40A5F308400E7
:10095000B5245E308400B5245D308400B5245C305D
:100960008400B52400308A0008000430EC00013017
:100970008A00AE21800010308402F40AEC0BB72C00
:0209800008006D
:100A000000308A00080003308A000023F500F40A51
:100A100003308A000023DF00F40A03308A00002339
:100A2000E300F40A03308A000023CF00F40A033005
:100A30008A000023D300F40A03308A000023BF0099
:100A4000F40A03308A000023C300F40A03308A004A
:100A50000023AF00F40A03308A000023B300F40A35
:100A600003308A000023DE00F40A03308A000023EA
:100A7000E200F40A03308A000023CE00F40A0330B7
:100A80008A000023D200F40A03308A000023BE004B
:100A9000F40A03308A000023C200F40A03308A00FB
:100AA0000023AE00F40A03308A000023B200F40AE7
:100AB00003308A000023DD00F40A03308A0000239B
:100AC000E100F40A03308A000023CD00F40A033069
:100AD0008A000023D100F40A03308A000023BD00FD
:100AE000F40A03308A000023C100F40A03308A00AC
:100AF0000023AD00F40A03308A000023B100F40A99
:100B000003308A000023DC00F40A03308A0000234B
:100B1000E000F40A03308A000023CC00F40A03301A
:100B20008A000023D000F40A03308A000023BC00AE
:100B3000F40A03308A000023C000F40A03308A005C
:100B40000023AC00F40A03308A000023B000F40A4A
:060B500000308A000800DD
:100C00006F0882070800B02EB02EB02EB02EB02E86
:100C1000B02EB02EB02E6E2E6E2E6E2E6E2E6E2E2E
:100C20006E2E6E2E6E2E1C2E1C2E1C2E1C2E1C2E7E
:100C30001C2E1C2E1C2E1C2E6F08ED000130F20005
:100C40007708720203194A2E0314DF0CE30CE70C39
:100C5000EB0CCF0CD30CD70CDB0CBF0CC30CC70CAC
:100C6000CB0CAF0CB30CB70CBB0CDE0CE20CE60CDF
:100C7000EA0CCE0CD20CD60CDA0CBE0CC20CC60C94
:100C8000CA0CAE0CB20CB60CBA0CED0B242E6F08CD
:100C9000ED0008000314DD0CE10CE50CE90CCD0CB3
:100CA000D10CD50CD90CBD0CC10CC50CC90CAD0CAC
:100CB000B10CB50CB90CDC0CE00CE40CE80CCC0C61
:100CC000D00CD40CD80CBC0CC00CC40CC80CAC0C94
:100CD000B00CB40CB80CED0B4B2E08006F08ED00F7
:100CE0000130F200770872020319952E0314DF0C0D
:100CF000E30CE70CCF0CD30CD70CBF0CC30CC70C08
:100D0000AF0CB30CB70CDE0CE20CE60CCE0CD20C24
:100D1000D60CBE0CC20CC60CAE0CB20CB60CED0B55
:100D2000762E6F08ED0008000314DD0CE10CE50CD5
:100D3000CD0CD10CD50CBD0CC10CC50CAD0CB10C3F
:100D4000B50CDC0CE00CE40CCC0CD00CD40CBC0CC2
:100D5000C00CC40CAC0CB00CB40CED0B952E080000
:100D60006F08ED000130F200770872020319CF2EF0
:100D70000314DF0CE30CCF0CD30CBF0CC30CAF0C73
:100D8000B30CDE0CE20CCE0CD20CBE0CC20CAE0CC2
:100D9000B20CED0BB82E6F08ED0008000314DD0C4B
:100DA000E10CCD0CD10CBD0CC10CAD0CB10CDC0CAC
:100DB000E00CCC0CD00CBC0CC00CAC0CB00CED0B93
:0A0DC000CF2E08000000000008001C
:100E00000130F2007708720203195F2FFF30AA0049
:100E10006D08EE000314E30DAA0DEE0B0A2F2A084D
:100E2000DF056D08EE00FF30AA000314D30DAA0DF4
:100E3000EE0B152F2A08CF056D08EE00FF30AA0033
:100E40000314C30DAA0DEE0B202F2A08BF056D0851
:100E5000EE00FF30AA000314B30DAA0DEE0B2B2FEA
:100E60002A08AF056D08EE00FF30AA000314E20D5A
:100E7000AA0DEE0B362F2A08DE056D08EE00FF30B6
:100E8000AA000314D20DAA0DEE0B412F2A08CE059D
:100E90006D08EE00FF30AA000314C20DAA0DEE0B80
:100EA0004C2F2A08BE056D08EE00FF30AA0003147F
:100EB000B20DAA0DEE0B572F2A08AE0508006D08DB
:100EC000EE00FF30AA000314E10DAA0DEE0B632F14
:0E0ED0002A08DD056D08EE00FF30AA008A0A30
:101000000314D10DAA0DEE0B00282A08CD056D089A
:10101000EE00FF30AA000314C10DAA0DEE0B0B2841
:101020002A08BD056D08EE00FF30AA000314B10DBB
:10103000AA0DEE0B16282A08AD056D08EE00FF304C
:10104000AA000314E00DAA0DEE0B21282A08DC05E6
:101050006D08EE00FF30AA000314D00DAA0DEE0BB0
:101060002C282A08CC056D08EE00FF30AA000314D6
:10107000C00DAA0DEE0B37282A08BC056D08EE003E
:10108000FF30AA000314B00DAA0DEE0B42282A0867
:10109000AC050800770872020319A7286D08EE0056
:1010A000FF30AA000314E70DAA0DEE0B52282A0800
:1010B000E3056D08EE00FF30AA000314D70DAA0D5A
:1010C000EE0B5D282A08D3056D08EE00FF30AA005C
:1010D0000314C70DAA0DEE0B68282A08C3056D0876
:1010E000EE00FF30AA000314B70DAA0DEE0B732813
:1010F0002A08B3056D08EE00FF30AA000314E60DC0
:10110000AA0DEE0B7E282A08E2056D08EE00FF30DE
:10111000AA000314D60DAA0DEE0B89282A08D205C1
:101120006D08EE00FF30AA000314C60DAA0DEE0BE9
:1011300094282A08C2056D08EE00FF30AA000314A7
:10114000B60DAA0DEE0B9F282A08B20508006D08FF
:10115000EE00FF30AA000314E50DAA0DEE0BAB283C
:101160002A08E1056D08EE00FF30AA000314D50D32
:10117000AA0DEE0BB6282A08D1056D08EE00FF3047
:10118000AA000314C50DAA0DEE0BC1282A08C1053B
:101190006D08EE00FF30AA000314B50DAA0DEE0B8A
:1011A000CC282A08B1056D08EE00FF30AA00031410
:1011B000E40DAA0DEE0BD7282A08E0056D08EE0015
:1011C000FF30AA000314D40DAA0DEE0BE2282A0862
:1011D000D0056D08EE00FF30AA000314C40DAA0D5F
:1011E000EE0BED282A08C0056D08EE00FF30AA00BE
:1011F0000314B40DAA0DEE0BF8282A08B005080058
:101200007708720203195D296D08EE00FF30AA000D
:101210000314EB0DAA0DEE0B08292A08E7056D084B
:10122000EE00FF30AA000314DB0DAA0DEE0B13290C
:101230002A08D7056D08EE00FF30AA000314CB0D75
:10124000AA0DEE0B1E292A08C7056D08EE00FF3017
:10125000AA000314BB0DAA0DEE0B29292A08B70515
:101260006D08EE00FF30AA000314EA0DAA0DEE0B84
:1012700034292A08E6056D08EE00FF30AA000314A1
:10128000DA0DAA0DEE0B3F292A08D6056D08EE00EF
:10129000FF30AA000314CA0DAA0DEE0B4A292A0832
:1012A000C6056D08EE00FF30AA000314BA0DAA0DA2
:1012B000EE0B55292A08B60508006D08EE00FF3030
:1012C000AA000314E90DAA0DEE0B61292A08E50511
:1012D0006D08EE00FF30AA000314D90DAA0DEE0B25
:1012E0006C292A08D5056D08EE00FF30AA0003140A
:1012F000C90DAA0DEE0B77292A08C5056D08EE0069
:10130000FF30AA000314B90DAA0DEE0B82292A089A
:10131000B5056D08EE00FF30AA000314E80DAA0D14
:10132000EE0B8D292A08E4056D08EE00FF30AA00B7
:101330000314D80DAA0DEE0B98292A08D4056D08C0
:10134000EE00FF30AA000314C80DAA0DEE0BA3296E
:101350002A08C4056D08EE00FF30AA000314B80D7A
:10136000AA0DEE0BAE292A08B4050800700803196F
:101370000800831203137008EC005F08AA004F08EE
:10138000DF003F08CF002F08BF005E08AF004E0807
:10139000DE003E08CE002E08BE005D08AE004D08FF
:1013A000DD003D08CD002D08BD005C08AD004C08F7
:1013B000DC003C08CC002C08BC00FF30AC00EC0B7F
:1013C000BD290230F2002B087202031D08000A300A
:0A13D0008A00522209308A0008004A
:101400000030F400831203132B0882070A2A222AD1
:101410008A0A002B8316031301308A00AE21E100F3
:10142000F40AD3308400B524D2308400B524D130FE
:101430008400B524D0308400B52400308A008312A3
:101440000313080000308A008312031308000430DD
:101450008A00992409308A00B6210030F70006304E
:101460008A00002600308A000130F70006308A002A
:10147000002600308A0008000A308A000022831605
:1014800003130030E6000D308A00002500308A008A
:10149000831603130130E6000D308A00002500306A
:1014A0008A000800831203137008EC006308F90037
:1014B0005308E3004308D3003308C3006208B300B5
:1014C0005208E2004208D2003208C2006108B200AD
:1014D0005108E1004108D1003108C1006008B100A5
:1014E0005008E0004008D0003008C000FF30B000D5
:0614F000EC0B562A080077
:1016000003308A00002383160313E10083120313BF
:10161000F40A03308A00002383160313D3008312D5
:101620000313F40A03308A00002383160313D70040
:1016300083120313F40A03308A0000238316031372
:10164000C30083120313F40A03308A0000238316B5
:101650000313C70083120313F40A03308A00002324
:1016600083160313B30083120313F40A03308A00B2
:10167000002383160313B70083120313F40A033005
:101680008A00002383160313A30083120313F40AB2
:1016900003308A00002383160313A7008312031369
:1016A000F40A03308A00002383160313D200831246
:1016B0000313F40A03308A00002383160313D600B1
:1016C00083120313F40A03308A00002383160313E2
:1016D000C20083120313F40A03308A000023831626
:1016E0000313C60083120313F40A03308A00002395
:1016F00083160313B20083120313F40A03308A0023
:10170000002383160313B60083120313F40A033075
:101710008A00002383160313A20083120313F40A22
:1017200003308A00002383160313A60083120313D9
:10173000F40A03308A00002383160313D1008312B6
:101740000313F40A03308A00002383160313D50021
:1017500083120313F40A03308A0000238316031351
:10176000C10083120313F40A03308A000023831696
:101770000313C50083120313F40A03308A00002305
:1017800083160313B10083120313F40A03308A0093
:10179000002383160313B50083120313F40A0330E6
:1017A0008A00002383160313A10083120313F40A93
:1017B00003308A00002383160313A500831203134A
:1017C000F40A03308A00002383160313D000831227
:1017D0000313F40A03308A00002383160313D40092
:1017E00083120313F40A03308A00002383160313C1
:1017F000C00083120313F40A03308A000023831607
:101800000313C40083120313F40A03308A00002375
:1018100083160313B00083120313F40A03308A0003
:10182000002383160313B40083120313F40A033056
:101830008A00002383160313A00083120313F40A03
:1018400003308A00002383160313A40083120313BA
:10185000F40A00308A008312031308008312031372
:101860003C08AC004C08BC005C08CC002D08DC0037
:101870003D08AD004D08BD005D08CD002E08DD001F
:101880003E08AE004E08BE005E08CE002F08DE0007
:101890003F08AF004F08BF005F08CF002A08DF00F5
:1018A0000800831203134008B0005008C00060080D
:1018B000D0003108E0004108B1005108C1006108C2
:1018C000D1003208E1004208B2005208C2006208AA
:1018D000D2003308E2004308B3005308C300630892
:1018E000D3007908E3000800831203134408B4000E
:1018F0005408C4006408D4003508E4004508B50065
:101900005508C5006508D5003608E5004608B6004C
:101910005608C6006608D6003708E6004708B70034
:101920005708C7006708D7007A08E7000800831245
:1019300003134808B8005808C8006808D8003908D8
:10194000E8004908B9005908C9006908D9003A08EF
:10195000E9004A08BA005A08CA006A08DA003B08D7
:10196000EA004B08BB005B08CB006B08DB007B0880
:04197000EB00080080
:101A000083160313640882070800B12DB12DB12D90
:101A1000B12DB12DB12DB12DB12D6F2D6F2D6F2D9C
:101A20006F2D6F2D6F2D6F2D6F2D1D2D1D2D1D2DCC
:101A30001D2D1D2D1D2D1D2D1D2D6408E5000130B2
:101A4000E3006608630203194B2D0314D30CD70C73
:101A5000DB0CDF0CC30CC70CCB0CCF0CB30CB70CDE
:101A6000BB0CBF0CA30CA70CAB0CAF0CD20CD60C50
:101A7000DA0CDE0CC20CC60CCA0CCE0CB20CB60CC6
:101A8000BA0CBE0CA20CA60CAA0CAE0CE50B252DB4
:101A90006408E50008000314D10CD50CD90CDD0C4A
:101AA000C10CC50CC90CCD0CB10CB50CB90CBD0CDE
:101AB000A10CA50CA90CAD0CD00CD40CD80CDC0CD2
:101AC000C00CC40CC80CCC0CB00CB40CB80CBC0CC6
:101AD000A00CA40CA80CAC0CE50B4C2D0800640861
:101AE000E5000130E300660863020319962D031434
:101AF000D30CD70CDB0CC30CC70CCB0CB30CB70C42
:101B0000BB0CA30CA70CAB0CD20CD60CDA0CC20C81
:101B1000C60CCA0CB20CB60CBA0CA20CA60CAA0CC1
:101B2000E50B772D6408E50008000314D10CD50CF3
:101B3000D90CC10CC50CC90CB10CB50CB90CA10C5D
:101B4000A50CA90CD00CD40CD80CC00CC40CC80C1F
:101B5000B00CB40CB80CA00CA40CA80CE50B962D82
:101B600008006408E5000130E30066086302031919
:101B7000D02D0314D30CD70CC30CC70CB30CB70C6B
:101B8000A30CA70CD20CD60CC20CC60CB20CB60C13
:101B9000A20CA60CE50BB92D6408E500080003149F
:101BA000D10CD50CC10CC50CB10CB50CA10CA50CFD
:101BB000D00CD40CC00CC40CB00CB40CA00CA40CF5
:0C1BC000E50BD02D08000000000008001C
:101C000083160313200883120313AA0083160313F9
:101C10003008A0004008B0005008C0002108D000E3
:101C20003108A1004108B1005108C1002208D100CB
:101C30003208A2004208B2005208C2002308D200B3
:101C40003308A3004308B3005308C30008008316F9
:101C50000313240883120313F900831603133408B3
:101C6000A4004408B4005408C4002508D400350872
:101C7000A5004508B5005508C5002608D50036085A
:101C8000A6004608B6005608C6002708D600370842
:101C9000A7004708B7005708C700080083160313BA
:101CA000280883120313FA00831603133808A800C8
:101CB0004808B8005808C8002908D8003908A90001
:101CC0004908B9005908C9002A08D9003A08AA00E9
:101CD0004A08BA005A08CA002B08DA003B08AB00D1
:101CE0004B08BB005B08CB000800831603132C08CD
:101CF00083120313FB00831603133C08AC004C084B
:101D0000BC005C08CC002D08DC003D08AD004D088F
:101D1000BD005D08CD002E08DD003E08AE004E0877
:101D2000BE005E08CE002F08DE003F08AF004F085F
:101D3000BF005F08CF0008000E308A0000260C307C
:101D40008A002E2400308A0008000E308A002726E0
:101D50000C308A00512400308A0008000E308A00BE
:101D60004E260C308A00742400308A0008000E30A1
:101D70008A0075260C308A00972400308A000800FB
:02400E00C230BE
:084200000100020003000400AC
:00000001FF
