:02000000A9292C
:08000800FF00030E8312031335
:10001000B9000A0EBA00040EBB008A110A12D829D0
:100020000330DC07DC0CDC0C7F30DC050000DC0B73
:1000300016280800FF30D600D701D801D901DA010F
:10004000DB01550A031D26280130D900DA08031DFB
:100050004828D908031D3F28D508031D3228013040
:10006000DA003F280A30DC001020570AD700570872
:10007000643A031D3F285503D5006400D7012030A2
:100080000C05D800D808031926280230DA002628E3
:100090005A08023A031D622804301805D800D8080F
:1000A000031955281A08DB00622802301805D80009
:1000B000D80803195E28181218166228D6011A08E3
:1000C0005604D6005608DC00DD0108008312031335
:1000D0004D08013A03198828033A03198B28013A7D
:1000E00003198E28073A03199128013A0319942815
:1000F000033A03199728013A03199A280F3A03196A
:100100009D28013A0319A028093A0319A3280800D9
:100110003030CA0008005B30CA0008007930CA00DD
:1001200008007430CA0008006D30CA0008006F3043
:10013000CA0008003830CA0008007F30CA00080032
:100140007D30CA0008003F30CA0008005408D500BE
:100150001A205C08D6005D08D70008008316031338
:10016000181519309900831298019817831698165C
:100170008312181683168C120800831203134C087E
:10018000CD006620D1010830510203180429013046
:100190004A05D400D501D408031D5514491055084B
:1001A000031D4914FB308316070587008312491C81
:1001B000E028FB300705D400043054048700E3280E
:1001C000FB30070587000130DC001020FE3083166D
:1001D00007058700FE3083120705D4000130540460
:1001E00087000130DC001020FE30831607058700F1
:1001F000FE308312070587000130DC001020CA089A
:100200000310CA0CD10AC3284F08CD006620D201C2
:10021000083052020318492901304A05D400D5019B
:10022000D408031D551449105508031D4914FB300B
:100230008316070587008312491C2529FB30070513
:10024000D4000430540487002829FB3007058700B8
:100250000130DC001020FE30831607058700FE30D9
:1002600083120705D4000130540487000130DC00FC
:100270001020FE30831607058700FE308312070525
:1002800087000130DC001020CA080310CA0CD20A13
:100290000829FD30831607058700FD308312070506
:1002A000D4000230540487000130DC001020FD30FF
:1002B000831607058700FD3083120705870001308C
:1002C000DC001020080083120313D3010330530213
:1002D00003187A291930D400A6205608C7008313C2
:1002E000203084005008840747088000500AD0005E
:1002F000D30A662921086F3A031D82292008CF00FE
:100300002208CC00D0010800831203179E019F0130
:10031000AE20C0308100FE3007058700FE3083121A
:1003200007058700FD30831607058700FD3083121F
:10033000070587000930CC00CF00BD201930D4005C
:10034000A6205608C7004708743A03196321BD2048
:100350009E29D53083120313A500C430A600BB30FC
:10036000A700DC30A800A901AA01AB01AC01AD01D6
:10037000AE01AF01B001B101B201B301B401C101DD
:10038000C201BC01BD01C301C401C501C601B50163
:10039000B601B701B801BF01C001BE01C8014910D3
:1003A000CB01CC01CE01CF01D0018A110A128429E0
:1003B000831203133B0E84003A0E8A00390E830029
:0603C000FF0E7F0E090094
:02400E00D430AC
:00000001FF
