:02000000C7290E
:08000800FF00030E8312031335
:10001000B4000A0EB500040EB6008A110A12F229C5
:100020000330CA07CA0CCA0C7F30CA050000CA0BCD
:1000300016280800CA08031D1E280800F930FF3ED4
:10004000031D1F280000CA0B1E280800FA30CA0032
:100050001A20FA30CA001A20FA30CA001A20FA30E0
:10006000CA001A20C90B262808000800DF308316B2
:10007000031307058700DF3083120705CA0020300D
:100080004A0487000F30CA001020DF3083160705AE
:100090008700DF308312070587000F30CA00102069
:1000A000080083120313C9014218C90AC908031DB5
:1000B000080004308316050485000430831205050A
:1000C000CA00CB0104304A020319CB0A42104B0884
:1000D000031D4214512883160313071283120712BB
:1000E00008008316031307128312071608008316ED
:1000F00003138712831287120800831603138712D3
:10010000831287160800831203179E019F01C030D7
:1001100083160313810001178B170B1664308312AB
:10012000CA001A20630051204214C210C301C40146
:10013000C2184629C601053046020318B0287D20A2
:100140006B20FF30CA001A202D30CA001A207720F9
:10015000FF30CA001A202D30CA001A20C60A9B2878
:10016000831601178B170B1663007D200130C90021
:10017000262004308316050485000430831205050B
:10018000C900CA01043049020319CA0A42104A08C8
:10019000031D421442189A28C7010F304702031862
:1001A0009A2842180B290430831605048500043070
:1001B00083120505C900CA01043049020319CA0A9D
:1001C00042104A08031D421440308316060486007C
:1001D000403083120605C900CA01403049020319A4
:1001E000CA0A42114A08031D4215421D00297D20FA
:1001F000712051200130CA001A2077206B200D2970
:1002000077207120C830CA001A207D206B20C830AA
:10021000CA001A20D128C70ACD28C8010A304802CE
:1002200003181E297D206B206430CA001A20772015
:1002300071206430CA001A20C80A0E297D2071205E
:100240000130C900262077206B20831601178B17F9
:100250000B1663004030060486004030831206050A
:10026000C900CA01403049020319CA0A42114A08AA
:10027000031D421542190D29C21471200230C90014
:10028000262051206B20C301C401982840308316DA
:1002900006048600403083120605C900CA014030BA
:1002A00049020319CA0A42114A08031D421542199C
:1002B0000D290430831605048500043083120505DA
:1002C000C900CA01043049020319CA0A42104A0887
:1002D000031D42144218AD2971200230C9002620A6
:1002E0000430831605048500043083120505C90017
:1002F000CA01043049020319CA0A42104A08031D00
:1003000042144218AB297D200130C90026207720F5
:100310006B205120831601178B170B1603308312A5
:10032000C90026207D206430CA001A20772063008F
:10033000C5010A3045020318A72971206430CA009C
:100340001A206B206430CA001A20C50A992951204E
:10035000C301C40198286B2098280B12C901421CC4
:10036000C90AC908031D98283620043083160504DD
:100370008500043083120505CA00CB0104304A020F
:100380000319CB0A42104B08031D4214AE29D53085
:1003900083120313A000C430A100BB30A200DC30E4
:1003A000A300A401A501A601A701A801A901AA0112
:1003B000AB01AC01AD01AE01AF01BC01BD01B701A4
:1003C000B801BE01BF01C001C101B001B101B2015C
:1003D000B301BA01BB01B901C301C40142118A11C1
:1003E0000A1283288B1CF8290B1EF82935208B1044
:1003F00083120313360E8400350E8A00340E8300F8
:06040000FF0E7F0E090053
:02400E00F43389
:00000001FF
