:02000000602876
:08000800FF00030E8312031335
:10001000A0000A0EA100040EA2008A110A12632891
:10002000A408031D14280800F5300000000000009B
:1000300000000000000000000000000000000000C0
:1000400000000000000000000000FF3E031D152816
:1000500000000000000000000000000000000000A0
:1000600000000000000000000000A40B142808009D
:100070008316981683120C1E3A282408990008004B
:100080000730831603139F00043098007F309900D7
:10009000831298019817C03083168100FF308316B1
:1000A0000604860083120608A300A40038208316E5
:1000B00088018312230888006430A40010204E2891
:1000C0008A110A12402883120313220E8400210E83
:0C00D0008A00200E8300FF0E7F0E090046
:02400E003A3F37
:00000001FF