:020000040000FA
:0400000019EF00F004
:0600080054EC29F0100089
:080018001000D8CF6DF1E8CF14
:100020006CF1E0CF6EF16EC1E0FF6CC1E8FF6DC115
:10003000D8FF806A896A070EC16E076EB46ECF0E54
:10004000926E816A8A6A0F0EC16E000E936E836A89
:100050008C6A000E956E846A8D6A0A0EC16E070E58
:10006000966E826A8B6A800E946E0F01C00EF26EDD
:10007000200E9D6E000EA06E9F6EA26E050EB06EDD
:10008000FF0EAF6EB886240EAC6E800EAB6EAB88E2
:1000900001018C8E8C9A8C9CB9EC00F0C8EC00F0BD
:1000A00020EC01F0020E526F040E536F010E556FDB
:1000B000000E566F000E576F000E586F000E596FEE
:1000C000060E5A6F010E5B6F0A0E5C6F0A0E5D6FB3
:1000D000000E5E6F0A0E5F6F0A0E606F000E616F9A
:1000E000000E646F000E656F000E676FA4EC2AF0BF
:1000F000A4EC2AF0A4EC2AF0AA0E686F000EA86FF8
:10010000000EA96F8C94F29ED7EC00F084EF00F003
:1001100068C1ADFFACA28AEF00F090EC00F01200D5
:10012000006F0000000000000000002F91EF00F0C1
:100130001200050E056FC80E90EC00F0052F9BEF26
:1001400000F01200016F99EC00F0012FA3EF00F016
:100150001200050E036FC80EA2EC00F0032FABEFE8
:1001600000F01200046FA9EC00F0042FB3EF00F0D0
:1001700012000101FF0E0B6F020EEA6E000EE96E17
:10018000FF0EEF6EE92A0B2FC1EF00F0EF6E1200A9
:1001900001011F0E0B6F010EEA6E200EE96EFF0EBD
:1001A000EF6EE92A0B2FD0EF00F0EF6E1200000E79
:1001B0000D6FB9EC00F02BEC29F000EC28F0980E54
:1001C000116F20EC01F08C9E8C8A8C9A8C908C9212
:1001D0008C8E040E0D6FB9EC00F02BEC29F000ECC6
:1001E00028F0900E116F20EC01F08C9E8C8A8C9A76
:1001F0008C808C928C8E060E0D6FB9EC00F02BEC7F
:1002000029F000EC28F0880E116F20EC01F08C9E94
:100210008C8A8C9A8C908C828C8E0C0E0D6FB9EC23
:1002200000F02BEC29F000EC28F0800E116F20EC90
:1002300001F08C9E8C8A8C9A8C808C828C8E120021
:10024000020EEA6E11C1E9FF39EC01F0040E11272C
:1002500011C1E9FF39EC01F0840E115F11C1E9FF12
:1002600039EC01F0040E112711C1E9FF39EC01F05E
:100270001200040E186F040E066F080E076FEFCF02
:100280000CF10C37D8A047EF01F04AEF01F08C9841
:100290004EEF01F08C884EEF01F000008C8C8C9CAE
:1002A000072F41EF01F0200EE926062F3DEF01F068
:1002B000800EE926E92A182F3BEF01F01200000E0C
:1002C000FB6E030EFA6E0FC16CF1D8906C37020E04
:0A02D0006C276CC1E8FF80EF01F01D
:100300000FC1E8FFD890E834D890E834F9268DEF93
:1003100001F0A7EF01F0C1EF01F0010EE26E200E37
:10032000E16E000E0A6F200E086F80EC0FF0E8CF30
:10033000E7FFE12A0A2B082F95EF01F0F8EC01F016
:10034000ABEC02F0DCEC01F0C8EC00F01200010EA6
:10035000E26E200EE16E000E0A6F200E086F80EC38
:100360000EF0E8CFE7FFE12A0A2B082FAFEF01F0EC
:10037000F8EC01F0ABEC02F0DCEC01F0C8EC00F0C2
:100380001200010EE26E200EE16E000E0A6F200ECA
:10039000086F00EC0FF0E8CFE7FFE12A0A2B082FE7
:1003A000C9EF01F0F8EC01F0ABEC02F0DCEC01F08D
:1003B000C8EC00F012001200200E0B6F010EE26E6E
:1003C0003E0EE16E020EEA6E10C1E9FF100E086FDC
:1003D000E7CFE8FFEF16E12AE92AE7CFE8FFEF16BB
:1003E000030EE15E070EE926082FE8EF01F0120088
:1003F00012C16CF1080E6C6500EF02F007EF02F01D
:10040000000E106F12C109F177EC02F0120012C158
:100410006CF1100E6C650FEF02F018EF02F0010E98
:10042000106F12C109F1080E095F77EC02F012009B
:1004300012C16CF1180E6C6520EF02F029EF02F08A
:10044000020E106F12C109F1100E095F77EC02F075
:10045000120012C16CF1200E6C6531EF02F03AEF20
:1004600002F0030E106F12C109F1180E095F77EC4C
:1004700002F0120012C16CF1280E6C6542EF02F01E
:100480004BEF02F0040E106F12C109F1200E095F4C
:1004900077EC02F0120012C16CF1300E6C6553EF74
:1004A00002F05CEF02F0050E106F12C109F1280E88
:1004B000095F77EC02F0120012C16CF1380E6C6526
:1004C00064EF02F06DEF02F0060E106F12C109F139
:1004D000300E095F77EC02F01200070E106F12C1A8
:1004E00009F1380E095F77EC02F012001200D88093
:1004F00020332133D88022332333D880243325334B
:10050000D88026332733D88028332933D8802A331C
:100510002B33D8802C332D33D8802E332F33D880F3
:1005200030333133D88032333333D88034333533BA
:10053000D88036333733D88038333933D8803A339C
:100540003B33D8803C333D33D8803E333F33092F93
:1005500077EF02F0120013C16CF1000E6C63B2EF82
:1005600002F0120013C105F1080E1027052FB4EF99
:0405700002F0120083
:101D0000000EFB6E1D0EFA6E0EC16CF1000E6C63C0
:101D10008CEF0EF092EF0EF00EC1E8FFD890E83491
:101D2000D890E834F92629EF10F0A9EF10F029EF48
:101D300011F0A9EF11F029EF12F0A9EF12F029EF3D
:101D400013F0A9EF13F029EF14F0A9EF14F029EF25
:101D500015F080EF15F000EF16F080EF16F000EFB1
:101D600017F080EF17F000EF18F080EF18F000EF99
:021D700019F068
:101E0000000EFB6E1E0EFA6E0EC16CF1000E6C63BE
:101E10000CEF0FF012EF0FF00EC1E8FFD890E8348E
:101E2000D890E834F92600EF20F080EF20F000EFA2
:101E300021F080EF21F000EF22F080EF22F000EFA0
:101E400023F080EF23F000EF24F080EF24F000EF88
:061E500025F080EF25F0F3
:101F0000000EFB6E1F0EFA6E0EC16CF1000E6C63BC
:101F10008CEF0FF092EF0FF00EC1E8FFD890E8348D
:101F2000D890E834F92600EF10F080EF10F000EFC1
:101F300011F080EF11F000EF12F080EF12F000EFDF
:101F400013F080EF13F000EF14F080EF14F000EFC7
:021F500015F08A
:10200000000EFB6E200EFA6E0AC1E8FFD890E8368B
:10201000F9268F0CFF0C770CFF0C770CFF0C770C5C
:10202000FF0C770CFF0C770CFF0C8F0CFF0CFF0CD8
:10203000FF0CFF0CFF0CFF0CFF0CFF0CFF0CFF0C48
:10204000FF0CFF0CFF0CFF0CFF0CFF0CFF0CFF0C38
:10205000FF0C000EFB6E200EFA6E0AC1E8FFD8904E
:10206000E836F926FF0CFF0CFF0CFF0CFF0CFF0CF1
:10207000FF0CFF0CFF0CFF0CFF0CFF0C870CFF0C80
:102080007B0CFF0C7B0CFF0C7B0CFF0C7B0CFF0C08
:102090007B0CFF0C7B0CFF0C7B0CFF0C7B0CFF0CF8
:0420A000870CFF0C9E
:10210000000EFB6E210EFA6E0AC1E8FFD890E83689
:10211000F926BF0CFF0C3F0CFF0CBF0CFF0CBF0CD3
:10212000FF0CBF0CFF0CBF0CFF0C1F0CFF0CFF0CB7
:10213000FF0CFF0CFF0CFF0CFF0CFF0CFF0CFF0C47
:10214000FF0CFF0CFF0CFF0CFF0CFF0CFF0CFF0C37
:10215000FF0C000EFB6E210EFA6E0AC1E8FFD8904C
:10216000E836F926FF0CFF0CFF0CFF0CFF0CFF0CF0
:10217000FF0CFF0CFF0CFF0CFF0CFF0CDF0CFF0C27
:102180009F0CFF0CDF0CFF0CDF0CFF0CDF0CFF0CB7
:10219000DF0CFF0CDF0CFF0CDF0CFF0CDF0CFF0C67
:0421A0008F0CFF0C95
:10220000000EFB6E220EFA6E0AC1E8FFD890E83687
:10221000F9268F0CFF0C770CFF0CF70CFF0C8F0CC2
:10222000FF0C7F0CFF0C770CFF0C070CFF0CFF0C56
:10223000FF0CFF0CFF0CFF0CFF0CFF0CFF0CFF0C46
:10224000FF0CFF0CFF0CFF0CFF0CFF0CFF0CFF0C36
:10225000FF0C000EFB6E220EFA6E0AC1E8FFD8904A
:10226000E836F926FF0CFF0CFF0CFF0CFF0CFF0CEF
:10227000FF0CFF0CFF0CFF0CFF0CFF0C870CFF0C7E
:102280007B0CFF0CFB0CFF0CFB0CFF0CFB0CFF0C86
:10229000870CFF0C7F0CFF0C7F0CFF0C7B0CFF0CE2
:0422A000030CFF0C20
:10230000000EFB6E230EFA6E0AC1E8FFD890E83685
:10231000F9268F0CFF0C770CFF0CF70CFF0C8F0CC1
:10232000FF0CF70CFF0C770CFF0C8F0CFF0CFF0C55
:10233000FF0CFF0CFF0CFF0CFF0CFF0CFF0CFF0C45
:10234000FF0CFF0CFF0CFF0CFF0CFF0CFF0CFF0C35
:10235000FF0C000EFB6E230EFA6E0AC1E8FFD89048
:10236000E836F926FF0CFF0CFF0CFF0CFF0CFF0CEE
:10237000FF0CFF0CFF0CFF0CFF0CFF0C870CFF0C7D
:102380007B0CFF0CFB0CFF0CFB0CFF0CFB0CFF0C85
:10239000870CFF0CFB0CFF0CFB0CFF0C7B0CFF0CE9
:0423A000870CFF0C9B
:10240000000EFB6E240EFA6E0AC1E8FFD890E83683
:10241000F926EF0CFF0CCF0CFF0CAF0CFF0C6F0C70
:10242000FF0C070CFF0CEF0CFF0CEF0CFF0CFF0C6C
:10243000FF0CFF0CFF0CFF0CFF0CFF0CFF0CFF0C44
:10244000FF0CFF0CFF0CFF0CFF0CFF0CFF0CFF0C34
:10245000FF0C000EFB6E240EFA6E0AC1E8FFD89046
:10246000E836F926FF0CFF0CFF0CFF0CFF0CFF0CED
:10247000FF0CFF0CFF0CFF0CFF0CFF0CFB0CFF0C08
:10248000DB0CFF0CDB0CFF0CBB0CFF0C7B0CFF0C04
:10249000030CFF0CFB0CFF0CFB0CFF0CFB0CFF0CEC
:0424A000FB0CFF0C26
:10250000000EFB6E250EFA6E0AC1E8FFD890E83681
:10251000F926070CFF0C7F0CFF0C7F0CFF0C0F0C37
:10252000FF0CF70CFF0CF70CFF0C0F0CFF0CFF0C53
:10253000FF0CFF0CFF0CFF0CFF0CFF0CFF0CFF0C43
:10254000FF0CFF0CFF0CFF0CFF0CFF0CFF0CFF0C33
:10255000FF0C000EFB6E250EFA6E0AC1E8FFD89044
:10256000E836F926FF0CFF0CFF0CFF0CFF0CFF0CEC
:10257000FF0CFF0CFF0CFF0CFF0CFF0C030CFF0CFF
:102580007B0CFF0C7F0CFF0C7F0CFF0C070CFF0C6F
:10259000FB0CFF0CFB0CFF0CFB0CFF0CFB0CFF0CF3
:0425A000070CFF0C19
:10260000000EFB6E260EFA6E0AC1E8FFD890E8367F
:10261000F9268F0CFF0C770CFF0C7F0CFF0C0F0CB6
:10262000FF0C770CFF0C770CFF0C8F0CFF0CFF0CD2
:10263000FF0CFF0CFF0CFF0CFF0CFF0CFF0CFF0C42
:10264000FF0CFF0CFF0CFF0CFF0CFF0CFF0CFF0C32
:10265000FF0C000EFB6E260EFA6E0AC1E8FFD89042
:10266000E836F926FF0CFF0CFF0CFF0CFF0CFF0CEB
:10267000FF0CFF0CFF0CFF0CFF0CFF0C870CFF0C7A
:102680007B0CFF0C7F0CFF0C7F0CFF0C070CFF0C6E
:102690007B0CFF0C7B0CFF0C7B0CFF0C7B0CFF0CF2
:0426A000870CFF0C98
:10270000000EFB6E270EFA6E0AC1E8FFD890E8367D
:10271000F926070CFF0CF70CFF0CEF0CFF0CDF0C7D
:10272000FF0CDF0CFF0CDF0CFF0CDF0CFF0CFF0CB1
:10273000FF0CFF0CFF0CFF0CFF0CFF0CFF0CFF0C41
:10274000FF0CFF0CFF0CFF0CFF0CFF0CFF0CFF0C31
:10275000FF0C000EFB6E270EFA6E0AC1E8FFD89040
:10276000E836F926FF0CFF0CFF0CFF0CFF0CFF0CEA
:10277000FF0CFF0CFF0CFF0CFF0CFF0C030CFF0CFD
:10278000FB0CFF0CFB0CFF0CF70CFF0CEF0CFF0C11
:10279000DF0CFF0CDF0CFF0CDF0CFF0CDF0CFF0C61
:0427A000DF0CFF0C3F
:10280000000EFB6E280EFA6E0AC1E8FFD890E8367B
:10281000F9268F0CFF0C770CFF0C770CFF0C8F0C3C
:10282000FF0C770CFF0C770CFF0C8F0CFF0CFF0CD0
:10283000FF0CFF0CFF0CFF0CFF0CFF0CFF0CFF0C40
:10284000FF0CFF0CFF0CFF0CFF0CFF0CFF0CFF0C30
:10285000FF0C000EFB6E280EFA6E0AC1E8FFD8903E
:10286000E836F926FF0CFF0CFF0CFF0CFF0CFF0CE9
:10287000FF0CFF0CFF0CFF0CFF0CFF0C870CFF0C78
:102880007B0CFF0C7B0CFF0C7B0CFF0C7B0CFF0C00
:10289000870CFF0C7B0CFF0C7B0CFF0C7B0CFF0CE4
:0428A000870CFF0C96
:10290000000EFB6E290EFA6E0AC1E8FFD890E83679
:10291000F9268F0CFF0C770CFF0C770CFF0C870C43
:10292000FF0CF70CFF0C770CFF0C8F0CFF0CFF0C4F
:10293000FF0CFF0CFF0CFF0CFF0CFF0CFF0CFF0C3F
:10294000FF0CFF0CFF0CFF0CFF0CFF0CFF0CFF0C2F
:10295000FF0C000EFB6E290EFA6E0AC1E8FFD8903C
:10296000E836F926FF0CFF0CFF0CFF0CFF0CFF0CE8
:10297000FF0CFF0CFF0CFF0CFF0CFF0C870CFF0C77
:102980007B0CFF0C7B0CFF0C7B0CFF0C7B0CFF0CFF
:10299000830CFF0CFB0CFF0CFB0CFF0C7B0CFF0CE7
:0429A000870CFF0C95
:102A0000000EFB6E2A0EFA6E0AC1E8FFD890E83677
:102A1000F9268F0CFF0C770CFF0C770CFF0C8F0C3A
:102A2000FF0CFF0CFF0C070CFF0CDF0CFF0CDF0C86
:102A3000FF0CDF0CFF0CFF0CFF0CFF0CFF0CFF0C5E
:102A4000FF0CFF0CFF0CFF0CFF0CFF0CFF0CFF0C2E
:102A5000FF0C000EFB6E2A0EFA6E0AC1E8FFD8903A
:102A6000E836F926FF0CFF0CFF0CFF0CFF0CFF0CE7
:102A7000FF0CFF0CFF0CFF0CFF0CFF0CFF0CFF0CFE
:102A8000FF0CFF0C3F0CFF0C3F0CFF0CFF0CFF0C6E
:102A9000FF0CFF0C3F0CFF0C3F0CFF0CFF0CFF0C5E
:042AA000FF0CFF0C1C
:102B0000000EFB6E2B0EFA6E0AC1E8FFD890E83675
:102B1000F926FF0CFF0CFF0CFF0CFF0CFF0CFF0C49
:102B2000FF0CFF0CFF0CFF0CFF0CFF0CFF0CFF0C4D
:102B3000FF0CFF0CFF0CFF0CFF0CFF0CFF0CFF0C3D
:102B4000FF0CFF0CFF0CFF0CFF0C3F0CFF0C3F0CAD
:022B5000FF0C78
:102C0000000EFB6E2C0EFA6E0AC1E8FFD890E83673
:102C1000F926FF0CFF0CFF0CFF0CFF0CFF0CFF0C48
:102C2000FF0CFF0CFF0CFF0CFF0CF70CFF0CE70C6C
:102C3000FF0CC70CFF0C870CFF0C070CFF0C870C5C
:102C4000FF0CC70CFF0CE70CFF0CF70CFF0CFF0C84
:022C5000FF0C77
:102D0000000EFB6E2D0EFA6E0AC1E8FFD890E83671
:102D1000F926FF0CFF0CFF0CFF0CFF0CFF0CFF0C47
:102D2000FF0CFF0CFF0CFF0CFF0C7F0CFF0C3F0C8B
:102D3000FF0C1F0CFF0C0F0CFF0C070CFF0C0F0CF3
:102D4000FF0C1F0CFF0C3F0CFF0C7F0CFF0CFF0C4B
:022D5000FF0C76
:102E0000000EFB6E2E0EFA6E0AC1E8FFD890E8366F
:102E1000F926FF0CFF0CFF0CFF0CFF0CFF0CFF0C46
:102E2000FF0CFF0CFF0CFF0CFF0CFF0CFF0CFF0C4A
:102E3000FF0CFF0CFF0CFF0CFF0CFF0CFF0CFF0C3A
:102E4000FF0CFF0CFF0CFF0CFF0C3F0CFF0C3F0CAA
:022E5000FF0C75
:102F0000000EFB6E2F0EFA6E0AC1E8FFD890E8366D
:102F1000F926FF0CFF0CFF0CFF0CFF0CFF0CFF0C45
:102F2000FF0CFF0CFF0CFF0CFF0CFF0CFF0CFF0C49
:102F3000FF0CFF0CFF0CFF0CFF0CFF0CFF0CFF0C39
:102F4000FF0CFF0CFF0CFF0CFF0C270CFF0C270CD9
:022F5000FF0C74
:10300000000EFB6E300EFA6E0AC1E8FFD890E8366B
:10301000F926FF0CFF0CFF0CFF0CFF0CFF0CFF0C44
:10302000FF0CFF0CFF0CFF0CFF0CFF0CFF0CFF0C48
:10303000FF0CFF0CFF0CFF0CFF0CFF0CFF0CFF0C38
:10304000FF0CFF0CFF0CFF0CFF0C240CFF0C240CDE
:02305000FF0C73
:10310000000EFB6E310EFA6E0AC1E8FFD890E83669
:10311000F926FF0CFF0CFF0CFF0CFF0CFF0CFF0C43
:10312000FF0CFF0CFF0CFF0CFF0CFF0CFF0CFF0C47
:10313000FF0CFF0CFF0CFF0CFF0CFF0CFF0CFF0C37
:10314000FF0CFF0CFF0CFF0CFF0C240C9F0C240C3D
:023150009F0CD2
:10320000000EFB6E320EFA6E0AC1E8FFD890E83667
:10321000F926FF0CFF0CFF0CFF0CFF0CFF0CFF0C42
:10322000FF0CFF0CFF0CFF0CFF0CFF0CFF0CFF0C46
:10323000FF0CFF0CFF0CFF0CFF0CFF0CFF0CFF0C36
:10324000FF0CFF0CFF0CFF0CFF0C000C1F0C000C04
:023250001F0C51
:10400000000EFB6E400EFA6E0AC1E8FFD890E8364B
:10401000F926C00CFF0C800C7F0C1E0C3F0C3F0CD3
:104020003F0C3F0C3F0C3F0C3F0C3F0C3F0C3F0C38
:104030003F0C3F0C3F0C3F0C3F0C3F0C3F0C3F0C28
:104040003F0C1E0C3F0C800C7F0CC00CFF0CFF0CB7
:02405000FF0C63
:10410000000EFB6E410EFA6E0AC1E8FFD890E83649
:10411000F926E70CFF0CE70CFF0CC70CFF0C870C13
:10412000FF0C270CFF0CE70CFF0CE70CFF0CE70C57
:10413000FF0CE70CFF0CE70CFF0CE70CFF0CE70C87
:10414000FF0CE70CFF0C000CFF0C000CFF0CFF0C2D
:02415000FF0C62
:10420000000EFB6E420EFA6E0AC1E8FFD890E83647
:10421000F926C00CFF0C800C7F0C3E0C3F0CFF0CF1
:104220003F0CFF0C3F0CFF0C3F0CFE0C3F0CC00C76
:104230007F0C800CFF0C1F0CFF0C3F0CFF0C3F0C85
:10424000FF0C3F0C3F0C000C3F0C000C3F0CFF0C14
:02425000FF0C61
:10430000000EFB6E430EFA6E0AC1E8FFD890E83645
:10431000F926C00CFF0C800C7F0C1E0C3F0C3F0CD0
:104320003F0CFF0C3F0CFF0C3F0CFE0C3F0CE00C55
:104330007F0CE00C7F0CFE0C3F0CFF0C3F0C3F0C85
:104340003F0C1E0C3F0C800C7F0CC00CFF0CFF0CB4
:02435000FF0C60
:10440000000EFB6E440EFA6E0AC1E8FFD890E83643
:10441000F926FF0CBF0CFD0C3F0CF90C3F0CF90CFE
:104420003F0CF30C3F0CE70C3F0CCF0C3F0C9F0CE8
:104430003F0C3F0C3F0C000C3F0C000C3F0CFF0CE2
:104440003F0CFF0C3F0CFF0C3F0CFF0C7F0CFF0CD4
:02445000FF0C5F
:10450000000EFB6E450EFA6E0AC1E8FFD890E83641
:10451000F926000C3F0C000C3F0C3F0C7F0C3F0CAD
:10452000FF0C3F0CFF0C3F0CFF0C000CFF0C000CB1
:104530007F0CFE0C3F0CFF0C3F0CFF0C3F0C3F0CA4
:104540003F0C1E0C3F0C800C7F0CC00CFF0CFF0CB2
:02455000FF0C5E
:10460000000EFB6E460EFA6E0AC1E8FFD890E8363F
:10461000F926C00C7F0C800C3F0C1E0C3F0C3F0C8D
:104620003F0C3F0CFF0C1F0CFF0C000CFF0C000C90
:104630007F0C1E0C3F0C3F0C3F0C3F0C3F0C3F0C03
:104640003F0C1E0C3F0C800C7F0CC00CFF0CFF0CB1
:02465000FF0C5D
:10470000000EFB6E470EFA6E0AC1E8FFD890E8363D
:10471000F926000C3F0C000C3F0C3F0C3F0C3F0CEB
:104720003F0CFF0C3F0CFE0C3F0CFC0C7F0CF80CFC
:10473000FF0CF10CFF0CE30CFF0CE70CFF0CE70C7B
:10474000FF0CE70CFF0CE70CFF0CE70CFF0CFF0C59
:02475000FF0C5C
:10480000000EFB6E480EFA6E0AC1E8FFD890E8363B
:10481000F926C00CFF0C800C7F0C1E0C3F0C3F0CCB
:104820003F0C3F0C3F0C1E0C3F0C800C7F0C800C8F
:104830007F0C1E0C3F0C3F0C3F0C3F0C3F0C3F0C01
:104840003F0C1E0C3F0C800C7F0CC00CFF0CFF0CAF
:02485000FF0C5B
:10490000000EFB6E490EFA6E0AC1E8FFD890E83639
:10491000F926C00CFF0C800C7F0C1E0C3F0C3F0CCA
:104920003F0C3F0C3F0C3F0C3F0C1E0C3F0C800C0F
:104930003F0CC00C3F0CFE0C3F0CFF0C3F0C3F0C1F
:104940003F0C1E0C3F0C800C7F0CC00CFF0CFF0CAE
:02495000FF0C5A
:104A0000000EFB6E4A0EFA6E0AC1E8FFD890E83637
:104A1000F926FF0CFF0CFF0CFF0CFF0CFF0CFF0C2A
:104A2000F00CFF0CE00CFF0CC00CFF0C8F0CFF0C0B
:104A30001F0CFE0C3F0CFC0C7F0CF80CFF0CF10C57
:104A4000FF0CE30CFF0CC70CFF0C8F0C800C1F0C31
:024A5000000C58
:104B0000000EFB6E4B0EFA6E0AC1E8FFD890E83635
:104B1000F926FF0C8F0CFF0C1F0CFE0C3F0C000C39
:104B20007F0C000CFF0C010CFF0CE30CFF0CC70CFE
:104B3000FF0CFF0CFF0CFF0CFF0CFF0CFF0CFF0C1D
:104B4000FF0CFF0CFF0CFF0CFF0CFF0CFF0C000C0C
:024B5000000C57
:105000002BEC29F05AA107EF28F00AEF28F08C9436
:105010000BEF28F08C84000E0F6F050E5B6313EF0F
:1050200028F00A0E5B6F5BC10EF11E0E126F010EAF
:10503000136F5FEC01F059C10EF1200E126F100ECC
:10504000136F5FEC01F0020E0F6F100E136F0A0E5C
:1050500052632DEF28F03FEF28F0010E526339EF35
:1050600028F052C10EF12B0E126F5FEC01F03FEFF2
:1050700028F052C10EF1290E126F5FEC01F00A0EFA
:10508000536345EF28F04BEF28F053C10EF1350E76
:10509000126F5FEC01F0010E0F6F0D0E136F000E1B
:1050A000626355EF28F05DEF28F062C10EF10D0E3E
:1050B0000E27010E126F5FEC01F0000E636363EFC9
:1050C00028F07EEF28F0050E636369EF28F074EF97
:1050D00028F0400E126F63C105F1030E125F052F19
:1050E0006DEF28F076EF28F0340E126F0C0E136F70
:1050F00063C10EF10D0E0E275FEC01F0160E136F5B
:105100000A0E556386EF28F092EF28F0000E5563E3
:105110008CEF28F092EF28F055C10EF1010E126FBE
:105120005FEC01F00A0E566398EF28F09EEF28F02E
:1051300056C10EF1050E126F5FEC01F00A0E0E6FF4
:105140000C0E126F5FEC01F00A0E5763AAEF28F005
:10515000B0EF28F057C10EF10F0E126F5FEC01F0A7
:105160000A0E5863B6EF28F0BCEF28F058C10EF1D4
:10517000160E126F5FEC01F00B0E0E6F1D0E126F0C
:105180005FEC01F0010E0F6F000E136F0A0E5F63EC
:10519000CCEF28F0D2EF28F05FC10EF12D0E126F88
:1051A0005FEC01F00A0E6063D8EF28F0DEEF28F024
:1051B00060C10EF1320E126F5FEC01F00A0E6163F6
:1051C000E4EF28F0EAEF28F061C10EF1390E126F1A
:1051D0005FEC01F05AB3EFEF28F0F7EF28F00C0E78
:1051E0000E6F150E126F5FEC01F003EF29F05AB548
:1051F000FCEF28F002EF29F00D0E0E6F270E126F54
:105200005FEC01F0000000000A0E5C630AEF29F079
:1052100010EF29F05CC10EF1010E126F5FEC01F08E
:105220000A0E5D6316EF29F01CEF29F05DC10EF147
:10523000060E126F5FEC01F00A0E5E6322EF29F09A
:1052400028EF29F05EC10EF10D0E126F5FEC01F038
:105250002BEC29F01200A8B152EF29F0F29E70C198
:105260006CF1AA0E6C6352EF29F071C16CF1550E0E
:105270006C6352EF29F086C16CF1AB0E6C6352EF98
:1052800029F0140EA46F010EEA6E520EE96E010EA3
:10529000E26E720EE16EE7CFEFFFE92AE12AA42F5A
:1052A0004BEF29F0F28E1200D8CF6DF1E8CF1AF152
:1052B000E0CF6EF1F29E9EAA82EF29F0D92AA8B122
:1052C00072EF29F0AECFA5F19E9AAA0EA56382EFE8
:1052D00029F0A881010EDA6E700ED96EA5C1DFFF2C
:1052E00082EF29F0AECFA5F19E9AAB0EA56380EFB9
:1052F00029F0AB0EE8CFDFFFA981A89182EF29F05A
:10530000A5C1DFFFF28E6DC1D8FF1AC1E8FF6EC1E3
:10531000E0FFE0CF6EF11000000E0D6F2BEC29F0D6
:10532000DDEC29F0980E116F20EC01F08C9E8C8A38
:105330008C9AACC1E8FFA2EC00F08C908C928C8E21
:10534000040E0D6F2BEC29F0DDEC29F0900E116F9F
:1053500020EC01F08C9E8C8A8C9AACC1E8FFA2EC08
:1053600000F08C808C928C8E060E0D6F2BEC29F049
:10537000DDEC29F0880E116F20EC01F08C9E8C8AF8
:105380008C9AACC1E8FFA2EC00F08C908C828C8EE1
:105390000C0E0D6F2BEC29F0DDEC29F0800E116F57
:1053A00020EC01F08C9E8C8A8C9AACC1E8FFA2ECB8
:1053B00000F08C808C828C8E12000201F80E796FC6
:1053C000716F696F616F596F516F496FFC0E416F5B
:1053D000FE0E396FFF0E316FF80E7A6F7F0E4A6F37
:1053E000000E426F000E3A6F000E326F000E7B6FA0
:1053F000FE0E636FFC0E5B6FF80E536FF10E4B6F7A
:10540000030E436F060E3B6F0C0E336FF80E2B6FBF
:10541000F10E236F000E7C6F3C6F346F446F8F0E64
:10542000746F1F0E6C6F3F0E646F630E5C6FC70E60
:10543000546F8F0E4C6F0F0E7D6FFF0E6D6FFF0E52
:10544000656FFF0E5D6FFE0E556FFC0E4D6F000E0B
:10545000456F010E3D6F030E356FF10E7E6FE30E4B
:10546000766FC70E6E6F8F0E666F1F0E5E6F3F0EEC
:10547000566F7F0E4E6FFE0E916FFC0E896FF80E09
:10548000816FFE0ED26FFC0ECA6FF80EC26FF10E66
:10549000BA6FE30EB26FC70EAA6F8F0EA26F1F0E08
:1054A0009A6F3F0E926F7E0E8A6FFC0E826FC00E57
:1054B000E36F000EDB6F836F8B6F000ED36F7F0E79
:1054C000CB6F000EE46FDC6F846F000ED46FFE0EA6
:1054D000AC6FFC0ECC6FA46FF80EC46F9C6FF10E16
:1054E000BC6F946FE30EB46F000E8C6FE30EF56F1C
:1054F000C70EED6F0C0EE56F180EDD6F300ED56F19
:10550000630ECD6FC70EC56F8F0EBD6F1F0EB56FCB
:10551000030E8D6F070E856F3F0EAD6F7F0EA56F6B
:10552000070EE66F030EDE6F010ED66FF00ECE6F24
:10553000F80EC66FBE6FB66FAE6FA66F9E6F966F9A
:105540008E6F866F01011200090EAC6F080EAB6FF3
:105550000A0EAA6FAC078CEC29F0AA2FABEF2AF049
:10556000AB2FA8EF2AF0080EAB6F0A0EAA6F8CECD7
:1055700029F0AA2FB7EF2AF0AB2FB5EF2AF0080ECB
:10558000AB6F0A0EAA6FAC2B8CEC29F0AA2FC4EFDC
:0A5590002AF0AB2FC1EF2AF0120041
:020000040030CA
:0300010006191EBF
:02000500018078
:0600080000400FE00F4074
:00000001FF
