:020000008C284A
:08000800FF00030E8312031335
:10001000B4000A0EB500040EB6008A110A12B42804
:10002000C408031D14280800F93000000000000077
:1000300000000000000000000000000000000000C0
:1000400000000000000000000000FF3E031D152816
:1000500000000000000000000000000000000000A0
:100060000000000000000000000000000000000090
:100070000000C40B14280800FA30C4001020FA3025
:10008000C4001020FA30C4001020FA30C400102040
:10009000C30B3C2808000730831603139F00C030B1
:1000A00081008312C2010A30420203187228DF3035
:1000B000831606058600DF3083120605C300203054
:1000C000430486006430C4001020DF308316060528
:1000D0008600DF308312060586006430C4001020DD
:1000E000C20A5328DF30831606058600DF308312EC
:1000F0000605C3002030430486000130C3003C20C5
:10010000DF30831606058600DF3083120605860081
:100110000130C3003C207228D53083120313A000A5
:10012000C430A100BB30A200DC30A300A401A501B3
:10013000A601A701A801A901AA01AB01AC01AD016B
:10014000AE01AF01BC01BD01B701B801BE01BF01E5
:10015000C001C101B001B101B201B301BA01BB01DB
:10016000B9018A110A124B2883120313360E840038
:0E017000350E8A00340E8300FF0E7F0E09004C
:02400E00323F3F
:00000001FF
