:040000008A15B82A7B
:08000800FF00030EFC000A0ECC
:0C001000FD00040EFE008A150A12BB2A37
:10002000C901C808031930284803031933284808B0
:10003000023A031936284808033A031939284808B0
:10004000043A03193C284808053A03193F28480890
:10005000063A031942284808073A03194528472851
:100060000130C90047280230C90047280430C900C0
:1000700047280830C90047281030C90047282030D9
:10008000C90047284030C90047288030C9004908C6
:10009000CA000800023083160313C80010204A0863
:1000A000C300910443081105C40043084406031922
:1000B000522808000230C80010204A08C400440832
:1000C0001405031D5F280430C80010204A08C5002D
:1000D0000330C80010204A084504C5000230C8009B
:1000E00010204A084504C5000130C80010204A0805
:1000F0004504C500C80110204A084504C50045084C
:100100001105031D7F28C80110204A08C5004508B5
:100110001405031D8728430883129300831644089F
:100120001405031D8E28080083160313C801102030
:100130004A08C300910443081105C400430844065B
:1001400003199B280800C4010230C80010204A0887
:10015000C50045081405031DA9280430C800102057
:100160004A08C5000330C80010204A084504C500ED
:100170000230C80010204A084504C5000130C800FC
:1001800010204A084504C500C80110204A0845044B
:10019000C50045081105031DC9280330C8001020FB
:1001A0004A08C500910445081105C60045084606E1
:1001B0000319D328C308031DDF289112E0289116E4
:1001C0000430C80010204A08C500910445081105F4
:1001D000C700450847060319E6288312130883164B
:1001E000C4004408C8000800C301C601C7013C0898
:1001F000C400C501C31908003D1C04294408C607F2
:100200000318C70A4508C707BD0C0310C40DC50D68
:10021000C30AFA2894202408C3005A204008C300C7
:100220005A204108C3005A204208C3005A204A20DD
:10023000080094202408C3005A203E08C3005A2016
:100240003F08C3005A207308C3005A207208C30035
:100250005A207108C3005A207008C3005A204A204F
:10026000000000000000000000000000000000008E
:1002700000000000080094202408C3005A20400811
:10028000C3005A204108C3005A204A209420240A5F
:10029000C3005A200130C300A3204808C2004A20EE
:1002A0004208C300080094202408C3005A204008D4
:1002B000C3005A204108C3005A204A209420240A2F
:1002C000C3005A20C301A3204808F300C301A320A0
:1002D0004808F200C301A3204808F1000130C30020
:1002E000A3204808F0004A2008003C08BD00BD0DCE
:1002F0003D0DFC39A5008312831350308400831612
:1003000025088407000ABD0083128313503084003F
:100310008316250884073D0880008312831350301C
:1003200084008316250884078008031D08008312B3
:100330008313503084008316250A8407000ABD0009
:1003400083128313503084008316250A84073D08E6
:10035000800083128313503084008316250A84079B
:100360008008031D0800831283135030840002307C
:10037000831625078407000ABD00831283135030BB
:10038000840002308316250784073D08800083120D
:1003900083135030840002308316250784078008B9
:1003A000031D08008312831350308400033083162A
:1003B00025078407000ABD00831283135030840090
:1003C00003308316250784073D0880000800831644
:1003D0000313BC010E30A400831207088316BD006E
:1003E0003D18692AC0010830C1003B214308BE0006
:1003F0003E08BC00BE080319632A3E1C0D2AC0013A
:100400000430C1003B214308BF00C0010830C100D7
:100410000130C2000A213F08F800BE1C1D2AC0019D
:100420000530C1003B214308BF00C0010830C100B6
:100430000230C2000A213F08F9003E1D2D2AC001EA
:100440000630C1003B214308BF00C0010830C10095
:100450000430C2000A213F08FA00BE1D3C2AC00138
:100460000730C1003B214308BF00C0010830C10074
:10047000C2000A213F08FB003E1E442AC00108308A
:10048000C1001030C2000A21BE1E4C2AC001083033
:10049000C1002030C2000A213E1F542AC00108308A
:1004A000C1004030C2000A21BE1F5C2AC0010830D2
:1004B000C1008030C2000A21C0010830C1003B21C8
:1004C0004308BE00FA29C0010830C100FF30C20055
:1004D0000A213C08C0000800F001F101F201F3011B
:1004E000BE010C30BC002C08BD00F4204608B20050
:1004F0004708B30014303207BF001921BE010C3089
:10050000BC002C08BD00F4204608B2004708B30028
:100510003208103EBF001921C0011830BC002C0861
:10052000BD00F4204608B2004708B3003208A03EE0
:10053000C1003B214308AD000E3C031CA72A12302A
:10054000F3003430F2000130F100FE30F000BE0163
:100550000C30BC002C08BD00F4204608B20047084F
:10056000B3003208403EBF001921BE010C30BC0070
:100570002C08BD00F4204608B2004708B300443000
:100580003207BF001921BE010C30BC002C08BD0091
:10059000F4204608B2004708B30018303207BF0005
:1005A000192108000130C0003E08C1003B210000B5
:1005B000000000000000000000000000000000003B
:1005C0000000C0013F08C1005321000000000000EE
:1005D0000000000000000000000000000000080013
:1005E0000E30A4002608A700A70D270DFC39A50092
:1005F0008312831360308400831625088407000863
:10060000F00083128313603084008316250A840768
:100610000008F100831283136030840002308316D7
:10062000250784070008F2008312831360308400DA
:1006300003308316250784070008F300BE010C3041
:10064000BC002608BD00F4204608A7004708A80003
:1006500014302707BF00192108002608AA00AA0D98
:100660002A0DFC39A5000E30A400831283135030EC
:1006700084008316250884070008A80083128313CA
:10068000503084008316250A840707300005AD002A
:100690002608AA00AC010310AA0DAC0D0310AA0D88
:1006A000AC0D0310AA0DAC0D2A08603EAB00031878
:1006B000AC0A2B082D07A90094200E30C3005A2045
:1006C0002908C3005A202808C3005A204A20942031
:1006D0000F30C3005A200130C300A3204808A700F0
:1006E0004A202608BC0075212708AA000800A90195
:1006F000AA010130AB00B201B7012608BC00BC0D55
:100700003C0DFC39A5002608BC00BC0DBC0D3C0D01
:10071000F839B6000E30A400831378308400260820
:100720008407003080008313783084002608840713
:10073000001BA22BC0012608C1004030C2000A21C4
:10074000E721932B0330BC002608BD00F4204608A7
:10075000C0004708C1004008E03EBE000C30BC00AD
:100760002608BD00F4204608C0004708C100400824
:10077000103EBF00D2227008AC007108AD007208B4
:10078000AE007308AF000330BC002608BD00F420A3
:100790004608C0004708C100E1304007BE000C30E9
:1007A000BC002608BD00F4204608C0004708C10070
:1007B00014304007BF00D2228312831350308400CC
:1007C0008316250884077008800083128313503035
:1007D00084008316250A840771088000831283131E
:1007E0005030840002308316250784077208800089
:1007F0008312831350308400033083162507840747
:1008000073088000831283135030840083162508F8
:10081000840700082C06031D302C831283135030EC
:1008200084008316250A840700082D06031D302C3A
:100830008312831350308400023083162507840707
:1008400000082E06031D302C8312831350308400C1
:10085000033083162507840700082F060319AB0110
:10086000C0011830BC002608BD00F4204608BE00B8
:100870004708BF003E08A03EC1003B214308B0002E
:100880000F3A0319542C3008113A0319542C30082C
:10089000123A0319542C3008103A03195A2C300814
:1008A000133A0319602C662C0830B400A9010830F3
:1008B000B100682C0630B4000230A900B101682CE8
:1008C0000330B400A9000430B100682C0130B70037
:1008D000AB080319392FB7080319952C831283131A
:1008E000603084008316250884072C08800083125A
:1008F0008313603084008316250A84072D08800046
:100900008312831360308400023083162507840726
:100910002E08800083128313603084000330831616
:10092000250784072F088000392F83128313503046
:1009300084008316250884070008B80083128313F7
:10094000503084008316250A84070008B9008312FA
:100950008313503084008316250884070008BC00E8
:1009600083128313603084008316250884073C08B3
:10097000800083128313503084008316250A840775
:100980000008BC0083128313603084008316250A9C
:1009900084073C08800083128313503084000230A7
:1009A0008316250784070008BC0083128313603078
:1009B000840002308316250784073C0880008312D8
:1009C0008313503084000330831625078407000802
:1009D000BC00831283136030840003308316250724
:1009E00084073C08800083128313503084008316F0
:1009F000250884070008A700831283135030840061
:100A00008316250A840707300005BF002608BC00AE
:100A1000BE010310BC0DBE0D0310BC0DBE0D0310B6
:100A2000BC0DBE0D3C08603EBD000318BE0A3D086B
:100A30003F07A80094200E30C3005A202808C300A6
:100A40005A202708C3005A204A2094200F30C300A0
:100A50005A20B2013403320203183F2DC301A320F0
:100A600083128313203084008316320836078407EC
:100A7000480880002608BC007521B20A2A2D0130E2
:100A8000C300A3208312831320308400831632080E
:100A900036078407480880004A202608BC007521D4
:100AA00083128313203084008316360884070008DD
:100AB0000A3C0318BF2D831378308400260884076E
:100AC00000308000C0012608C1001030C2000A2199
:100AD000B00803197C2DC0011830BC002608BD00E9
:100AE000F4204608BE004708BF003E08A03EC100F3
:100AF0003B214308B000682DF001F101F201F30140
:100B0000BE010C30BC002608BD00F4204608C00021
:100B10004708C10014304007BF001921BE010C3046
:100B2000BC002608BD00F4204608C0004708C100EC
:100B30004008103EBF001921831378308400260836
:100B4000840700308000C0012608C1000230C200C6
:100B50000A21B008031DBD2DC0011830BC002608B5
:100B6000BD00F4204608BE004708BF003E08A03E76
:100B7000C1003B214308B000A92DAB01392F8312DE
:100B80008313203084008316360A8407000829075F
:100B9000A90083128313203084008316360A840749
:100BA00000082902031CAA0A831283132030840040
:100BB0008316360884070008AA00831283132030A6
:100BC00084008316360884070008BA008312831352
:100BD000203084008316360A84070008BB00831285
:100BE0008313203084008316360A84070008B3007C
:100BF00083128313203084008316360A8407310859
:100C00000002BC0083128313203084008316360A4E
:100C100084073C08800083128313203084008316ED
:100C2000360A8407000833020318282E8312831320
:100C3000203084008316360884070003BC0083122A
:100C40008313203084008316360884073C08800014
:100C50002908003C0318992EA903831283136030DE
:100C60008400831625088407000ABC0083128313BE
:100C7000603084008316250884073C0880008312B6
:100C80008313603084008316250884078008031DC1
:100C9000282E83128313603084008316250A84076C
:100CA000000ABC0083128313603084008316250A77
:100CB00084073C088000831283136030840083160D
:100CC000250A84078008031D282E831283136030B1
:100CD00084000230831625078407000ABC008312B3
:100CE00083136030840002308316250784073C0894
:100CF000800083128313603084000230831625073E
:100D000084078008031D282E83128313603084001B
:100D10000330831625078407000ABC00831283135F
:100D20006030840003308316250784073C08800068
:100D3000282E2A08003C0318EE2EAA0383128313E0
:100D4000603084008316250A8407000ABC008312E1
:100D50008313603084008316250A84073C088000D2
:100D600083128313603084008316250A8407800869
:100D7000031D992E83128313603084000230831682
:100D800025078407000ABC008312831360308400A7
:100D900002308316250784073C08800083128313E2
:100DA0006030840002308316250784078008031D05
:100DB000992E831283136030840003308316250735
:100DC0008407000ABC008312831360308400033060
:100DD0008316250784073C088000992EB5018312ED
:100DE0008313603084008316250A840700082F02CD
:100DF000031C1E2F8312831360308400023083167D
:100E00002507840700082E02031C1E2F831283135C
:100E1000603084008316250A840700082D02031C15
:100E20001E2F8312831360308400831625088407E5
:100E300000082C02031C1E2F0130B500AB01350346
:100E4000031D392F83128313203084008316360844
:100E500084070008003C0318302FFF30AB00392F07
:100E600083128313203084008316360A8407000817
:100E7000AB002B08BC0008000E30A4002608A70019
:100E8000A70D270DFC39A500831283134030840081
:100E90008316250884070008F0008312831340306E
:100EA00084008316250A84070008F1008312831347
:100EB0004030840002308316250784070008F200C2
:100EC0008312831340308400033083162507840780
:100ED0000008F300BE010C30BC002608BD00F42061
:100EE0004608A7004708A8002708403EBF00192170
:100EF0008313783084002608840700308000C00106
:100F00002608C1002030C2000A21831378308400F3
:100F100026088407801A0800E721852F2608AA00E2
:100F2000AA0D2A0DFC39A5000E30A40083128313EC
:100F3000403084008316250884070008A800831227
:100F40008313403084008316250A84070730000588
:100F5000AD002608AA00AC010310AA0DAC0D0310C9
:100F6000AA0DAC0D0310AA0DAC0D2A08403EAB0033
:100F70000318AC0A2B082D07A90094200E30C300DB
:100F80005A202908C3005A202808C3005A202708DD
:100F9000C3005A204A2083128313403084008316F2
:100FA00025088407000AAA008312831340308400B6
:100FB0008316250884072A08800083128313403093
:100FC00084008316250884078008031D0800831207
:100FD0008313403084008316250A8407000AAA0080
:100FE00083128313403084008316250A84072A085D
:100FF000800083128313403084008316250A8407FF
:101000008008031D080083128313403084000230DF
:10101000831625078407000AAA0083128313403031
:10102000840002308316250784072A088000831273
:10103000831340308400023083162507840780081C
:10104000031D08008312831340308400033083168D
:1010500025078407000AAA00831283134030840006
:1010600003308316250784072A0880000800260815
:10107000A800A80D280DFC39A5000E30A400C00161
:101080001830BC002608BD008A11F4204608A800CC
:101090004708A9002808A03EC1003B214308A7003B
:1010A0000E3C8A15031870280330BC002608BD00CA
:1010B0008A11F4204608AA004708AB00F1302A073D
:1010C000BE000C30BC002608BD00F4204608AA0073
:1010D0004708AB0044302A07BF00D2228A158A286D
:1010E0000330BC002608BD008A11F4204608AA007F
:1010F0004708AB00E2302A07BE000C30BC002608CF
:10110000BD00F4204608AA004708AB0018302A07A3
:10111000BF00D22283128313403084008316250837
:101120008407700880008312831340308400831684
:10113000250A8407710880008312831340308400DD
:1011400002308316250784077208800083128313F8
:10115000403084000330831625078407730880001D
:1011600008002608043C0318B728AD010800C00198
:101170001830BC002608BD008A11F4204608B300D0
:101180004708B400AC303307C1002B08C2000A2165
:10119000C0011830BC002608BD00F4204608B3008A
:1011A0004708B400AD303307C1002C08C2000A2143
:1011B000C0011830BC002608BD00F4204608B3006A
:1011C0004708B400A8303307C1002708C2000A212D
:1011D000C0011830BC002608BD00F4204608B3004A
:1011E0004708B400A9303307C1002808C2000A210B
:1011F000C0011830BC002608BD00F4204608B3002A
:101200004708B400AA303307C1002908C2000A21E8
:10121000C0011830BC002608BD00F4204608B30009
:101220004708B400AB303307C1002A08C2000A21C6
:101230000130AD0008000E30A4002608AA00AA0D57
:10124000AA0D2A0DF839A9002608043C03182A29FA
:10125000AB010800C0011830BC002608BD008A118F
:10126000F4204608B1004708B200A1303107C100A0
:101270000230C2000A21C0011830BC002608BD009F
:10128000F4204608B1004708B200AE303107C10073
:101290002708C2000A21C0011830BC002608BD0082
:1012A000F4204608B1004708B200AF303107C10052
:1012B0002808C2000A218313783084002608840796
:1012C00000308000C0012608C1000230C2000A219F
:1012D0008313783084002608840780088A15031D4C
:1012E00075298A11E7218A156829831378308400CB
:1012F0002608840780187E29AB0108002608AC0068
:101300008A116C22831283132030840083162908EB
:1013100084070030800083128313203084008316FA
:10132000290A840700308000831283132030840050
:10133000023083162907840700308000831283134C
:101340002030840003308316290784070030800092
:101350008312831320308400043083162907840706
:101360000030800083128313203084000530831600
:101370002907840700308000831283132030840003
:1013800006308316290784070030800083128313F8
:10139000203084000730831629078407003080003E
:1013A0000130AB000800C030F400A830F500F601B1
:1013B0000230F7000E3083160313A40007168715BA
:1013C0000714303093009401941791018312940113
:1013D0009415141694168316C001C1018030C20002
:1013E0008A110A21C0018030C100C030C2000A2128
:1013F000C0018130C100A830C2000A21C001823082
:10140000C100C2010A21C0018330C1000130C20005
:101410000A21C0018430C100FF30C2000A21C0018E
:101420008530C100FF30C2000A21C0018630C100F2
:10143000FF30C2000A21C0018730C100C2010A2169
:10144000C0018830C100C2010A21C0018930C10039
:101450000830C2000A21C0018A30C100DC30C2005D
:101460000A21C0018B30C100C2010A21C0018C30A9
:10147000C100C2010A21C0018D30C100C2010A2190
:10148000C0018E30C1007408C2000A21C0018F3033
:10149000C1007508C2000A21C0019030C100760861
:1014A000C2000A21C0019130C1007708C2000A21A0
:1014B000C0019530C1005530C2000A21C0019630EC
:1014C000C1005530C2000A21F801C001C10101303C
:1014D000C2000A21781808008A11E7218A156A2AB1
:1014E0000730831603139F00C0308100D321A6016B
:1014F000A7010530A8008A151B21A601C030A7004E
:10150000A830A800A9010130AA00AB010530AC0049
:101510008A15B120FF30080488008312080883165A
:10152000A100230821068A150319A12AA601372044
:10153000A6012108A7008A118E27A6013C272108B1
:10154000A300A6018A1177233C08A000A0088A15F1
:1015500003198A2AA6018A112D232A08A2008601CE
:101560002208831286008316A601F0228A158A2A91
:101570008A150A12702A7E0E84007D0E8A007C0E67
:081580008300FF0E7F0E09003D
:02400E003A3F37
:00000001FF