:020000004F2986
:08000800FF00030E8312031335
:10001000B4000A0EB500040EB6008A110A12772940
:10002000C608031D14280800CC30FF3E031D152808
:100030000000C60B142808000000000000000000AB
:1000400000000000D50B1C280800C501440845022B
:100050000318080064000130C6001020C50A2628D5
:10006000071087100711871107128712520E0F39D8
:10007000D4000F30D40554180714D4188714541919
:100080000715D4198715D308031D07160A30D500A4
:100090001C2087160A30D5001C2087120F3052050D
:1000A000D4000A30D5001C200710871007118711D3
:1000B0000712871254180714D418871454190715F7
:1000C000D4198715D308031D07160A30D5001C2044
:1000D00087160A30D5001C2087120A30D5001C2054
:1000E0000800D101D1015008510203180800831300
:1000F0004318831742085107840080080319080039
:100100008313431883174208510784000008D20064
:100110001030D3003020D10A7328C308031D932860
:100120008030C300A2284303031D9928C030C300B8
:10013000A2284308023A031DA0289030C300A22839
:10014000D030C30042084307D200D3013020023030
:10015000C40025200800013083120313D200D3010C
:1001600030200230C40025200230D200D3013020DC
:100170000230C400252008008316031307108312E1
:1001800007108316871083128710831607118312B6
:1001900007118316871183128711831607128312A2
:1001A000071283168712831287120C30C400252091
:1001B0003330D200D30130200230C4002520333048
:1001C000D200D30130200230C40025203230D200CA
:1001D000D30130200230C40025202C30D200D301BE
:1001E00030200230C40025200630D200D301302058
:1001F0000230C40025200C30D200D3013020023060
:10020000C40025200130D200D30130200230C400C8
:1002100025200230D200D30130200230C400252036
:1002200008000730831603139F00C0308100BC20F4
:10023000AB200430C200C3018D202D30C7004530F3
:10024000C500C9004730C4005030C8005230C60055
:10025000CA00CB010030C3004430C2000730D000D8
:1002600071200230C2000130C3008D204530C4002F
:10027000C900CA004730C600CE004930C700CC00D4
:100280004E30C500C800CD005230CB00CF01003049
:10029000C3004430C2000B30D00071201929D53082
:1002A00083120313A000C430A100BB30A200DC30D5
:1002B000A300A401A501A601A701A801A901AA0103
:1002C000AB01AC01AD01AE01AF01BC01BD01B70195
:1002D000B801BE01BF01C001C101B001B101B2014D
:1002E000B301BA01BB01B9018A110A1211298312A3
:1002F0000313360E8400350E8A00340E8300FF0E81
:040300007F0E090063
:02400E00BA3FB7
:00000001FF
