:020000008A2A4A
:08000800FF00030E8312031335
:10001000A0000A0EA100040EA2008A110A128D2A65
:10002000B108031D1428080009300000FF3E031D1D
:10003000152800000000B10B14280800A708031DB4
:1000400022280800F5300000000000000000000039
:1000500000000000000000000000000000000000A0
:10006000000000000000FF3E031D232800000000E8
:100070000000000000000000000000000000000080
:10008000000000000000A70B22280800B001B10109
:10009000B301B401B201321A08000310B30DB40D5C
:1000A000AA0DAB0DB00DB10D2D083102031D5A285C
:1000B0002C083002031C63282C08B0022D08031CF6
:1000C000B103B1023314B20A4B280608B000301055
:1000D000B0103011B0113012B0122D0E0F39B10026
:1000E0000F303105AF002F183014AF18B0142F198E
:1000F0003015AF19B015AE08031D30163008860054
:100100000A30B100102086160A30B1001020861285
:100110000F302D05AF000A30B10010200608B000E6
:100120003010B0103011B0113012B0122F1830143E
:10013000AF18B0142F193015AF19B015AE08031D44
:100140003016300886000A30B100102086160A30BA
:10015000B100102086120A30B100102008002503DB
:10016000031DB428260895002508023A031D08003F
:1001700026089B000800FF30831692000630831289
:1001800092002503031DC8280C3097008316071121
:1001900083122508023A031D08000C309D008316C7
:1001A00087100800AC012B082C02031808008313E9
:1001B0002618831725082C078400800803190800D7
:1001C00083132618831725082C0784000008AD0028
:1001D0001030AE006520AC0AD328A61FFC282D30B5
:1001E000AD001030AE0065202508003CAA00A6092D
:1001F0000318A60A2A08A5002508A7002608A800B3
:1002000027302602031D062910302502031C3A2937
:10021000A61B3A29AE012708AA002808AB00A81F90
:100220001729AA09AB09AA0A0319AB0AAE0A1030AA
:10023000AC002730AD0046203308A9002E1C22292F
:10024000A909A90A2908303EAD001030AE0065208A
:100250002908003C03183A2910302702AA00273049
:10026000031C28302802AB002A08A7002B08A8008E
:10027000A903282903302602031D4029E83025025E
:10028000031C7529A61B7529AF012708AA00280899
:10029000AB00A81F5129AA09AB09AA0A0319AB0A86
:1002A000AF0AE830AC000330AD0046203308AE00A2
:1002B0002F1C5C29AE09AE0A2E08A900303EAD0005
:1002C0001030AE0065202908003C03187529E8307D
:1002D0002702AA000330031C04302802AB002A08BE
:1002E000A7002B08A800A90363292608803AAA00C2
:1002F00080302A02031D7E2964302502031CAB29AD
:10030000AF012708AA002808AB00A81F8D29AA0959
:10031000AB09AA0A0319AB0AAF0A6430AC00AD01FD
:1003200046203308AE002F1C9729AE09AE0A2E08CE
:10033000A900303EAD001030AE0065202908003C19
:100340000318AB2964302702AA00031CA8032A085B
:10035000A700A9039E292608803AAA0080302A0215
:10036000031DB4290A302502031CE129AF01270827
:10037000AA002808AB00A81FC329AA09AB09AA0A2A
:100380000319AB0AAF0A0A30AC00AD0146203308AE
:10039000AE002F1CCD29AE09AE0A2E08A900303EB2
:1003A000AD001030AE0065202908003C0318E1299B
:1003B0000A302702AA00031CA8032A08A700A903E1
:1003C000D4292708303EAD001030AE00652008006B
:1003D000A608031DEE298030A600F029C030A60033
:1003E00025082607AD00AE0165200230A7001E20BB
:1003F00008008316031306108610061186110612D4
:1004000086120C308312A7001E203330AD00AE01DF
:1004100065200230A7001E203230AD00AE016520FD
:100420000230A7001E202C30AD00AE016520023046
:10043000A7001E200630AD00AE0165200230A700E7
:100440001E200C30AD00AE0165200230A7001E203A
:100450000130AD00AE0165200230A7001E20023041
:10046000AD00AE0165200230A7001E200800073055
:10047000831603139F00C0308100F9210230A500CC
:10048000BB208312A401F730831607058700F730DD
:10049000831207058700FF30831608048800831243
:1004A0000808A3002303031D622A0A302407A400BE
:1004B000F03C03185D2AF030A4000230A5002408A7
:1004C000A600AF202308023A031D712A0A30240235
:1004D000A400F03C031CA4010230A5002408A600DF
:1004E000AF206430A7001E20A501A601E821240842
:1004F000A500A601ED202030A700A800A900AA01B0
:100500000030AC002730A5002C08A6000330AB005B
:10051000D2204B2A8A110A12372A83120313220E81
:100520008400210E8A00200E8300FF0E7F0E09003A
:02400E00323F3F
:00000001FF