:020000040000FA
:020000001028C6
:08000800FD000308FE000A08D8
:10001000FF007F088A007E088300FD0E7D0E090028
:100020008312031703019E009F0083160313B03051
:10003000860000308700831203133030940083164B
:10004000031387150717831203170030B400B90094
:10005000BA00B700B800B600B500831203136430CD
:10006000F8006E21782100308A00362801308A009D
:10007000332100308A003628FE30C205D105013018
:100080008A006E2100308A0008006E21831203135B
:100090000230AB0083120317360883120313F300F8
:1000A0001130EF000030F00007308A00B8278312CB
:1000B0000317350883120313F3000430EF000030F8
:1000C000F00007308A00B827831203130130ED00D7
:1000D0000030F70007308A002927422783120313D4
:1000E0000130F7002927422700308A00F330CB0582
:1000F000DA05D805C905E130BB05EA05B905E8050B
:1001000008006E21831203173A0883120313F300C9
:100110000030AB001830EF000030F00007308A00EC
:10012000B82783120317390883120313F300003032
:10013000AB001030EF000030F00007308A00B82725
:1001400083120317380883120313F3000030AB0047
:100150000830EF000030F00007308A00B827831223
:100160000317370883120313F3000030AB0000308D
:0E017000EF000030F00007308A00B8270800CA
:10020000A0000000000000000000A00B0129080071
:100210000530A300C8300021A30B0A290800A10063
:100220000821A10B102908000530A400C8300F21B7
:10023000A40B16290800A2001421A20B1C290800F7
:10024000871207121030EC00000893000000000035
:100250000000000000000000000007160712840ADA
:10026000EC0B2429080045202C308400202181201B
:100270002C308400202107148714871668218712E8
:1002800045203C308400202181203C308400202106
:100290000710871487160821871245204C308400E8
:1002A000202181204C3084002021071487108716DC
:1002B0000821871245205C308400202181205C3099
:1002C0008400202107108710871608218712080054
:1002D00009308A00132101308A0008004030EC0008
:1002E0002C308400FF308000840AEC0B7229080057
:1002F000831603134030E000A0308400FF308000FC
:100300000030840AE00B7E29080000308A000800D3
:100310001F3084000430EC000D308407FF30800073
:10032000003010308407F60B96290800EC0B8E295C
:100330004C3084028A2908006C3084000430EC00C0
:100340000D308402FF308000003010308402F60B44
:10035000AA290800EC0BA2294C3084079E2908002A
:1003600073088207BE29D329E62900000000000097
:1003700000000000000000008A0A002A74088207BA
:100380000834C73483341134393439343934393486
:1003900039343934393439343934393411348334D3
:1003A000C73400308A00740882070734CF34CF3452
:1003B0008F340F344F34CF34CF34CF34CF34CF34A5
:1003C000CF34CF34CF34CF340334033474088207AE
:1003D0000834873403343134F934F934F934F934D6
:1003E000F134833407343F343D3439343934013403
:0203F0000134D6
:10040000730882070800080008000C2A1F2A322AF5
:10041000452A582A6B2A7E2A7408820708348734B2
:1004200003343134F934F934F934F134C334C33496
:10043000F134F934F934F93431340334873474083D
:1004400082070834FD34F934E934C934C934C93475
:100450009934393401340134F934F934F934F93444
:10046000F934FB3474088207083401340134393418
:100470003B343F343F343F3407340334F134F934F0
:10048000F934F934F134033407347408820708343A
:10049000C7348334113439343F343F343F34273444
:1004A0000334113439343934393411348334C73492
:1004B0007408820708340134013439343934F9348A
:1004C000F934F934F334E734CF34CF34CF34CF3484
:1004D000CF34CF34CF34740882070834C734833420
:1004E00011343934393439349334C73483341134C2
:1004F00039343934393411348334C73474088207B9
:100500000834C7348334113439343934393411342C
:100510008134C934F934F934F93439341134833439
:02052000C734DE
:10060000730882070E2B312B542B772B9A2BBD2B83
:1006100000000000000000008A0A002C7408820715
:100620000C34C034FF3480347F341E343F343F34C4
:100630003F343F343F343F343F343F343F343F3422
:100640003F343F343F343F343F343F343F343F3412
:100650003F343F343F341E343F3480347F34C03421
:10066000FF34740882070C34CF34FF34CF34FF34A6
:100670008F34FF340F34FF344F34FF34CF34FF3422
:10068000CF34FF34CF34FF34CF34FF34CF34FF3492
:10069000CF34FF34CF34FF34CF34FF34CF34FF3482
:1006A0000334FF340334FF34740882070C34C0343D
:1006B000FF3480347F343E343F34FF343F34FF34E2
:1006C0003F34FF343F34FF343F34FE343F34C034D2
:1006D0007F348034FF343F34FF343F34FF343F34C1
:1006E000FF343F343F3400343F3400343F34740827
:1006F00082070C34C034FF3480347F341E343F34DE
:100700003F343F34FF343F34FF343F34FE343F3412
:10071000E0347F34E0347F34FE343F34FF343F3400
:10072000FF343F343F343F341E343F3480347F3411
:10073000C034FF34740882070C34FF34BF34F934FA
:100740003F34F9343F34F9343F34F3343F34E73441
:100750003F34CF343F349F343F343F343F343F3411
:100760003F3400343F3400343F34FF343F34FF34EF
:100770003F34FF343F34FF347F34740882070C3435
:1007800000343F3400343F343F343F343F347F340F
:100790003F34FF343F34FF343F34FF340034FF3400
:1007A00000347F34FE343F34FF343F34FF343F3471
:1007B0003F343F341E343F3480347F34C034FF3400
:1008000073088207080008000800080008000800B4
:100810000C2C2F2C522C752C740882070C34C034ED
:100820007F3480343F341E343F343F343F343F34D0
:10083000FF343F34FF341F34FF340034FF340034BE
:100840007F341E343F343F343F343F343F343F34F1
:100850003F341E343F3480347F34C034FF34740856
:1008600082070C3400343F3400343F343F343F348B
:100870003F343F34FF343F34FF343F34FE343F34A1
:10088000FC347F34F834FF34F134FF34E334FF3484
:10089000E734FF34E734FF34E734FF34E734FF3420
:1008A000E734FF34740882070C34C034FF348034DA
:1008B0007F341E343F343F343F343F343F341E34A2
:1008C0003F3480347F3480347F341E343F343F34AF
:1008D0003F343F343F343F343F343F343F341E34A1
:1008E0003F3480347F34C034FF34740882070C34C2
:1008F000C034FF3480347F341E343F343F343F34BF
:100900003F343F343F343F341E343F3480343F342F
:10091000C0343F34FE343F34FF343F34FF343F347F
:100920003F343F341E343F3480347F34C034FF348E
:100930000800831203130030F4002B088207A42C54
:10094000C42C05308A00DA2C01308A00B021F50071
:10095000F40A5F308400B8245E308400B8245D302F
:100960008400B8245C308400B82400308A00080079
:100970000430EC0001308A00B02180001030840285
:10098000F40AEC0BBA2C080000308A00080004308E
:10099000EC0003308A000023800004308407F40A4E
:1009A00003308A000023800014308402F40AEC0B28
:1009B000C92C080003308A000023F500F40A5F30D8
:1009C0008400C7245E308400C7245D308400C724BF
:0C09D0005C308400C72400308A0008005E
:100A000083160313640882070800B12DB12DB12DA0
:100A1000B12DB12DB12DB12DB12D6F2D6F2D6F2DAC
:100A20006F2D6F2D6F2D6F2D6F2D1D2D1D2D1D2DDC
:100A30001D2D1D2D1D2D1D2D1D2D6408E5000130C2
:100A4000E3006608630203194B2D0314D30CD70C83
:100A5000DB0CDF0CC30CC70CCB0CCF0CB30CB70CEE
:100A6000BB0CBF0CA30CA70CAB0CAF0CD20CD60C60
:100A7000DA0CDE0CC20CC60CCA0CCE0CB20CB60CD6
:100A8000BA0CBE0CA20CA60CAA0CAE0CE50B252DC4
:100A90006408E50008000314D10CD50CD90CDD0C5A
:100AA000C10CC50CC90CCD0CB10CB50CB90CBD0CEE
:100AB000A10CA50CA90CAD0CD00CD40CD80CDC0CE2
:100AC000C00CC40CC80CCC0CB00CB40CB80CBC0CD6
:100AD000A00CA40CA80CAC0CE50B4C2D0800640871
:100AE000E5000130E300660863020319962D031444
:100AF000D30CD70CDB0CC30CC70CCB0CB30CB70C52
:100B0000BB0CA30CA70CAB0CD20CD60CDA0CC20C91
:100B1000C60CCA0CB20CB60CBA0CA20CA60CAA0CD1
:100B2000E50B772D6408E50008000314D10CD50C03
:100B3000D90CC10CC50CC90CB10CB50CB90CA10C6D
:100B4000A50CA90CD00CD40CD80CC00CC40CC80C2F
:100B5000B00CB40CB80CA00CA40CA80CE50B962D92
:100B600008006408E5000130E30066086302031929
:100B7000D02D0314D30CD70CC30CC70CB30CB70C7B
:100B8000A30CA70CD20CD60CC20CC60CB20CB60C23
:100B9000A20CA60CE50BB92D6408E50008000314AF
:100BA000D10CD50CC10CC50CB10CB50CA10CA50C0D
:100BB000D00CD40CC00CC40CB00CB40CA00CA40C05
:0C0BC000E50BD02D08000000000008002C
:100C00006F0882070800B22EB22EB22EB22EB22E7C
:100C1000B22EB22EB22E702E702E702E702E702E1E
:100C2000702E702E702E1C2E1C2E1C2E1C2E1C2E78
:100C30001C2E1C2E1C2E1C2E831203136F08ED007D
:100C40000130F2007708720203194C2E0314DF0CF6
:100C5000E30CE70CEB0CCF0CD30CD70CDB0CBF0C6C
:100C6000C30CC70CCB0CAF0CB30CB70CBB0CDE0C1D
:100C7000E20CE60CEA0CCE0CD20CD60CDA0CBE0C54
:100C8000C20CC60CCA0CAE0CB20CB60CBA0CED0BF6
:100C9000262E6F08ED0008000314DD0CE10CE50CB6
:100CA000E90CCD0CD10CD50CD90CBD0CC10CC50C6C
:100CB000C90CAD0CB10CB50CB90CDC0CE00CE40C9F
:100CC000E80CCC0CD00CD40CD80CBC0CC00CC40C54
:100CD000C80CAC0CB00CB40CB80CED0B4D2E0800CD
:100CE0006F08ED000130F200770872020319972EA9
:100CF0000314DF0CE30CE70CCF0CD30CD70CBF0CA8
:100D0000C30CC70CAF0CB30CB70CDE0CE20CE60C3A
:100D1000CE0CD20CD60CBE0CC20CC60CAE0CB20C57
:100D2000B60CED0B782E6F08ED0008000314DD0CF7
:100D3000E10CE50CCD0CD10CD50CBD0CC10CC50CD7
:100D4000AD0CB10CB50CDC0CE00CE40CCC0CD00CF4
:100D5000D40CBC0CC00CC40CAC0CB00CB40CED0B23
:100D6000972E08006F08ED000130F200770872023C
:100D70000319D12E0314DF0CE30CCF0CD30CBF0CE2
:100D8000C30CAF0CB30CDE0CE20CCE0CD20CBE0CC0
:100D9000C20CAE0CB20CED0BBA2E6F08ED000800C1
:100DA0000314DD0CE10CCD0CD10CBD0CC10CAD0C51
:100DB000B10CDC0CE00CCC0CD00CBC0CC00CAC0CA2
:0E0DC000B00CED0BD12E080000000000080062
:100E000083120313FF30AA006D08EE000314800D57
:100E1000AA0DEE0B062F043084022A088005080074
:100E20008312031377088207162F192F633084006B
:100E30001B2F613084000230A7000430A800002777
:100E40000C308402A80B1F2F3F308407A70B1D2FE7
:100E5000080083120313770882072F2F322F673081
:100E60008400342F653084000230A7000430A800CD
:100E700000270C308402A80B382F3F308407A70BC3
:100E8000362F08008312031377088207482F4B2F51
:100E90006B3084004D2F693084000230A70004308D
:100EA000A80000270C308402A80B512F3F30840784
:100EB000A70B4F2F080070080319080083120313B3
:100EC0007008EC005F08AA004F08DF003F08CF0061
:100ED0002F08BF005E08AF004E08DE003E08CE00BF
:100EE0002E08BE005D08AE004D08DD003D08CD00B7
:100EF0002D08BD005C08AD004C08DC003C08CC00AF
:100F00002C08BC00FF30AC00EC0B622F0230F2006A
:100F10002B087202031D080009308A0016200930D0
:100F20008A0008000030F400831203132B088207A4
:100F30009B2FB32FCD2F8316031301308A00B021CE
:100F4000E100F40AD3308400B824D2308400B824FD
:100F5000D1308400B824D0308400B82400308A0016
:100F600083120313080000308A0083120313080061
:100F700004308A00992407308A005B270030F7008C
:100F800006308A00002600308A000130F700063063
:100F90008A00002600308A000800831603130330FD
:100FA0008A000023E100F40AD330840004308A0070
:100FB000C724D230840004308A00C724D130840092
:100FC00004308A00C724D030840004308A00C7244B
:0A0FD00000308A00831203130800AA
:1010000007308A009227831603130030E60005306C
:101010008A00002500308A00831603130130E600A1
:1010200005308A00002500308A000800831203136F
:101030007008EC006308F9005308E3004308D3008C
:101040003308C3006208B3005208E2004208D2002D
:101050003208C2006108B2005108E1004108D10025
:101060003108C1006008B1005008E0004008D0001D
:101070003008C000FF30B000EC0B1A2808008316BF
:101080000313FF30E8006508ED000314800DAA0D7E
:10109000ED0B4528043084022A0880050800660804
:1010A000820753285628D73084005828D53084002A
:1010B0000230EB000430EC003F200C308402EC0BDB
:1010C0005C283F308407EB0B5A280800660882072B
:1010D0006A286D28DB3084006F28D9308400023004
:1010E000EB000430EC003F200C308402EC0B732842
:1010F0003F308407EB0B71280800660882078128BF
:101100008428DF3084008628DD3084000230EB0044
:101110000430EC003F200C308402EC0B8A283F3076
:101120008407EB0B8828080008000800BB21D0309A
:10113000A90076218316031387118312031300304D
:10114000A90076210030A90076213430A90076214B
:0A1150000130A9007621CC2108002F
:10120000831203170030B400B30CB40CB30CB40C4D
:10121000B30CB40CB30CB40C0310B40CB40CB40C7D
:10122000B40C34080800BB21D030A9007621831605
:1012300003138711831203130030A9007621CC21F8
:10124000BB21D130A90076215D2183120317002133
:10125000BA000021B900A2215D21831203170021E9
:10126000B8000021B700A2215D21831203170021DD
:10127000B6000021B500A2215D21831203170021D1
:10128000BB000021A2215D21831203170021BD00B4
:101290000021BC00A2215D21831203170021BF00A1
:1012A0000021BE00A2215D21831203170021C2008C
:1012B0000021C100AC21CC2108008316031387153F
:1012C000831203130330DD210830A500871D6A292E
:1012D00003146B29031083120317B30D8312031336
:1012E0008F21A50B66290530DD2108008316031325
:1012F0008711831203130830A500A90D031C81294F
:10130000852987110130DD21882987150130DD21EC
:101310008F21A50B7D290A30DD21962108000717B2
:101320000730DD2107130730DD2108008316031382
:101330008715831203130330DD21000087199D29CF
:101340008F2108008316031387118312031387115B
:101350000530DD218F2108008316031387118312C6
:10136000031387150230DD218F21831603138715A0
:1013700083120313080083160313871107138312C4
:101380000313871507170230DD2187110130DD2196
:1013900007130130DD21080083160313871107139B
:1013A00083120313071387110A30DD210717053055
:1013B000DD2187150130DD21080083120313A00011
:0E13C0000000000000000000A00BE029080063
:10140000831203133C08AC004C08BC005C08CC0001
:101410002D08DC003D08AD004D08BD005D08CD0085
:101420002E08DD003E08AE004E08BE005E08CE006D
:101430002F08DE003F08AF004F08BF005F08CF0055
:101440002A08DF000800831203134008B000500888
:10145000C0006008D0003108E0004108B100510828
:10146000C1006108D1003208E1004208B200520810
:10147000C2006208D2003308E2004308B3005308F8
:10148000C3006308D3007908E30008008312031344
:101490004408B4005408C4006408D4003508E400CB
:1014A0004508B5005508C5006508D5003608E500B3
:1014B0004608B6005608C6006608D6003708E6009B
:1014C0004708B7005708C7006708D7007A08E70041
:1014D0000800831203134808B8005808C8006808B9
:1014E000D8003908E8004908B9005908C900690856
:1014F000D9003A08E9004A08BA005A08CA006A083E
:10150000DA003B08EA004B08BB005B08CB006B0825
:10151000DB007B08EB00080083160313200883120E
:101520000313AA00831603133008A0004008B0007C
:101530005008C0002108D0003108A1004108B100C6
:101540005108C1002208D1003208A2004208B200AE
:101550005208C2002308D2003308A3004308B30096
:101560005308C300080083160313240883120313CF
:10157000F900831603133408A4004408B400540887
:10158000C4002508D4003508A5004508B500550855
:10159000C5002608D5003608A6004608B60056083D
:1015A000C6002708D6003708A7004708B700570825
:1015B000C70008000A308A008C22002200308A000E
:1015C00008000A308A00B322232200308A00080073
:1015D0000B308A0000230A308A00462200308A003D
:1015E00008000B308A0027230A308A006922003065
:0415F0008A00080065
:1016000083160313280883120313FA0083160313A7
:101610003808A8004808B8005808C8002908D800A9
:101620003908A9004908B9005908C9002A08D90091
:101630003A08AA004A08BA005A08CA002B08DA0079
:101640003B08AB004B08BB005B08CB0008008316CF
:1016500003132C0883120313FB00831603133C08A7
:10166000AC004C08BC005C08CC002D08DC003D0838
:10167000AD004D08BD005D08CD002E08DD003E0820
:10168000AE004E08BE005E08CE002F08DE003F0808
:0C169000AF004F08BF005F08CF0008004B
:02400E00C230BE
:084200000100020003000400AC
:00000001FF
