:040000008A15342900
:08000800FF00030E8312031335
:10001000C0000A0EC100040EC2008A150A127B2914
:10002000E508031D14280800F93000000000000056
:1000300000000000000000000000000000000000C0
:1000400000000000000000000000FF3E031D152816
:1000500000000000000000000000000000000000A0
:100060000000000000000000000000000000000090
:100070000000E50B14280800E908031D40280800CB
:1000800009300000FF3E031D412800000000E90B7D
:100090004028080000000000DF0B4A280800E401A7
:1000A000630864020318080064000130E5001020B2
:1000B000E40A5028061186110612861206108610D0
:1000C000660E0F39E8000F30E80568180615E818C5
:1000D000861568190616E8198616E708031D061422
:1000E0000A30E9003C2086140A30E9003C208610E2
:1000F0000F306605E8000A30E9003C200611861141
:10010000061286120610861068180615E81886155D
:1001100068190616E8198616E708031D06140A3042
:10012000E9003C2086140A30E9003C2086100A30A1
:10013000E9003C20080083120313EF014030F00077
:10014000CA08031DA5280130EF00EF08031DBB28D6
:100150004A08033A031DAE28F001BB287F30F000A7
:10016000D0080319B8284A08023A0319F001BB283D
:100170004A030319F0012C08F7002D08F8002E0897
:10018000F9002F08FA007008FB00FC01FD01FE01D8
:10019000F01FCD28FC03FD03FE037B08F7077C0856
:1001A00003187C0FF8077D0803187D0FF9077E08F8
:1001B00003187E0FFA077F302C05F500003044024B
:1001C000031DE428FD304302031C7F294308FD3C46
:1001D00044080318031DC41BEE28F628FD3043060F
:1001E00003194408031D0D29FA1F0D292830CB04DB
:1001F000F008031D05297F30AE00FF30AC00AD00D4
:10020000AF01FE30C300C4010800FF30C300C401C9
:10021000AC01AD01AE01AF010800C41F7F29FC0194
:1002200049030319FC0AFB014408803A8316A10024
:100230007F302102031D1F29FF3083124302031860
:1002400023298312FB0A8316A0018312FB080319DA
:10025000FC0803192D298316A00A803083127A0521
:10026000FD00FE01FE0AFD08031D7E10F601FE08DA
:10027000031D3C298316A008031940298312F60A9E
:100280008312C3080319C408031973294309FB0027
:100290004409FC00FB0A0319FC0A20307B027C089D
:1002A0000318542903195629FC1F67297D10430997
:1002B000FE00FE0A2C187D140310AF0CAE0CAD0C22
:1002C000AC0CFE03031D5A297D182C1473292C082D
:1002D0002D042E042F04FF39031973290130AC00BB
:1002E000AD01AE01AF01C301C4017F302C05F500A3
:1002F000F60803197F29F50803197F294B16F5081D
:10030000031DCB167008FB00FC01FD01FE01F01F70
:100310008C29FC03FD03FE037B08AC077C08031853
:100320007C0FAD077D0803187D0FAE077E0803180C
:100330007E0FAF070730FB00FB080319A629031047
:10034000AF0CAE0CAD0CAC0CFB039C294030750619
:10035000031DAD29EF08031D2C102C082D042E04BD
:100360002F04FF39031D0800C301C40108008312D4
:1003700003132F1CBF290230C3070318C40AAE1F82
:10038000C529C30A031DC529C40A4308AF000310C9
:10039000AF0CAE134318AE17D008031DAF170800FB
:1003A000403083120313ED00F501F601F701F80167
:1003B000AC01AD01AE01AF016D08EE00ED03EE083A
:1003C00003191D2A0310AC0DAD0DAE0DAF0DF81BBA
:1003D0002C140310F50DF60DF70DF80DAB1F152AB3
:1003E0002408F50725080318250FF6072608031823
:1003F000260FF70727080318270FF80727087802A2
:10040000031D0C2A26087702031D0C2A25087602F4
:10041000031D0C2A240875020318152AAC0A0319B7
:10042000AD0A0319AE0A0319AF0AAF1B1D2A031048
:10043000A80DA90DAA0DAB0DDC29C40120306D0259
:10044000C300031CC403ED1BC403750876047704C2
:100450007804FF39031D2C140800E901EA01EC01BE
:10046000ED01EB016B1A08000310EC0DED0DE30D2F
:10047000E40DE90DEA0D66086A02031D412A6508CC
:100480006902031C4A2A6508E9026608031CEA039C
:10049000EA026C14EB0A322A831203132C082D048F
:1004A0002E042F04FF390319612A2F1B08000310A3
:1004B000AC0DAD0DAE0DAF0DC3080319C403C303DE
:1004C000552AC301C4010800E208031D6A2A8030CE
:1004D000E200792A6203031D702AC030E200792A03
:1004E0006208023A031D772A9030E200792AD03060
:1004F000E20061086207E600E7015A200230E300EB
:100500004F2008006008A4006108A5006208A6004A
:10051000A613A7016308CC00CC130310CC0DE21B7B
:100520004C14CE01E31F962A0130CE00E50196302F
:100530004C02E400031CE50380304C02E600660830
:10054000153C03180F2BE61B0F2B66081D3C0318E8
:10055000D92AE61BD92A6008003C031DBB2A610882
:10056000003C031DBB2A6208003C031DBB2A630834
:10057000CF3C0319D32A4B14CE080319CC2A6608A2
:100580007F3AE61BD32A031DD32A24082504260418
:100590002704FF390319D32A7F30EE00FF30EB0028
:1005A000EC00ED000800EB01EC01ED018030EE0005
:1005B00008001630E602A6176608EF00EF080319D8
:1005C000E82A0310A40DA50DA60DA70DEF03DE2A42
:1005D000CE080319062B2408003CEF000030F00081
:1005E000F100F2002508031C250FF0022608031C69
:1005F000260FF1022708031C270FF2026F08A40040
:100600007008A5007108A6007208A7002408EB0076
:100610002508EC002608ED002708EE0008007E30D3
:100620004C0203182D2BCC080319172B1E2B240862
:10063000250426042704FF390319242B0130EF0079
:10064000F001F101F201282BEF01F001F101F201BB
:10065000E701E801E901EA015C2BA6172408EF0095
:100660002508F0002608F1002708F2001F30640575
:10067000F300F3080319432B0310EF0DF00DF10DF8
:10068000F20DF303392B2408E7002508E8002608BB
:10069000E9002708EA00E409E509E40A0319E50A84
:1006A0006408F300F30803195C2B6A0DEA0CE90CEB
:1006B000E80CE70CF303522B6F087004710472040A
:1006C000FF39031DCB16CA08031DA42BF21F852B6F
:1006D000E70A0319E80A0319E90A0319EA0A6F0885
:1006E000F3007008F4007108F5007208F6000310BA
:1006F000F30DF40DF50DF60D73087404750476040E
:10070000FF39031D852BFE30E705CE080319E62BC4
:100710006708003CF3000030F400F500F6006808BC
:10072000031C680FF4026908031C690FF5026A08CC
:10073000031C6A0FF6027308E7007408E8007508E6
:10074000E9007608EA00E62BF3016F0870047104F3
:100750007204FF39031D7314CE080319D82B4A0302
:10076000031DBC2BF3080319BC2BE70A0319E80A85
:100770000319E90A0319EA0A6708003CF40000308B
:10078000F500F600F7006808031C680FF502690819
:10079000031C690FF6026A08031C6A0FF70274084B
:1007A000E7007508E8007608E9007708EA00E62B1C
:1007B0004A08023A031DE62BF3080319E62BE70A61
:1007C0000319E80A0319E90A0319EA0A6708EB00A2
:1007D0006808EC006908ED006A08EE0008005F0890
:1007E000A4006008A5006108A600A613A70162087E
:1007F000CC00CC130310CC0DE11B4C146308A800F3
:100800006408A9006508AA00AA13AB016608CD0018
:10081000CD130310CD0DE51B4D14CE01E21F122C9C
:100820000130CE00CF01E61F172C0130CF004F085A
:100830004E06D00067104C0A03196714E7104D0AE2
:100840000319E71467112408250426042704FF3937
:1008500003196715E711280829042A042B04FF3916
:100860000319E7156718362CE71C7D2C671C3E2CF6
:1008700067193E2C611B3E2C4B146E2CE71C462C3A
:10088000E719462C651B462C4B146E2C671C4A2C12
:10089000671D6E2CE71C4E2CE71D6E2CE71D552C9A
:1008A000CD08031D552C4B146E2C671D5C2CCC08F9
:1008B000031D5C2C4B146E2CED01EE017F30F0001B
:1008C0008030EF00D008031DF0177008F4006F08A7
:1008D000F3006E08F2006D08F1000800ED01EE0172
:1008E000C030EF00FF30F0007008F4006F08F30034
:1008F0006E08F2006D08F10008007F30E800CC08B7
:10090000031D9E2C671D942CED01EE01F001EF01FB
:10091000D008031DF0177008F4006F08F3006E088C
:10092000F2006D08F1000800E803A61B9F2C0310DD
:10093000A40DA50DA60DA70DE80A952CA617CD08A8
:10094000031DBE2CE71DB42CED01EE01F001EF01FB
:10095000D008031DF0177008F4006F08F3006E084C
:10096000F2006D08F1000800E803AA1BBF2C031079
:10097000A80DA90DAA0DAB0DE80AB52CAA170730D2
:10098000ED00ED080319CB2C0310A40DA50DA60D49
:10099000A70DED03C12C0830ED00ED080319D72C8D
:1009A0000310A80DA90DAA0DAB0DED03CD2CD02180
:1009B000C3080319C40803190A2D4309ED004409AB
:1009C000EE00ED0A0319EE0A20306D026E080318DE
:1009D000EB2C0319ED2CEE1FFE2C67124309EF00E0
:1009E000EF0A2C1867160310AF0CAE0CAD0CAC0C54
:1009F000EF03031DF12C671A2C140A2D2C082D046B
:100A00002E042F04FF3903190A2D0130AC00AD016B
:100A1000AE01AF014C08C300C4014D08C307031861
:100A2000C40A6808C302031CC4032F1B202D031033
:100A3000AC0DAD0DAE0DAF0DC3080319C403C30358
:100A40009B20B7212C08E9002D08EA002E08EB00B6
:100A50002F08EC006C08F4006B08F3006A08F20041
:100A60006908F100080062088316A3008312610878
:100A70008316A200831260088316A10083125F0808
:100A80008316A00023088312FD000310FD0D8316BA
:100A9000A21F4C2D83127D1483127D08E900EA0108
:100AA000FF30690603196A08031D7D2D620883164D
:100AB000A300831261088316A200831260088316C4
:100AC000A10083125F088316A000A213A3012008CF
:100AD0008312EB00831621088312EC008316220890
:100AE0008312ED00831623088312EE006B086C045A
:100AF0006D046E04FF39031DC72D66088316A3001D
:100B0000831265088316A200831264088316A1006D
:100B1000831263088316A00023088312FD000310CC
:100B2000FD0D8316A21F962D83127D1483127D085E
:100B3000EF00F001FF306F0603197008031DCA2D86
:100B400066088316A300831265088316A200831229
:100B500064088316A100831263088316A000A21301
:100B6000A30120088312F100831621088312F200EA
:100B7000831622088312F300831623088312F400DD
:100B80007108720473047404FF390319CA2D4B14DD
:100B9000FD01080062088316A30083126108831612
:100BA000A200831260088316A10083125F088316D7
:100BB000A000803023058312FE00E701FE08031D1C
:100BC000671466088316A300831265088316A200C3
:100BD000831264088316A100831263088316A000A1
:100BE000803023058312FE00E801FE08031D68140F
:100BF0006808670603191E2E63085F04F500640881
:100C00006004F60065086104F70066086204F800F5
:100C10000310F50DF60DF70DF80DF90175087604C2
:100C200077047804FF39031D7914FE01F908031DC8
:100C3000E708031DFE0A7E08FD000800FC016308AA
:100C40005F02031D2E2E64086002031D2E2E650810
:100C50006102031D2E2E66086202031DFC0AFA01C2
:100C600066086202031D3E2E65086102031D3E2ECA
:100C700064086002031D3E2E63085F02031CFA0A2B
:100C80007A086706FB00FE01FB08031DFC08031D34
:100C9000FE0A7E08FD0008006708AC006808AD0089
:100CA0006908AE006A08AF002C08003C031D6A2EDC
:100CB0002D08003C031D6A2E2E08003C031D6A2EE1
:100CC0002F08803C031D6A2E0130D0009E30C300E7
:100CD000C4018F2ED001AF1F8A2E0130D0002C0806
:100CE000003CEF000030F000F100F2002D08031C82
:100CF0002D0FF0022E08031C2E0FF1022F08031CEB
:100D00002F0FF2026F08AC007008AD007108AE0042
:100D10007208AF009C30C300C4014C229B20B72155
:100D20002C08EB002D08EC002E08ED002F08EE003B
:100D30006E08F2006D08F1006C08F0006B08EF001F
:100D40000800DF1FB02E2D30E6001030E7005A20DB
:100D50005E08003CE300DF090318DF0A6308DE00D9
:100D60005E08E0005F08E10027305F02031DBA2E35
:100D700010305E02031CE82EDF1BE82EE70160083E
:100D8000E3006108E400E11FCB2EE309E409E30A74
:100D90000319E40AE70A1030E5002730E6002D22A7
:100DA0006C08E200671CD62EE209E20A6208303EB7
:100DB000E6001030E7005A206208003C0318E82ED5
:100DC0001030E0022730031C2830E102E203DC2E61
:100DD00003305F02031DEE2EE8305E02031C1E2F5F
:100DE000DF1B1E2FE8016008E3006108E400E11F3B
:100DF000FF2EE309E409E30A0319E40AE80AE830EC
:100E0000E5000330E6002D226C08E700681C0A2F7D
:100E1000E709E70A6708E2006208303EE6001030A2
:100E2000E7005A206208003C03181E2FE830E00259
:100E30000330031C0430E102E203122F5F08803A02
:100E4000E30080306302031D272F64305E02031C21
:100E5000532FE8016008E3006108E400E11F362F2A
:100E6000E309E409E30A0319E40AE80A6430E50047
:100E7000E6012D226C08E700681C402FE709E70A0D
:100E80006708E2006208303EE6001030E7005A20B2
:100E90006208003C0318532F6430E002E108031C91
:100EA000E103E203482F5F08803AE30080306302E9
:100EB000031D5C2F0A305E02031C882FE8016008C6
:100EC000E3006108E400E11F6B2FE309E409E30A92
:100ED0000319E40AE80A0A30E500E6012D226C084D
:100EE000E700681C752FE709E70A6708E200620857
:100EF000303EE6001030E7005A206208003C03183C
:100F0000882F0A30E002E108031CE103E2037D2F91
:100F10006008303EE6001030E7005A200800E50186
:100F2000E501640865020318080083135F1883173E
:100F30005E086507840080080319080083135F18A2
:100F400083175E08650784000008E6001030E7009C
:100F50005A20E50A912F1030E000E1015E08E2001E
:100F60006422DF0160085F020318BD2F2030E60015
:100F70001030E7005A20DF0AB22FE1015E08E200DC
:100F800064220800DF308316031307058700DF3073
:100F9000831207058700DF30831607058700DF30DF
:100FA00083120705DE0020305E0487000A30DF0070
:100FB0004A20DF30831607058700DF3083120705DC
:100FC0008700B401B501B601B701403083160704AC
:100FD0008700403083120705DE00DF0140305E02EB
:100FE0000319DF0A57105F08031D5714571CE12F20
:100FF000B408B508B608B708B40A0319B50A031946
:10100000B60A0319B70A0130DF004A2040308316C0
:1010100007048700403083120705DF00E0014030FD
:101020005F020319E00A57106008031D57143408C3
:10103000E7003508E8003608E9003708EA004C26E2
:101040006F08DF007008E0007108E1007208E2003C
:101050009530E3004330E4000B30E5003E30E6001D
:10106000EF237108B8007208B9007308BA00740859
:10107000BB00DE015718DE0A3808DF003908E0003F
:101080003A08E1003B08E200E301E4014830E500F2
:101090004330E60033257D085E05031DF82F02303E
:1010A000DE00AB27E1010230E20064224430E000C0
:1010B0007230E1003D30E200E3010030DF006030DB
:1010C000DE000330E4008F270330E1000230E2004D
:1010D00064223408DE003508DF00A126E101033078
:1010E000E20064220330DE00AB274430E0003D30F4
:1010F000E100E2010030DF006030DE000230E40099
:101100008F270230E1000330E20064223808E0005B
:101110003908E1003A08E2003B08E30082226B084C
:10112000DE006C08DF00A1266330E0006D30E100D6
:10113000E2010030DF006030DE000230E4008F2783
:101140000930E1000330E20064224330E000533014
:10115000E1003D30E200E3010030DF006030DE00FE
:101160000330E4008F274508DE004608DF00A12693
:101170000800013083120313E600E7018A115A20A8
:101180000230E3004F200230E600E7015A2002302F
:10119000E3004F2008008316031306118312061183
:1011A0008316861183128611831606128312061285
:1011B0008316861283128612831606108312061077
:1011C00083168610831286100C30E3008A114F209C
:1011D0003330E600E7015A200230E3004F2033307D
:1011E000E600E7015A200230E3004F203230E600EB
:1011F000E7015A200230E3004F202C30E600E701DF
:101200005A200230E3004F200630E600E7015A2062
:101210000230E3004F200C30E600E7015A20023094
:10122000E3004F200130E600E7015A200230E300DE
:101230004F200230E600E7015A200230E3004F2041
:1012400008000730831603139F00C0308100CB20B5
:101250008A15B9208A11C227FF30E50010202D30F1
:10126000E50010208A152A29D53083120313A00027
:10127000C430A100BB30A200DC30A300A401A50152
:10128000A601A701A801A901AA01AB01AC01AD010A
:10129000AE01AF01CC01CD01C301C401CE01CF012C
:1012A000D001D101B001B101B201B301CA01CB013A
:1012B000C901B401B501B601B701FF30D200D301B5
:1012C000FF30D400FF30D500D6015710FF30D800D2
:1012D000D901C501C601FF30DA00FF30DB00BC01D7
:1012E000BD01BE01BF01DC01D710C701C801DD018E
:1012F0008A150A12212983120313420E8400410E1B
:0C1300008A00400E8300FF0E7F0E0900E3
:02400E00721E20
:00000001FF
