:02000000A22A32
:08000800FF00030E8312031335
:10001000BC000A0EBD00040EBE008A110A12E42ABA
:10002000DB08031D14280800CC30FF3E031D1528F3
:100030000000DB0B142808000330DA07DA0CDA0CB6
:100040007F30DA050000DA0B22280800FA30DB00E6
:100050001020FA30DB001020FA30DB001020FA30DC
:10006000DB001020DA0B262808008C11831691156E
:1000700083128C1D3828DB0803194128831691163A
:100080004328831691121116111A4428831213085B
:10009000DC0008008C115B0893008C1D4D28831632
:1000A000111F562801308312DC0008008312DC0186
:1000B0000800831203138C118316111511195E2881
:1000C0000A308312DB0010200800831203138C1106
:1000D0008316911491186A280800831203138C1157
:1000E000831611141118722808008316031394172D
:1000F000141328308312940040308316930091012A
:100100008B17071687150800831203135508013A49
:100110000319A628033A0319AC28013A0319B22897
:10012000073A0319B828013A0319BE28033A0319FC
:10013000C428013A0319CA280F3A0319D028013AF2
:100140000319D628093A0319DC28E2288316850109
:100150003030831285000800831685016D308312CC
:100160008500080083168501793083128500080018
:1001700083168501333083128500080083168501BC
:100180005B30831285000800831685015F3083127F
:1001900085000800831685017030831285000800F1
:1001A000831685017F308312850008008316850140
:1001B0007B30831285000800831685017E30831210
:1001C0008500080083168501013083128500080030
:1001D000FB308316031306058600FB3083120605E9
:1001E0008600F730831606058600F7308312060571
:1001F0008600EF30831606058600EF308312060571
:100200008600DF30831606058600DF308312060580
:1002100086000800FB308316031306058600FB30BA
:10022000831206058600F730831606058600F73030
:10023000831206058600EF30831606058600EF3030
:10024000831206058600DF30831606058600DF3040
:1002500083120605DA0020305A0486000800FB30BD
:100260008316031306058600FB30831206058600FD
:10027000F730831606058600F730831206058600E0
:10028000EF30831606058600EF3083120605DA008C
:1002900010305A048600DF30831606058600DF30F2
:1002A0008312060586000800FB308316031306053B
:1002B0008600FB30831206058600F730831606059C
:1002C0008600F73083120605DA0008305A048600EB
:1002D000EF30831606058600EF3083120605860090
:1002E000DF30831606058600DF30831206058600A0
:1002F0000800FB308316031306058600FB308312CB
:100300000605DA0004305A048600F7308316060525
:100310008600F730831206058600EF308316060547
:100320008600EF30831206058600DF30831606054F
:100330008600DF308312060586000800831603134B
:100340008501831285010130CA00C830DB0010200E
:10035000D901083059020318080083168501831259
:100360004A088500CA080310CA0DC830DB001020F7
:10037000D90AA929592008005A08DB0035205C0851
:10038000DB000800652008005A08DB004A205C08F2
:10039000DB0008006D200800E001DE01DF01DF194D
:1003A00008000310DE0DDC0DE00D5D086002031C8B
:1003B000DB29E0005E14DF0ACF29DE01E001DF0166
:1003C000DF1908000310E00DDA0DDE0D5B085E0298
:1003D000031CEC29DE006014DF0AE02979219E214C
:1003E00054219E212F219E210A219E2183168501C1
:1003F0004330831285000130DA002620FF30DB0015
:100400001020F530DB0010200800CA218312D30130
:10041000B430DA00C4215B08D300D3010730DA001E
:10042000C4215B08D300C2218312D301B430DA00A7
:10043000C4215B08D3005308DA00BC215B08D70055
:100440005708CC005308DA00BC215B08D7005708D6
:10045000CE005308DA00BC215B08D7005708CF0054
:10046000BA21080083160313850183128501E82051
:1004700079214B08D50084200530DA001C20831632
:10048000850183128501E82054215208D50084207B
:100490000530DA001C208316850183128501E820CF
:1004A0002F215108D50084200530DA001C20831646
:1004B000850183128501E8200A21831685014330D6
:1004C000831285000530DA001C2008007520080022
:1004D0008316031788018901C030031381007B3024
:1004E0008312CC00FF30CE00CF00D401D601013002
:1004F000CB000230D2000330D100EE21662205226B
:100500004C08DA006430DB00DD216008CB004C08C9
:10051000DA000A30DB00DD216008DC000A30DD0093
:10052000CC216008D2004C08DC000A30DD00CC2170
:100530006008D100D801C830580203187F2A32223F
:10054000D80A9B2AD53083120313A000C430A1001F
:10055000BB30A200DC30A300A401A501A601A701C5
:10056000A801A901AA01AB01AC01AD01AE01AF0127
:10057000C401C501BF01C001C601C701C801C9014D
:10058000B001B101B201B301C201C301C101CA018D
:10059000CB01FF30CC00B401B501B601B701CD01EC
:1005A000FF30CE00FF30CF00D001D101D2010130A9
:1005B000D300D401D501D601D701B801B901BA01E0
:1005C000BB018A110A12682A831203133E0E8400AB
:0E05D0003D0E8A003C0E8300FF0E7F0E0900D8
:02400E00D220BE
:02401000FF3E71
:00000001FF
