:020000002A2BA9
:08000800FF00030E8312031335
:10001000BC000A0EBD00040EBE008A110A126D2B30
:100020000330DE07DE0CDE0C7F30DE050000DE0B69
:1000300016280800DB08031D1E280800F930FF3EC3
:10004000031D1F280000DB0B1E280800FA30DB0010
:100050001A20FA30DB001A20FA30DB001A20FA30BE
:10006000DB001A20DA0B26280800DD0183160716AC
:1000700014308312DE0010208030DC00DC0803190D
:100080005A288316871514308312DE001020831639
:1000900007168312071E4F285C085D04DD008316D7
:1000A0008711831287111430DE001020DC08031042
:1000B000DC0C3E28DB080319602883160716642829
:1000C000831607128312071214308312DE001020E9
:1000D0008316871514308312DE00102083168711D3
:1000E000831287111430DE0010205D08DE00080046
:1000F000DD018030DC00DC0803199E285C085B050C
:100100000319852883160716892883160712831278
:10011000071214308312DE00102083168715143066
:100120008312DE001020831687118312871114308A
:10013000DE001020DC080310DC0C7B288316071679
:1001400014308312DE0010208316871514308312BA
:10015000DE001020831607168312071EB128013017
:10016000DD001430DE001020831687118312871102
:100170001430DE0010205D08DE0008008316031333
:100180008711831287118316071283120712143006
:10019000DE0010208316871514308312DE00102035
:1001A000831607160A308312DB001A200800831614
:1001B0000313071614308312DE00102083168715F0
:1001C00014308312DE0010208316071283120712E8
:1001D0001430DE001020831687118312871114302B
:1001E000DE0010200800831603138715071614304D
:1001F0008312DE00102083160712831207121430B8
:10020000DE00102083168711831287111430DE0060
:1002100010200800831603130716871508008312A1
:1002200003135608013A03193129033A03193729F0
:10023000013A03193D29073A03194329013A0319E1
:100240004929033A03194F29013A031955290F3A4D
:1002500003195B29013A03196129093A031967292E
:100260006D298316850130308312850008008316BE
:1002700085016D3083128500080083168501793071
:1002800083128500080083168501333083128500B0
:100290000800831685015B308312850008008316F1
:1002A00085015F3083128500080083168501703058
:1002B000831285000800831685017F308312850034
:1002C0000800831685017B308312850008008316A1
:1002D00085017E3083128500080083168501013078
:1002E000831285000800FB30831603130605860081
:1002F000FB30831206058600F7308316060586005C
:10030000F730831206058600EF3083160605860057
:10031000EF30831206058600DF308316060586005F
:10032000DF308312060586000800FB3083160313B6
:1003300006058600FB30831206058600F73083161B
:1003400006058600F730831206058600EF30831617
:1003500006058600EF30831206058600DF3083161F
:1003600006058600DF3083120605DA0020305A04C5
:1003700086000800FB308316031306058600FB3059
:10038000831206058600F730831606058600F730CF
:10039000831206058600EF30831606058600EF30CF
:1003A00083120605DA0010305A048600DF30831607
:1003B00006058600DF308312060586000800FB3044
:1003C0008316031306058600FB308312060586009C
:1003D000F730831606058600F73083120605DA002B
:1003E00008305A048600EF30831606058600EF3089
:1003F000831206058600DF30831606058600DF308F
:100400008312060586000800FB30831603130605D9
:100410008600FB3083120605DA0004305A04860099
:10042000F730831606058600F7308312060586002E
:10043000EF30831606058600EF308312060586002E
:10044000DF30831606058600DF308312060586003E
:100450000800831603138501831285010130CB0048
:10046000C830DB001A20D9010830590203180800EF
:100470008316850183124B088500CB080310CB0D32
:10048000C830DB001A20D90A342ABE2008005A08D6
:10049000DB0035205E08DB000800D72008005A0882
:1004A000DB0078205E08DB000800F3200800E00194
:1004B000DE01DF01DF1908000310DE0DDC0DE00DA9
:1004C0005D086002031C662AE0005E14DF0A5A2AF7
:1004D000DE01E001DF01DF1908000310E00DDA0D95
:1004E000DE0D5B085E02031C772ADE006014DF0A63
:1004F0006B2A04222922DF212922BA2129229521CF
:10050000831685014330831285000130DA002620EE
:10051000FF30DB001A20F530DB001A2008005522DE
:10052000D301B430DA004F225B08D300D301073087
:10053000DA004F225B08D3004D22D301B430DA0039
:100540004F225B08D3005308DA0047225B08D7002C
:100550005708CD005308DA0047225B08D700570838
:10056000CE005308DA0047225B08D7005708D000B6
:100570004522080083160313850183128501732128
:1005800004224A08D6000F210530DE001020831611
:100590008501831285017321DF215208D6000F21C6
:1005A0000530DE001020831685018312850173213A
:1005B000BA215108D6000F210530DE001020831625
:1005C00085018312850173219521831685014330AE
:1005D000831285000530DE00102008000A21080083
:1005E0008316031788018901C030031381007B3013
:1005F0008312CD00FF30CE00D000D401D5010130F0
:10060000CA000230D2000330D1007922EE228F22BC
:100610004D08DA006430DB0068226008CA004D082B
:10062000DA000A30DB0068226008DC000A30DD00F6
:1006300057226008D2004D08DC000A30DD00572246
:100640006008D100D801C83058020318072BBA221D
:10065000D80A232BD53083120313A000C430A10085
:10066000BB30A200DC30A300A401A501A601A701B4
:10067000A801A901AA01AB01AC01AD01AE01AF0116
:10068000C401C501BF01C001C601C701C801C9013C
:10069000B001B101B201B301C201C301C101CA017C
:1006A000FF30CB00CC01B401B501B601B701FF307A
:1006B000CD00FF30CE00CF01FF30D000D101D201FC
:1006C0000130D300D401D501D601B801B901BA0176
:1006D000BB01D7018A110A12F02A831203133E0EBE
:1006E00084003D0E8A003C0E8300FF0E7F0E090041
:02400E00D420BC
:02401000FF3E71
:00000001FF
