:02000000F92CD9
:08000800FF00030E8312031335
:10001000B4000A0EB500040EB6008A110A12292D8A
:10002000D108031D14280800F9300000000000006A
:1000300000000000000000000000000000000000C0
:1000400000000000000000000000FF3E031D152816
:1000500000000000000000000000000000000000A0
:100060000000000000000000000000000000000090
:100070000000D10B14280800E008031D40280800E8
:1000800009300000FF3E031D412800000000E00B86
:100090004028080000000000CF0B4A280800FA3072
:1000A000D1001020FA30D1001020FA30D1001020F9
:1000B000FA30D1001020CA0B4F280800D701D80110
:1000C000DA01DB01D901591A08000310DA0DDB0D42
:1000D000D10DD20DD70DD80D54085802031D72282A
:1000E00053085702031C7B285308D7025408031CEB
:1000F000D803D8025A14D90A6328D0014F085002F5
:100100000318080064000130D1001020D00A7E28B6
:100110004B089B0008000611861106128612061075
:1001200086105D0E0F39DF000F30DF055F180615F2
:10013000DF1886155F190616DF198616DE08031DFF
:1001400006140A30E0003C2086140A30E0003C200F
:1001500086100F305D05DF000A30E0003C200611FC
:10016000861106128612061086105F180615DF1813
:1001700086155F190616DF198616DE08031D06149C
:100180000A30E0003C2086140A30E0003C20861053
:100190000A30E0003C20080004301F049F001F19B3
:1001A000CF28CB080319E8281E08CC00CD01CC0DC0
:1001B000CD0DCC0DCD0DFC30CC0583161E0C83125D
:1001C000CE00CE0CCE0E03304E05CC04CD08EB286D
:1001D0001E08CC00CD014C08CE004D08CF00080011
:1001E0004A0883169200013083124B0603194C080B
:1001F0000319072904304B0603194C0803190A296F
:1002000010304B0603194C0803190D29080004305F
:1002100092000800053092000800063092000800A5
:10022000831603138710831287100C309D0008007B
:100230004B08003A031D2C290130C9000030BA00D8
:100240008530B900CD08031D29290E3083169F0083
:100250002C29053083169F0083124C08033C031899
:10026000332983161F17831383123A18831739080B
:1002700084000008C80049084804CF0080004C08EA
:10028000CF00D001CF0DD00DCF0DD00DCF0DD00DA3
:10029000CF0DD00DCF0DD00DCF0DD00DC0304F05EF
:1002A0000138D2004B08D100D10DD10DD10DF8305D
:1002B000510552049F004E08CF004A2008008313C6
:1002C000831203133A188317390884004808800002
:1002D000073083169F0083129F0108004A08CB0055
:1002E00088200800CD1F81292D30DD001030DE0070
:1002F0008B204C08003CD100CD090318CD0A5108D1
:10030000CC004C08CE004D08CF0027304D02031D15
:100310008B2910304C02031CB929CD1BB929D501FA
:100320004E08D1004F08D200CF1F9C29D109D20915
:10033000D10A0319D20AD50A1030D3002730D400CD
:100340005E205A08D000551CA729D009D00A5008B1
:10035000303EDD001030DE008B205008003C0318DA
:10036000B9291030CE022730031C2830CF02D00329
:10037000AD2903304D02031DBF29E8304C02031C98
:10038000EF29CD1BEF29D6014E08D1004F08D2002E
:10039000CF1FD029D109D209D10A0319D20AD60A0E
:1003A000E830D3000330D4005E205A08D500561C34
:1003B000DB29D509D50A5508D0005008303EDD00AC
:1003C0001030DE008B205008003C0318EF29E83085
:1003D000CE020330031C0430CF02D003E3294D08C2
:1003E000803AD10080305102031DF82964304C025C
:1003F000031C242AD6014E08D1004F08D200CF1F7B
:10040000072AD109D209D10A0319D20AD60A6430BF
:10041000D300D4015E205A08D500561C112AD509F4
:10042000D50A5508D0005008303EDD001030DE00FF
:100430008B205008003C0318242A6430CE02CF08D9
:10044000031CCF03D003192A4D08803AD100803015
:100450005102031D2D2A0A304C02031C592AD601D1
:100460004E08D1004F08D200CF1F3C2AD109D20933
:10047000D10A0319D20AD60A0A30D300D4015E2069
:100480005A08D500561C462AD509D50A5508D00069
:100490005008303EDD001030DE008B205008003C5C
:1004A0000318592A0A30CE02CF08031CCF03D00309
:1004B0004E2A4E08303EDD001030DE008B20080052
:1004C000DC01DC015B085C020318080083134D1893
:1004D00083174C085C078400800803190800831305
:1004E0004D1883174C085C0784000008DD001030AD
:1004F000DE008B20DC0A622ACE08031D822A8030AF
:10050000CE00912A4E03031D882AC030CE00912AC6
:100510004E08023A031D8F2A9030CE00912AD03027
:10052000CE004D084E07DD00DE018B200230CF00EB
:100530007D200800CC01CF01D0014A08CD00CE01BA
:10054000CC1908004B1CAA2A4D08CF070318D00A63
:100550004E08D007CB0C0310CD0DCE0DCC0AA02A2F
:10056000023083120313CD00CE017C222030D30051
:100570002130D9004430D8004530CF004830CE007B
:100580004C30D000D100D7004F30D200D5005230CF
:10059000D6005730D400DA010030CD004E30CC0008
:1005A0000C30DB006022CD010130CE007C22CD0179
:1005B000CC01C518CC0A7221CD010230CE007C22BC
:1005C000CD01CC014519CC0A7221CD010330CE00FA
:1005D0007C224408CC00CD0172210330CD000130D3
:1005E000CE007C22451C1A2B4F30CE004E30CF005F
:1005F000D0010030CD004E30CC000230DB00602254
:100600004608CA006E210330CD000230CE007C22A5
:100610004708CC00CD0172212530CE002030CF001C
:10062000D000D1010030CD004E30CC000330DB00D3
:100630006022292B4F30CE004630CF00D000D101B0
:100640000030CD004E30CC000330DB006022CA0108
:100650006E210A3046020318422B0D30CD000330C4
:10066000CE007C222030CE00CF00D0010030CD0063
:100670004E30CC000230DB0060224608CC00CD01B9
:1006800072210800CB0164304602031CCB0ACA0168
:100690004608093C031CCA0A4A084B050319642B87
:1006A0000D30CD000330CE007C222030CE00CF01B3
:1006B0000030CD004E30CC000130DB006022460817
:1006C000CC00CD01722108000D30CD000330CE00EA
:1006D0007C224608CC00CD0172210800FF30831235
:1006E0000313CA000130CB00CC01F0201021080018
:1006F0001030CC00CD014A08CE007C22CB014C0842
:100700004B0203188A2B2030DD001030DE008B20D6
:10071000CB0A7F2BCD014A08CE007C220800013095
:1007200083120313DD00DE018B200230CF007D2019
:100730000230DD00DE018B200230CF007D2008007A
:100740008316031306118312061183168611831272
:1007500086118316061283120612831686128312DE
:1007600086128316061083120610831686108312D3
:1007700086100C30CF007D203330DD00DE018B2071
:100780000230CF007D203330DD00DE018B200230CF
:10079000CF007D203230DD00DE018B200230CF0023
:1007A0007D202C30DD00DE018B200230CF007D204B
:1007B0000630DD00DE018B200230CF007D200C30C2
:1007C000DD00DE018B200230CF007D200130DD0016
:1007D000DE018B200230CF007D200230DD00DE0103
:1007E0008B200230CF007D20080083120313CB0141
:1007F0000330CC00CD012830CE001821CB01CC2015
:100800004E08CA005F214A08CB0008000730831653
:1008100003139F00C0308100A0238F230330CD003D
:10082000CE017C224230CE004F30CF00D000543079
:10083000D1004930D2004E30D3004730D400D5012A
:100840000030CD004E30CC000730DB00602201309C
:10085000CA004F202E30CE00CF010030CD004E30E8
:10086000CC000130DB0060220130CA004F202E3066
:10087000CE00CF010030CD004E30CC000130DB0087
:1008800060220130CA004F202E30CE00CF01003050
:10089000CD004E30CC000130DB0060220130CA00B8
:1008A0004F208F236E23B022043083160504850069
:1008B000043083120505CA00C40104304A0203193A
:1008C000C40A083083160504850008308312050524
:1008D000CA00CB0108304A020319CB0A45114B0864
:1008E000031D451510308316050485001030831252
:1008F0000505CA00CB0110304A020319CB0AC51006
:100900004B08031DC514F5234B08C600C408031D7E
:10091000A72CC408031D9C2C0430831605048500F5
:10092000043083120505CA00CB0104304A020319C2
:10093000CB0A4B08C400892C451CA02C4510A12CC7
:1009400045140130CA0078230230CA0078234519C3
:10095000C82C4519BD2C08308316050485000830C5
:1009600083120505CA00CB0108304A020319CB0ADD
:1009700045114B08031D4515A92C451CC12C4510DC
:10098000C22C45140130CA0078230230CA007823F3
:10099000C518E92CC518DE2C103083160504850017
:1009A000103083120505CA00CB0110304A0203192A
:1009B000CB0AC5104B08031DC514CA2C451CE22CDC
:1009C0004510E32C45140130CA0078230230CA00D8
:1009D00078234608CA006430CB009A224F08D10021
:1009E0005008D200FF30D300D4015E205A08C7005F
:1009F000532CD53083120313A000C430A100BB30A8
:100A0000A200DC30A300A401A501A601A701A80152
:100A1000A901AA01AB01AC01AD01AE01AF01BE015C
:100A2000BF01B701B801C001C101C201C301B001DA
:100A3000B101B201B301BC01BD01BB010130C40071
:100A40004510FF30C600C701C51445158A110A12AA
:100A5000062C83120313360E8400350E8A00340EE2
:080A60008300FF0E7F0E090068
:02400E00323F3F
:00000001FF
